{
  "contractName": "CompoundingIndex",
  "abi": [
    {
      "anonymous": false,
      "inputs": [
        {
          "indexed": true,
          "internalType": "address",
          "name": "previousOwner",
          "type": "address"
        },
        {
          "indexed": true,
          "internalType": "address",
          "name": "newOwner",
          "type": "address"
        }
      ],
      "name": "OwnershipTransferred",
      "type": "event"
    },
    {
      "anonymous": false,
      "inputs": [
        {
          "indexed": false,
          "internalType": "uint256",
          "name": "updatedRate",
          "type": "uint256"
        }
      ],
      "name": "RateUpdated",
      "type": "event"
    },
    {
      "inputs": [],
      "name": "index",
      "outputs": [
        {
          "internalType": "uint256",
          "name": "",
          "type": "uint256"
        }
      ],
      "stateMutability": "view",
      "type": "function"
    },
    {
      "inputs": [],
      "name": "indexUpdateTime",
      "outputs": [
        {
          "internalType": "uint256",
          "name": "",
          "type": "uint256"
        }
      ],
      "stateMutability": "view",
      "type": "function"
    },
    {
      "inputs": [],
      "name": "owner",
      "outputs": [
        {
          "internalType": "address",
          "name": "",
          "type": "address"
        }
      ],
      "stateMutability": "view",
      "type": "function"
    },
    {
      "inputs": [],
      "name": "rate",
      "outputs": [
        {
          "internalType": "uint256",
          "name": "",
          "type": "uint256"
        }
      ],
      "stateMutability": "view",
      "type": "function"
    },
    {
      "inputs": [],
      "name": "renounceOwnership",
      "outputs": [],
      "stateMutability": "nonpayable",
      "type": "function"
    },
    {
      "inputs": [],
      "name": "start",
      "outputs": [
        {
          "internalType": "uint256",
          "name": "",
          "type": "uint256"
        }
      ],
      "stateMutability": "view",
      "type": "function"
    },
    {
      "inputs": [
        {
          "internalType": "address",
          "name": "newOwner",
          "type": "address"
        }
      ],
      "name": "transferOwnership",
      "outputs": [],
      "stateMutability": "nonpayable",
      "type": "function"
    },
    {
      "inputs": [
        {
          "internalType": "uint256",
          "name": "_rate",
          "type": "uint256"
        }
      ],
      "name": "setRate",
      "outputs": [],
      "stateMutability": "nonpayable",
      "type": "function"
    },
    {
      "inputs": [
        {
          "internalType": "address",
          "name": "user",
          "type": "address"
        }
      ],
      "name": "updateUser",
      "outputs": [],
      "stateMutability": "nonpayable",
      "type": "function"
    },
    {
      "inputs": [],
      "name": "getIndex",
      "outputs": [
        {
          "internalType": "uint256",
          "name": "",
          "type": "uint256"
        }
      ],
      "stateMutability": "view",
      "type": "function"
    },
    {
      "inputs": [
        {
          "internalType": "uint256",
          "name": "value",
          "type": "uint256"
        },
        {
          "internalType": "address",
          "name": "user",
          "type": "address"
        }
      ],
      "name": "getIndexedValue",
      "outputs": [
        {
          "internalType": "uint256",
          "name": "",
          "type": "uint256"
        }
      ],
      "stateMutability": "view",
      "type": "function"
    }
  ],
  "bytecode": "0x608060405242600155670de0b6b3a764000060025560015460035534801561002657600080fd5b5061004361003861004860201b60201c565b61005060201b60201c565b610114565b600033905090565b60008060009054906101000a900473ffffffffffffffffffffffffffffffffffffffff169050816000806101000a81548173ffffffffffffffffffffffffffffffffffffffff021916908373ffffffffffffffffffffffffffffffffffffffff1602179055508173ffffffffffffffffffffffffffffffffffffffff168173ffffffffffffffffffffffffffffffffffffffff167f8be0079c531659141344cd1fd0a4f28419497f9722a3daafe3b4186f6b6457e060405160405180910390a35050565b610e59806101236000396000f3fe608060405234801561001057600080fd5b50600436106100a95760003560e01c806381045ead1161007157806381045ead1461012e5780638da5cb5b1461014c578063966da8891461016a578063be9a65551461019a578063ed03b336146101b8578063f2fde38b146101d4576100a9565b80632986c0e5146100ae5780632c4e722e146100cc57806334fcf437146100ea578063715018a614610106578063798d1df714610110575b600080fd5b6100b66101f0565b6040516100c39190610b6c565b60405180910390f35b6100d46101f6565b6040516100e19190610b6c565b60405180910390f35b61010460048036038101906100ff9190610a40565b6101fc565b005b61010e6102c3565b005b61011861034b565b6040516101259190610b6c565b60405180910390f35b610136610351565b6040516101439190610b6c565b60405180910390f35b6101546103ac565b6040516101619190610b11565b60405180910390f35b610184600480360381019061017f9190610a6d565b6103d5565b6040516101919190610b6c565b60405180910390f35b6101a26104a1565b6040516101af9190610b6c565b60405180910390f35b6101d260048036038101906101cd9190610a13565b6104a7565b005b6101ee60048036038101906101e99190610a13565b610589565b005b60025481565b60065481565b610204610681565b73ffffffffffffffffffffffffffffffffffffffff166102226103ac565b73ffffffffffffffffffffffffffffffffffffffff1614610278576040517f08c379a000000000000000000000000000000000000000000000000000000000815260040161026f90610b4c565b60405180910390fd5b610280610689565b806006819055507fe65c987b2e4668e09ba867026921588005b2b2063607a1e7e7d91683c8f91b7b6006546040516102b89190610b6c565b60405180910390a150565b6102cb610681565b73ffffffffffffffffffffffffffffffffffffffff166102e96103ac565b73ffffffffffffffffffffffffffffffffffffffff161461033f576040517f08c379a000000000000000000000000000000000000000000000000000000000815260040161033690610b4c565b60405180910390fd5b61034960006106bc565b565b60035481565b600080600354426103629190610c79565b905060008111156103a25761039a61039561037c83610780565b6103876002546107c7565b6107e090919063ffffffff16565b610830565b9150506103a9565b6002549150505b90565b60008060009054906101000a900473ffffffffffffffffffffffffffffffffffffffff16905090565b6000806000600560008573ffffffffffffffffffffffffffffffffffffffff1673ffffffffffffffffffffffffffffffffffffffff1681526020019081526020016000205414610440576004600061042c85610869565b81526020019081526020016000205461044a565b670de0b6b3a76400005b905061049861049361045b836107c7565b61048561046e610469610351565b6107c7565b610477896107c7565b6107e090919063ffffffff16565b61090190919063ffffffff16565b610830565b91505092915050565b60015481565b6104af610681565b73ffffffffffffffffffffffffffffffffffffffff166104cd6103ac565b73ffffffffffffffffffffffffffffffffffffffff1614610523576040517f08c379a000000000000000000000000000000000000000000000000000000000815260040161051a90610b4c565b60405180910390fd5b42600560008373ffffffffffffffffffffffffffffffffffffffff1673ffffffffffffffffffffffffffffffffffffffff1681526020019081526020016000208190555061056f610351565b600460004281526020019081526020016000208190555050565b610591610681565b73ffffffffffffffffffffffffffffffffffffffff166105af6103ac565b73ffffffffffffffffffffffffffffffffffffffff1614610605576040517f08c379a00000000000000000000000000000000000000000000000000000000081526004016105fc90610b4c565b60405180910390fd5b600073ffffffffffffffffffffffffffffffffffffffff168173ffffffffffffffffffffffffffffffffffffffff161415610675576040517f08c379a000000000000000000000000000000000000000000000000000000000815260040161066c90610b2c565b60405180910390fd5b61067e816106bc565b50565b600033905090565b600254600460006003548152602001908152602001600020819055506106ad610351565b60028190555042600381905550565b60008060009054906101000a900473ffffffffffffffffffffffffffffffffffffffff169050816000806101000a81548173ffffffffffffffffffffffffffffffffffffffff021916908373ffffffffffffffffffffffffffffffffffffffff1602179055508173ffffffffffffffffffffffffffffffffffffffff168173ffffffffffffffffffffffffffffffffffffffff167f8be0079c531659141344cd1fd0a4f28419497f9722a3daafe3b4186f6b6457e060405160405180910390a35050565b60006107c08261078e61094a565b6301e1338061079e6006546107c7565b6107a89190610bee565b6107b29190610b98565b61095e90919063ffffffff16565b9050919050565b6000633b9aca00826107d99190610c1f565b9050919050565b60006b033b2e3c9fd0803ce800000082846107fb9190610c1f565b60026b033b2e3c9fd0803ce80000006108149190610bee565b61081e9190610b98565b6108289190610bee565b905092915050565b6000806002633b9aca006108449190610bee565b9050633b9aca0083826108579190610b98565b6108619190610bee565b915050919050565b600080600560008473ffffffffffffffffffffffffffffffffffffffff1673ffffffffffffffffffffffffffffffffffffffff16815260200190815260200160002054146108f657600560008373ffffffffffffffffffffffffffffffffffffffff1673ffffffffffffffffffffffffffffffffffffffff168152602001908152602001600020546108fa565b6001545b9050919050565b6000806002836109119190610bee565b9050826b033b2e3c9fd0803ce80000008561092c9190610c1f565b826109379190610b98565b6109419190610bee565b91505092915050565b60006b033b2e3c9fd0803ce8000000905090565b60008060028361096e9190610ce9565b1415610986576b033b2e3c9fd0803ce8000000610988565b825b90506002826109979190610bee565b91505b600082146109e3576109ac83846107e0565b925060006002836109bd9190610ce9565b146109cf576109cc81846107e0565b90505b6002826109dc9190610bee565b915061099a565b92915050565b6000813590506109f881610df5565b92915050565b600081359050610a0d81610e0c565b92915050565b600060208284031215610a2957610a28610d78565b5b6000610a37848285016109e9565b91505092915050565b600060208284031215610a5657610a55610d78565b5b6000610a64848285016109fe565b91505092915050565b60008060408385031215610a8457610a83610d78565b5b6000610a92858286016109fe565b9250506020610aa3858286016109e9565b9150509250929050565b610ab681610cad565b82525050565b6000610ac9602683610b87565b9150610ad482610d7d565b604082019050919050565b6000610aec602083610b87565b9150610af782610dcc565b602082019050919050565b610b0b81610cdf565b82525050565b6000602082019050610b266000830184610aad565b92915050565b60006020820190508181036000830152610b4581610abc565b9050919050565b60006020820190508181036000830152610b6581610adf565b9050919050565b6000602082019050610b816000830184610b02565b92915050565b600082825260208201905092915050565b6000610ba382610cdf565b9150610bae83610cdf565b9250827fffffffffffffffffffffffffffffffffffffffffffffffffffffffffffffffff03821115610be357610be2610d1a565b5b828201905092915050565b6000610bf982610cdf565b9150610c0483610cdf565b925082610c1457610c13610d49565b5b828204905092915050565b6000610c2a82610cdf565b9150610c3583610cdf565b9250817fffffffffffffffffffffffffffffffffffffffffffffffffffffffffffffffff0483118215151615610c6e57610c6d610d1a565b5b828202905092915050565b6000610c8482610cdf565b9150610c8f83610cdf565b925082821015610ca257610ca1610d1a565b5b828203905092915050565b6000610cb882610cbf565b9050919050565b600073ffffffffffffffffffffffffffffffffffffffff82169050919050565b6000819050919050565b6000610cf482610cdf565b9150610cff83610cdf565b925082610d0f57610d0e610d49565b5b828206905092915050565b7f4e487b7100000000000000000000000000000000000000000000000000000000600052601160045260246000fd5b7f4e487b7100000000000000000000000000000000000000000000000000000000600052601260045260246000fd5b600080fd5b7f4f776e61626c653a206e6577206f776e657220697320746865207a65726f206160008201527f6464726573730000000000000000000000000000000000000000000000000000602082015250565b7f4f776e61626c653a2063616c6c6572206973206e6f7420746865206f776e6572600082015250565b610dfe81610cad565b8114610e0957600080fd5b50565b610e1581610cdf565b8114610e2057600080fd5b5056fea26469706673582212205b1b31ad29fc059b359f66b12e6898a01ebd3e80843392d12a973cff88613fde64736f6c63430008060033",
  "immutableReferences": {},
  "source": "// SPDX-License-Identifier: UNLICENSED\npragma solidity ^0.8.2;\n\nimport \"./WadRayMath.sol\";\nimport \"@openzeppelin/contracts/access/Ownable.sol\";\nimport \"hardhat/console.sol\";\n\n/**\n  * CompoundingIndex\n  * The contract contains logic for time-based index recalculation with minimal memory footprint.\n  * It could be used as a base building block for any index-based entities like deposits and loans.\n  * @dev updatedRate the value of updated rate\n**/\ncontract CompoundingIndex is Ownable {\n    using WadRayMath for uint256;\n\n    uint256 private constant SECONDS_IN_YEAR = 31536000;\n    uint256 private constant BASE_RATE = 1 ether;\n\n    uint256 public start = block.timestamp;\n\n    uint256 public index = BASE_RATE;\n    uint256 public indexUpdateTime = start;\n\n    mapping(uint256 => uint256) prevIndex;\n    mapping(address => uint256) userUpdateTime;\n\n    uint256 public rate;\n\n\n    /* ========== SETTERS ========== */\n\n\n    /**\n     * Sets the new rate\n     * Before the new rate is set, the index is updated accumulating interests\n     * @dev updatedRate the value of updated rate\n    **/\n    function setRate(uint256 _rate) public onlyOwner {\n        updateIndex();\n        rate = _rate;\n        emit RateUpdated(rate);\n    }\n\n\n    /* ========== MUTATIVE FUNCTIONS ========== */\n\n\n    /**\n     * Updates user index\n     * It persists the update time and the update index time->index mapping\n     * @dev user address of the index owner\n    **/\n    function updateUser(address user) public onlyOwner {\n        userUpdateTime[user] = block.timestamp;\n        prevIndex[block.timestamp] = getIndex();\n    }\n\n\n    /* ========== VIEW FUNCTIONS ========== */\n\n\n    /**\n     * Gets current value of the compounding index\n     * It recalculates the value on-demand without updating the storage\n    **/\n    function getIndex() public view returns(uint256) {\n      uint256 period = block.timestamp - indexUpdateTime;\n      if (period > 0) {\n        return index.wadToRay().rayMul(getCompoundedFactor(period)).rayToWad();\n      } else {\n        return index;\n      }\n    }\n\n\n   /**\n     * Gets the user value recalculated to the current index\n     * It recalculates the value on-demand without updating the storage\n    **/\n    function getIndexedValue(uint256 value, address user) public view returns(uint256) {\n        uint256 prevUserIndex = userUpdateTime[user] == 0 ? BASE_RATE : prevIndex[getLastUserUpdateTime(user)];\n\n        return value.wadToRay()\n        .rayMul(getIndex().wadToRay())\n        .rayDiv(prevUserIndex.wadToRay())\n        .rayToWad();\n    }\n\n\n    /* ========== INTERNAL FUNCTIONS ========== */\n\n\n    function updateIndex() internal {\n      prevIndex[indexUpdateTime] = index;\n\n      index = getIndex();\n      indexUpdateTime = block.timestamp;\n    }\n\n    function getLastUserUpdateTime(address user) internal view returns(uint256) {\n      return userUpdateTime[user] == 0 ? start : userUpdateTime[user];\n    }\n\n\n    function getCompoundedFactor(uint256 period) internal view returns(uint256) {\n      return ((rate.wadToRay() / SECONDS_IN_YEAR) + WadRayMath.ray()).rayPow(period);\n    }\n\n\n    /* ========== EVENTS ========== */\n\n\n    /**\n     * @dev updatedRate the value of updated rate\n    **/\n    event RateUpdated(uint256 updatedRate);\n\n}\n",
  "sourcePath": "/Users/apple/Redstone/smart-broker/contracts/CompoundingIndex.sol",
  "compiler": {
    "name": "solc",
    "version": "0.8.6+commit.11564f7e.Emscripten.clang"
  },
  "schemaVersion": "3.4.2",
  "updatedAt": "2021-08-05T13:09:52.900Z",
  "devdoc": {
    "details": "updatedRate the value of updated rate*",
    "events": {
      "RateUpdated(uint256)": {
        "details": "updatedRate the value of updated rate*"
      }
    },
    "kind": "dev",
    "methods": {
      "owner()": {
        "details": "Returns the address of the current owner."
      },
      "renounceOwnership()": {
        "details": "Leaves the contract without owner. It will not be possible to call `onlyOwner` functions anymore. Can only be called by the current owner. NOTE: Renouncing ownership will leave the contract without an owner, thereby removing any functionality that is only available to the owner."
      },
      "setRate(uint256)": {
        "details": "updatedRate the value of updated rate*"
      },
      "transferOwnership(address)": {
        "details": "Transfers ownership of the contract to a new account (`newOwner`). Can only be called by the current owner."
      },
      "updateUser(address)": {
        "details": "user address of the index owner*"
      }
    },
    "version": 1
  },
  "userdoc": {
    "kind": "user",
    "methods": {
      "getIndex()": {
        "notice": "Gets current value of the compounding index It recalculates the value on-demand without updating the storage*"
      },
      "getIndexedValue(uint256,address)": {
        "notice": "Gets the user value recalculated to the current index It recalculates the value on-demand without updating the storage*"
      },
      "setRate(uint256)": {
        "notice": "Sets the new rate Before the new rate is set, the index is updated accumulating interests"
      },
      "updateUser(address)": {
        "notice": "Updates user index It persists the update time and the update index time->index mapping"
      }
    },
    "notice": "CompoundingIndex The contract contains logic for time-based index recalculation with minimal memory footprint. It could be used as a base building block for any index-based entities like deposits and loans.",
    "version": 1
  }
}