{
  "contractName": "CompoundingIndexDebug",
  "abi": [
    {
      "anonymous": false,
      "inputs": [
        {
          "indexed": true,
          "internalType": "address",
          "name": "previousOwner",
          "type": "address"
        },
        {
          "indexed": true,
          "internalType": "address",
          "name": "newOwner",
          "type": "address"
        }
      ],
      "name": "OwnershipTransferred",
      "type": "event"
    },
    {
      "inputs": [],
      "name": "index",
      "outputs": [
        {
          "internalType": "uint256",
          "name": "",
          "type": "uint256"
        }
      ],
      "stateMutability": "view",
      "type": "function"
    },
    {
      "inputs": [],
      "name": "indexUpdateTime",
      "outputs": [
        {
          "internalType": "uint256",
          "name": "",
          "type": "uint256"
        }
      ],
      "stateMutability": "view",
      "type": "function"
    },
    {
      "inputs": [],
      "name": "owner",
      "outputs": [
        {
          "internalType": "address",
          "name": "",
          "type": "address"
        }
      ],
      "stateMutability": "view",
      "type": "function"
    },
    {
      "inputs": [],
      "name": "rate",
      "outputs": [
        {
          "internalType": "uint256",
          "name": "",
          "type": "uint256"
        }
      ],
      "stateMutability": "view",
      "type": "function"
    },
    {
      "inputs": [],
      "name": "renounceOwnership",
      "outputs": [],
      "stateMutability": "nonpayable",
      "type": "function"
    },
    {
      "inputs": [],
      "name": "start",
      "outputs": [
        {
          "internalType": "uint256",
          "name": "",
          "type": "uint256"
        }
      ],
      "stateMutability": "view",
      "type": "function"
    },
    {
      "inputs": [
        {
          "internalType": "address",
          "name": "newOwner",
          "type": "address"
        }
      ],
      "name": "transferOwnership",
      "outputs": [],
      "stateMutability": "nonpayable",
      "type": "function"
    },
    {
      "inputs": [
        {
          "internalType": "uint256",
          "name": "_rate",
          "type": "uint256"
        }
      ],
      "name": "setRate",
      "outputs": [],
      "stateMutability": "nonpayable",
      "type": "function"
    },
    {
      "inputs": [
        {
          "internalType": "address",
          "name": "user",
          "type": "address"
        }
      ],
      "name": "updateUser",
      "outputs": [],
      "stateMutability": "nonpayable",
      "type": "function"
    },
    {
      "inputs": [
        {
          "internalType": "uint256",
          "name": "value",
          "type": "uint256"
        },
        {
          "internalType": "address",
          "name": "user",
          "type": "address"
        }
      ],
      "name": "getIndexedValue",
      "outputs": [
        {
          "internalType": "uint256",
          "name": "",
          "type": "uint256"
        }
      ],
      "stateMutability": "view",
      "type": "function"
    },
    {
      "inputs": [],
      "name": "getIndex",
      "outputs": [
        {
          "internalType": "uint256",
          "name": "",
          "type": "uint256"
        }
      ],
      "stateMutability": "view",
      "type": "function"
    }
  ],
  "bytecode": "0x608060405242600155670de0b6b3a764000060025560015460035534801561002657600080fd5b5061004361003861004860201b60201c565b61005060201b60201c565b610114565b600033905090565b60008060009054906101000a900473ffffffffffffffffffffffffffffffffffffffff169050816000806101000a81548173ffffffffffffffffffffffffffffffffffffffff021916908373ffffffffffffffffffffffffffffffffffffffff1602179055508173ffffffffffffffffffffffffffffffffffffffff168173ffffffffffffffffffffffffffffffffffffffff167f8be0079c531659141344cd1fd0a4f28419497f9722a3daafe3b4186f6b6457e060405160405180910390a35050565b610dc5806101236000396000f3fe608060405234801561001057600080fd5b50600436106100a95760003560e01c806381045ead1161007157806381045ead1461012e5780638da5cb5b1461014c578063966da8891461016a578063be9a65551461019a578063ed03b336146101b8578063f2fde38b146101d4576100a9565b80632986c0e5146100ae5780632c4e722e146100cc57806334fcf437146100ea578063715018a614610106578063798d1df714610110575b600080fd5b6100b66101f0565b6040516100c39190610ad8565b60405180910390f35b6100d46101f6565b6040516100e19190610ad8565b60405180910390f35b61010460048036038101906100ff91906109ac565b6101fc565b005b61010e61028a565b005b610118610312565b6040516101259190610ad8565b60405180910390f35b610136610318565b6040516101439190610ad8565b60405180910390f35b610154610373565b6040516101619190610a7d565b60405180910390f35b610184600480360381019061017f91906109d9565b61039c565b6040516101919190610ad8565b60405180910390f35b6101a261040d565b6040516101af9190610ad8565b60405180910390f35b6101d260048036038101906101cd919061097f565b610413565b005b6101ee60048036038101906101e9919061097f565b6104f5565b005b60025481565b60065481565b6102046105ed565b73ffffffffffffffffffffffffffffffffffffffff16610222610373565b73ffffffffffffffffffffffffffffffffffffffff1614610278576040517f08c379a000000000000000000000000000000000000000000000000000000000815260040161026f90610ab8565b60405180910390fd5b6102806105f5565b8060068190555050565b6102926105ed565b73ffffffffffffffffffffffffffffffffffffffff166102b0610373565b73ffffffffffffffffffffffffffffffffffffffff1614610306576040517f08c379a00000000000000000000000000000000000000000000000000000000081526004016102fd90610ab8565b60405180910390fd5b6103106000610628565b565b60035481565b600080600354426103299190610be5565b905060008111156103695761036161035c610343836106ec565b61034e600254610733565b61074c90919063ffffffff16565b61079c565b915050610370565b6002549150505b90565b60008060009054906101000a900473ffffffffffffffffffffffffffffffffffffffff16905090565b60006104056104006103c8600460006103b4876107d5565b815260200190815260200160002054610733565b6103f26103db6103d6610318565b610733565b6103e488610733565b61074c90919063ffffffff16565b61086d90919063ffffffff16565b61079c565b905092915050565b60015481565b61041b6105ed565b73ffffffffffffffffffffffffffffffffffffffff16610439610373565b73ffffffffffffffffffffffffffffffffffffffff161461048f576040517f08c379a000000000000000000000000000000000000000000000000000000000815260040161048690610ab8565b60405180910390fd5b42600560008373ffffffffffffffffffffffffffffffffffffffff1673ffffffffffffffffffffffffffffffffffffffff168152602001908152602001600020819055506104db610318565b600460004281526020019081526020016000208190555050565b6104fd6105ed565b73ffffffffffffffffffffffffffffffffffffffff1661051b610373565b73ffffffffffffffffffffffffffffffffffffffff1614610571576040517f08c379a000000000000000000000000000000000000000000000000000000000815260040161056890610ab8565b60405180910390fd5b600073ffffffffffffffffffffffffffffffffffffffff168173ffffffffffffffffffffffffffffffffffffffff1614156105e1576040517f08c379a00000000000000000000000000000000000000000000000000000000081526004016105d890610a98565b60405180910390fd5b6105ea81610628565b50565b600033905090565b60025460046000600354815260200190815260200160002081905550610619610318565b60028190555042600381905550565b60008060009054906101000a900473ffffffffffffffffffffffffffffffffffffffff169050816000806101000a81548173ffffffffffffffffffffffffffffffffffffffff021916908373ffffffffffffffffffffffffffffffffffffffff1602179055508173ffffffffffffffffffffffffffffffffffffffff168173ffffffffffffffffffffffffffffffffffffffff167f8be0079c531659141344cd1fd0a4f28419497f9722a3daafe3b4186f6b6457e060405160405180910390a35050565b600061072c826106fa6108b6565b6301e1338061070a600654610733565b6107149190610b5a565b61071e9190610b04565b6108ca90919063ffffffff16565b9050919050565b6000633b9aca00826107459190610b8b565b9050919050565b60006b033b2e3c9fd0803ce800000082846107679190610b8b565b60026b033b2e3c9fd0803ce80000006107809190610b5a565b61078a9190610b04565b6107949190610b5a565b905092915050565b6000806002633b9aca006107b09190610b5a565b9050633b9aca0083826107c39190610b04565b6107cd9190610b5a565b915050919050565b600080600560008473ffffffffffffffffffffffffffffffffffffffff1673ffffffffffffffffffffffffffffffffffffffff168152602001908152602001600020541461086257600560008373ffffffffffffffffffffffffffffffffffffffff1673ffffffffffffffffffffffffffffffffffffffff16815260200190815260200160002054610866565b6001545b9050919050565b60008060028361087d9190610b5a565b9050826b033b2e3c9fd0803ce8000000856108989190610b8b565b826108a39190610b04565b6108ad9190610b5a565b91505092915050565b60006b033b2e3c9fd0803ce8000000905090565b6000806002836108da9190610c55565b14156108f2576b033b2e3c9fd0803ce80000006108f4565b825b90506002826109039190610b5a565b91505b6000821461094f57610918838461074c565b925060006002836109299190610c55565b1461093b57610938818461074c565b90505b6002826109489190610b5a565b9150610906565b92915050565b60008135905061096481610d61565b92915050565b60008135905061097981610d78565b92915050565b60006020828403121561099557610994610ce4565b5b60006109a384828501610955565b91505092915050565b6000602082840312156109c2576109c1610ce4565b5b60006109d08482850161096a565b91505092915050565b600080604083850312156109f0576109ef610ce4565b5b60006109fe8582860161096a565b9250506020610a0f85828601610955565b9150509250929050565b610a2281610c19565b82525050565b6000610a35602683610af3565b9150610a4082610ce9565b604082019050919050565b6000610a58602083610af3565b9150610a6382610d38565b602082019050919050565b610a7781610c4b565b82525050565b6000602082019050610a926000830184610a19565b92915050565b60006020820190508181036000830152610ab181610a28565b9050919050565b60006020820190508181036000830152610ad181610a4b565b9050919050565b6000602082019050610aed6000830184610a6e565b92915050565b600082825260208201905092915050565b6000610b0f82610c4b565b9150610b1a83610c4b565b9250827fffffffffffffffffffffffffffffffffffffffffffffffffffffffffffffffff03821115610b4f57610b4e610c86565b5b828201905092915050565b6000610b6582610c4b565b9150610b7083610c4b565b925082610b8057610b7f610cb5565b5b828204905092915050565b6000610b9682610c4b565b9150610ba183610c4b565b9250817fffffffffffffffffffffffffffffffffffffffffffffffffffffffffffffffff0483118215151615610bda57610bd9610c86565b5b828202905092915050565b6000610bf082610c4b565b9150610bfb83610c4b565b925082821015610c0e57610c0d610c86565b5b828203905092915050565b6000610c2482610c2b565b9050919050565b600073ffffffffffffffffffffffffffffffffffffffff82169050919050565b6000819050919050565b6000610c6082610c4b565b9150610c6b83610c4b565b925082610c7b57610c7a610cb5565b5b828206905092915050565b7f4e487b7100000000000000000000000000000000000000000000000000000000600052601160045260246000fd5b7f4e487b7100000000000000000000000000000000000000000000000000000000600052601260045260246000fd5b600080fd5b7f4f776e61626c653a206e6577206f776e657220697320746865207a65726f206160008201527f6464726573730000000000000000000000000000000000000000000000000000602082015250565b7f4f776e61626c653a2063616c6c6572206973206e6f7420746865206f776e6572600082015250565b610d6a81610c19565b8114610d7557600080fd5b50565b610d8181610c4b565b8114610d8c57600080fd5b5056fea26469706673582212200e4b0ce0f6edd646bfdc7ab6f8f6bb5bf63b958a5b59604f82595bff54fe771364736f6c63430008060033",
  "immutableReferences": {},
  "source": "// SPDX-License-Identifier: UNLICENSED\npragma solidity ^0.8.2;\n\nimport \"../WadRayMath.sol\";\n\nimport \"hardhat/console.sol\";\nimport \"@openzeppelin/contracts/access/Ownable.sol\";\n\ncontract CompoundingIndexDebug is Ownable {\n  using WadRayMath for uint256;\n\n  uint256 private constant SECONDS_IN_YEAR = 31536000;\n  uint256 private constant BASE_RATE = 1 ether;\n\n  uint256 public start = block.timestamp;\n\n  uint256 public index = BASE_RATE;\n  uint256 public indexUpdateTime = start;\n\n  mapping(uint256 => uint256) prevIndex;\n  mapping(address => uint256) userUpdateTime;\n\n  uint256 public rate;\n\n\n  function setRate(uint256 _rate) public onlyOwner {\n    updateIndex();\n    rate = _rate;\n  }\n\n\n  function updateUser(address user) public onlyOwner {\n    userUpdateTime[user] = block.timestamp;\n    prevIndex[block.timestamp] = getIndex();\n\n    //console.log(\"Updated at: \", now);\n    //console.log(\"Updated index to: \", prevIndex[now]);\n  }\n\n\n  function getIndexedValue(uint256 value, address user) public view returns(uint256) {\n    //uint256 lastIndex = prevIndex[getLastUserUpdateTime(user)];\n    //console.log(\"Last time: \", getLastUserUpdateTime(user));\n    //console.log(\"Last index: \", lastIndex);\n    //console.log(\"Start time: \", start);\n\n    return value.wadToRay()\n    .rayMul(getIndex().wadToRay())\n    .rayDiv(prevIndex[getLastUserUpdateTime(user)].wadToRay())\n    .rayToWad();\n  }\n\n\n  function updateIndex() internal {\n    prevIndex[indexUpdateTime] = index;\n\n    //console.log(\"Updated at: \", indexUpdateTime);\n    //console.log(\"Updated index to: \", index);\n\n\n    index = getIndex();\n    indexUpdateTime = block.timestamp;\n  }\n\n\n  function getLastUserUpdateTime(address user) internal view returns(uint256) {\n    return userUpdateTime[user] == 0 ? start : userUpdateTime[user];\n  }\n\n\n  function getCompoundedFactor(uint256 period) internal view returns(uint256) {\n    return ((rate.wadToRay() / SECONDS_IN_YEAR) + WadRayMath.ray()).rayPow(period);\n  }\n\n\n  function getIndex() public view returns(uint256) {\n    uint256 period = block.timestamp - indexUpdateTime;\n    if (period > 0) {\n      return index.wadToRay().rayMul(getCompoundedFactor(period)).rayToWad();\n    } else {\n      return index;\n    }\n  }\n\n}\n",
  "sourcePath": "/Users/apple/Redstone/smart-broker/contracts/mock/CompoundingIndexDebug.sol",
  "compiler": {
    "name": "solc",
    "version": "0.8.6+commit.11564f7e.Emscripten.clang"
  },
  "schemaVersion": "3.4.2",
  "updatedAt": "2021-08-05T13:09:52.965Z",
  "devdoc": {
    "kind": "dev",
    "methods": {
      "owner()": {
        "details": "Returns the address of the current owner."
      },
      "renounceOwnership()": {
        "details": "Leaves the contract without owner. It will not be possible to call `onlyOwner` functions anymore. Can only be called by the current owner. NOTE: Renouncing ownership will leave the contract without an owner, thereby removing any functionality that is only available to the owner."
      },
      "transferOwnership(address)": {
        "details": "Transfers ownership of the contract to a new account (`newOwner`). Can only be called by the current owner."
      }
    },
    "version": 1
  },
  "userdoc": {
    "kind": "user",
    "methods": {},
    "version": 1
  }
}