{
  "contractName": "FixedRatesCalculator",
  "abi": [
    {
      "inputs": [
        {
          "internalType": "uint256",
          "name": "_depositRate",
          "type": "uint256"
        },
        {
          "internalType": "uint256",
          "name": "_borrowingRate",
          "type": "uint256"
        }
      ],
      "stateMutability": "nonpayable",
      "type": "constructor"
    },
    {
      "anonymous": false,
      "inputs": [
        {
          "indexed": true,
          "internalType": "address",
          "name": "previousOwner",
          "type": "address"
        },
        {
          "indexed": true,
          "internalType": "address",
          "name": "newOwner",
          "type": "address"
        }
      ],
      "name": "OwnershipTransferred",
      "type": "event"
    },
    {
      "anonymous": false,
      "inputs": [
        {
          "indexed": false,
          "internalType": "uint256",
          "name": "updatedDepositRate",
          "type": "uint256"
        },
        {
          "indexed": false,
          "internalType": "uint256",
          "name": "updatedBorrowingRate",
          "type": "uint256"
        }
      ],
      "name": "RatesUpdated",
      "type": "event"
    },
    {
      "inputs": [],
      "name": "owner",
      "outputs": [
        {
          "internalType": "address",
          "name": "",
          "type": "address"
        }
      ],
      "stateMutability": "view",
      "type": "function"
    },
    {
      "inputs": [],
      "name": "renounceOwnership",
      "outputs": [],
      "stateMutability": "nonpayable",
      "type": "function"
    },
    {
      "inputs": [
        {
          "internalType": "address",
          "name": "newOwner",
          "type": "address"
        }
      ],
      "name": "transferOwnership",
      "outputs": [],
      "stateMutability": "nonpayable",
      "type": "function"
    },
    {
      "inputs": [
        {
          "internalType": "uint256",
          "name": "_depositRate",
          "type": "uint256"
        },
        {
          "internalType": "uint256",
          "name": "_borrowingRate",
          "type": "uint256"
        }
      ],
      "name": "setRates",
      "outputs": [],
      "stateMutability": "nonpayable",
      "type": "function"
    },
    {
      "inputs": [
        {
          "internalType": "uint256",
          "name": "totalLoans",
          "type": "uint256"
        },
        {
          "internalType": "uint256",
          "name": "totalDeposits",
          "type": "uint256"
        }
      ],
      "name": "calculateDepositRate",
      "outputs": [
        {
          "internalType": "uint256",
          "name": "",
          "type": "uint256"
        }
      ],
      "stateMutability": "view",
      "type": "function"
    },
    {
      "inputs": [
        {
          "internalType": "uint256",
          "name": "totalLoans",
          "type": "uint256"
        },
        {
          "internalType": "uint256",
          "name": "totalDeposits",
          "type": "uint256"
        }
      ],
      "name": "calculateBorrowingRate",
      "outputs": [
        {
          "internalType": "uint256",
          "name": "",
          "type": "uint256"
        }
      ],
      "stateMutability": "view",
      "type": "function"
    }
  ],
  "bytecode": "0x60806040523480156200001157600080fd5b5060405162000c9a38038062000c9a8339818101604052810190620000379190620002a3565b620000576200004b6200007160201b60201c565b6200007960201b60201c565b6200006982826200013d60201b60201c565b50506200046c565b600033905090565b60008060009054906101000a900473ffffffffffffffffffffffffffffffffffffffff169050816000806101000a81548173ffffffffffffffffffffffffffffffffffffffff021916908373ffffffffffffffffffffffffffffffffffffffff1602179055508173ffffffffffffffffffffffffffffffffffffffff168173ffffffffffffffffffffffffffffffffffffffff167f8be0079c531659141344cd1fd0a4f28419497f9722a3daafe3b4186f6b6457e060405160405180910390a35050565b6200014d6200007160201b60201c565b73ffffffffffffffffffffffffffffffffffffffff16620001736200026360201b60201c565b73ffffffffffffffffffffffffffffffffffffffff1614620001cc576040517f08c379a0000000000000000000000000000000000000000000000000000000008152600401620001c39062000349565b60405180910390fd5b8082111562000212576040517f08c379a000000000000000000000000000000000000000000000000000000000815260040162000209906200036b565b60405180910390fd5b81600181905550806002819055507f0cf6ce3db485f79e960e63b1550af071fe0c99c09834149273e0fa8b32018ff8600154600254604051620002579291906200038d565b60405180910390a15050565b60008060009054906101000a900473ffffffffffffffffffffffffffffffffffffffff16905090565b6000815190506200029d8162000452565b92915050565b60008060408385031215620002bd57620002bc620003d5565b5b6000620002cd858286016200028c565b9250506020620002e0858286016200028c565b9150509250929050565b6000620002f9602083620003ba565b91506200030682620003da565b602082019050919050565b600062000320603483620003ba565b91506200032d8262000403565b604082019050919050565b6200034381620003cb565b82525050565b600060208201905081810360008301526200036481620002ea565b9050919050565b60006020820190508181036000830152620003868162000311565b9050919050565b6000604082019050620003a4600083018562000338565b620003b3602083018462000338565b9392505050565b600082825260208201905092915050565b6000819050919050565b600080fd5b7f4f776e61626c653a2063616c6c6572206973206e6f7420746865206f776e6572600082015250565b7f426f72726f77696e6720726174652063616e6e6f74206265206c6f776572207460008201527f68616e20746865206465706f7369742072617465000000000000000000000000602082015250565b6200045d81620003cb565b81146200046957600080fd5b50565b61081e806200047c6000396000f3fe608060405234801561001057600080fd5b50600436106100625760003560e01c8063715018a6146100675780637cd08331146100715780638da5cb5b146100a1578063ac6af280146100bf578063df841eec146100db578063f2fde38b1461010b575b600080fd5b61006f610127565b005b61008b6004803603810190610086919061051b565b6101af565b604051610098919061065d565b60405180910390f35b6100a96101bc565b6040516100b691906105e2565b60405180910390f35b6100d960048036038101906100d4919061051b565b6101e5565b005b6100f560048036038101906100f0919061051b565b6102f3565b604051610102919061065d565b60405180910390f35b610125600480360381019061012091906104ee565b610300565b005b61012f6103f8565b73ffffffffffffffffffffffffffffffffffffffff1661014d6101bc565b73ffffffffffffffffffffffffffffffffffffffff16146101a3576040517f08c379a000000000000000000000000000000000000000000000000000000000815260040161019a9061061d565b60405180910390fd5b6101ad6000610400565b565b6000600154905092915050565b60008060009054906101000a900473ffffffffffffffffffffffffffffffffffffffff16905090565b6101ed6103f8565b73ffffffffffffffffffffffffffffffffffffffff1661020b6101bc565b73ffffffffffffffffffffffffffffffffffffffff1614610261576040517f08c379a00000000000000000000000000000000000000000000000000000000081526004016102589061061d565b60405180910390fd5b808211156102a4576040517f08c379a000000000000000000000000000000000000000000000000000000000815260040161029b9061063d565b60405180910390fd5b81600181905550806002819055507f0cf6ce3db485f79e960e63b1550af071fe0c99c09834149273e0fa8b32018ff86001546002546040516102e7929190610678565b60405180910390a15050565b6000600254905092915050565b6103086103f8565b73ffffffffffffffffffffffffffffffffffffffff166103266101bc565b73ffffffffffffffffffffffffffffffffffffffff161461037c576040517f08c379a00000000000000000000000000000000000000000000000000000000081526004016103739061061d565b60405180910390fd5b600073ffffffffffffffffffffffffffffffffffffffff168173ffffffffffffffffffffffffffffffffffffffff1614156103ec576040517f08c379a00000000000000000000000000000000000000000000000000000000081526004016103e3906105fd565b60405180910390fd5b6103f581610400565b50565b600033905090565b60008060009054906101000a900473ffffffffffffffffffffffffffffffffffffffff169050816000806101000a81548173ffffffffffffffffffffffffffffffffffffffff021916908373ffffffffffffffffffffffffffffffffffffffff1602179055508173ffffffffffffffffffffffffffffffffffffffff168173ffffffffffffffffffffffffffffffffffffffff167f8be0079c531659141344cd1fd0a4f28419497f9722a3daafe3b4186f6b6457e060405160405180910390a35050565b6000813590506104d3816107ba565b92915050565b6000813590506104e8816107d1565b92915050565b600060208284031215610504576105036106ee565b5b6000610512848285016104c4565b91505092915050565b60008060408385031215610532576105316106ee565b5b6000610540858286016104d9565b9250506020610551858286016104d9565b9150509250929050565b610564816106b2565b82525050565b60006105776026836106a1565b9150610582826106f3565b604082019050919050565b600061059a6020836106a1565b91506105a582610742565b602082019050919050565b60006105bd6034836106a1565b91506105c88261076b565b604082019050919050565b6105dc816106e4565b82525050565b60006020820190506105f7600083018461055b565b92915050565b600060208201905081810360008301526106168161056a565b9050919050565b600060208201905081810360008301526106368161058d565b9050919050565b60006020820190508181036000830152610656816105b0565b9050919050565b600060208201905061067260008301846105d3565b92915050565b600060408201905061068d60008301856105d3565b61069a60208301846105d3565b9392505050565b600082825260208201905092915050565b60006106bd826106c4565b9050919050565b600073ffffffffffffffffffffffffffffffffffffffff82169050919050565b6000819050919050565b600080fd5b7f4f776e61626c653a206e6577206f776e657220697320746865207a65726f206160008201527f6464726573730000000000000000000000000000000000000000000000000000602082015250565b7f4f776e61626c653a2063616c6c6572206973206e6f7420746865206f776e6572600082015250565b7f426f72726f77696e6720726174652063616e6e6f74206265206c6f776572207460008201527f68616e20746865206465706f7369742072617465000000000000000000000000602082015250565b6107c3816106b2565b81146107ce57600080fd5b50565b6107da816106e4565b81146107e557600080fd5b5056fea2646970667358221220dca8ee3ed49ca4f31a9cde5ebe0054fa1bb2ac14dd9c27c694f398b97e225a2464736f6c63430008060033",
  "immutableReferences": {},
  "source": "// SPDX-License-Identifier: UNLICENSED\npragma solidity ^0.8.2;\n\nimport \"@openzeppelin/contracts/access/Ownable.sol\";\nimport \"./IRatesCalculator.sol\";\n\n/**\n * @title FixedRatesCalculator\n * @dev It allows to set fixed deposit and borrowing rates that could be manually updated.\n */\ncontract FixedRatesCalculator is IRatesCalculator, Ownable {\n\n    uint256 depositRate;\n    uint256 borrowingRate;\n\n    constructor(uint256 _depositRate, uint256 _borrowingRate) {\n        setRates(_depositRate, _borrowingRate);\n    }\n\n\n    /* ========== SETTERS ========== */\n\n\n    /**\n     * Sets the new deposit and borrowing rate\n     * Before the new rate is set, the index is updated accumulating interests\n     * @dev _depositRate the value of updated deposit rate\n     * @dev _borrowingRate the value of updated borrowing rate\n    **/\n    function setRates(uint256 _depositRate, uint256 _borrowingRate) public onlyOwner {\n        require(_depositRate <= _borrowingRate, \"Borrowing rate cannot be lower than the deposit rate\");\n\n        depositRate = _depositRate;\n        borrowingRate = _borrowingRate;\n\n        emit RatesUpdated(depositRate, borrowingRate);\n    }\n\n\n    /* ========== VIEW FUNCTIONS ========== */\n\n\n    /**\n      * Returns the current deposit rate\n      * The parameters are kept only because of the interface compatibility as they don't affect the rate\n    **/\n    function calculateDepositRate(uint256 totalLoans, uint256 totalDeposits) external view override returns(uint256) {\n        return depositRate;\n    }\n\n    /**\n      * Returns the current borrowing rate\n      * The parameters are kept only because of the interface compatibility as they don't affect the rate\n    **/\n    function calculateBorrowingRate(uint256 totalLoans, uint256 totalDeposits) external view override returns(uint256) {\n        return borrowingRate;\n    }\n\n\n    /* ========== EVENTS ========== */\n\n\n    /**\n      * An event notifying about the rates update.\n      * @dev updatedDepositRate the value of updated rate\n      * @dev updatedBorrowingRate the value of updated rate\n    **/\n    event RatesUpdated(uint256 updatedDepositRate, uint256 updatedBorrowingRate);\n\n}\n",
  "sourcePath": "/Users/apple/Redstone/smart-broker/contracts/FixedRatesCalculator.sol",
  "compiler": {
    "name": "solc",
    "version": "0.8.6+commit.11564f7e.Emscripten.clang"
  },
  "schemaVersion": "3.4.2",
  "updatedAt": "2021-08-05T13:09:52.905Z",
  "devdoc": {
    "details": "It allows to set fixed deposit and borrowing rates that could be manually updated.",
    "events": {
      "RatesUpdated(uint256,uint256)": {
        "details": "updatedDepositRate the value of updated rateupdatedBorrowingRate the value of updated rate*"
      }
    },
    "kind": "dev",
    "methods": {
      "owner()": {
        "details": "Returns the address of the current owner."
      },
      "renounceOwnership()": {
        "details": "Leaves the contract without owner. It will not be possible to call `onlyOwner` functions anymore. Can only be called by the current owner. NOTE: Renouncing ownership will leave the contract without an owner, thereby removing any functionality that is only available to the owner."
      },
      "setRates(uint256,uint256)": {
        "details": "_depositRate the value of updated deposit rate_borrowingRate the value of updated borrowing rate*"
      },
      "transferOwnership(address)": {
        "details": "Transfers ownership of the contract to a new account (`newOwner`). Can only be called by the current owner."
      }
    },
    "title": "FixedRatesCalculator",
    "version": 1
  },
  "userdoc": {
    "events": {
      "RatesUpdated(uint256,uint256)": {
        "notice": "An event notifying about the rates update."
      }
    },
    "kind": "user",
    "methods": {
      "calculateBorrowingRate(uint256,uint256)": {
        "notice": "Returns the current borrowing rate The parameters are kept only because of the interface compatibility as they don't affect the rate*"
      },
      "calculateDepositRate(uint256,uint256)": {
        "notice": "Returns the current deposit rate The parameters are kept only because of the interface compatibility as they don't affect the rate*"
      },
      "setRates(uint256,uint256)": {
        "notice": "Sets the new deposit and borrowing rate Before the new rate is set, the index is updated accumulating interests"
      }
    },
    "version": 1
  }
}