{
  "contractName": "MockUpgradedPool",
  "abi": [
    {
      "anonymous": false,
      "inputs": [
        {
          "indexed": true,
          "internalType": "address",
          "name": "user",
          "type": "address"
        },
        {
          "indexed": false,
          "internalType": "uint256",
          "name": "value",
          "type": "uint256"
        },
        {
          "indexed": false,
          "internalType": "uint256",
          "name": "timestamp",
          "type": "uint256"
        }
      ],
      "name": "Borrowing",
      "type": "event"
    },
    {
      "anonymous": false,
      "inputs": [
        {
          "indexed": true,
          "internalType": "address",
          "name": "user",
          "type": "address"
        },
        {
          "indexed": false,
          "internalType": "uint256",
          "name": "value",
          "type": "uint256"
        },
        {
          "indexed": false,
          "internalType": "uint256",
          "name": "timestamp",
          "type": "uint256"
        }
      ],
      "name": "Deposit",
      "type": "event"
    },
    {
      "anonymous": false,
      "inputs": [
        {
          "indexed": true,
          "internalType": "address",
          "name": "previousOwner",
          "type": "address"
        },
        {
          "indexed": true,
          "internalType": "address",
          "name": "newOwner",
          "type": "address"
        }
      ],
      "name": "OwnershipTransferred",
      "type": "event"
    },
    {
      "anonymous": false,
      "inputs": [
        {
          "indexed": true,
          "internalType": "address",
          "name": "user",
          "type": "address"
        },
        {
          "indexed": false,
          "internalType": "uint256",
          "name": "value",
          "type": "uint256"
        },
        {
          "indexed": false,
          "internalType": "uint256",
          "name": "timestamp",
          "type": "uint256"
        }
      ],
      "name": "Repayment",
      "type": "event"
    },
    {
      "anonymous": false,
      "inputs": [
        {
          "indexed": true,
          "internalType": "address",
          "name": "user",
          "type": "address"
        },
        {
          "indexed": false,
          "internalType": "uint256",
          "name": "value",
          "type": "uint256"
        },
        {
          "indexed": false,
          "internalType": "uint256",
          "name": "timestamp",
          "type": "uint256"
        }
      ],
      "name": "Withdrawal",
      "type": "event"
    },
    {
      "inputs": [
        {
          "internalType": "uint256",
          "name": "_amount",
          "type": "uint256"
        }
      ],
      "name": "borrow",
      "outputs": [],
      "stateMutability": "payable",
      "type": "function"
    },
    {
      "inputs": [
        {
          "internalType": "address",
          "name": "",
          "type": "address"
        }
      ],
      "name": "borrowed",
      "outputs": [
        {
          "internalType": "uint256",
          "name": "",
          "type": "uint256"
        }
      ],
      "stateMutability": "view",
      "type": "function"
    },
    {
      "inputs": [
        {
          "internalType": "address",
          "name": "",
          "type": "address"
        }
      ],
      "name": "deposits",
      "outputs": [
        {
          "internalType": "uint256",
          "name": "",
          "type": "uint256"
        }
      ],
      "stateMutability": "view",
      "type": "function"
    },
    {
      "inputs": [
        {
          "internalType": "address",
          "name": "_user",
          "type": "address"
        }
      ],
      "name": "getBorrowed",
      "outputs": [
        {
          "internalType": "uint256",
          "name": "",
          "type": "uint256"
        }
      ],
      "stateMutability": "view",
      "type": "function"
    },
    {
      "inputs": [],
      "name": "getBorrowingRate",
      "outputs": [
        {
          "internalType": "uint256",
          "name": "",
          "type": "uint256"
        }
      ],
      "stateMutability": "view",
      "type": "function"
    },
    {
      "inputs": [],
      "name": "getDepositRate",
      "outputs": [
        {
          "internalType": "uint256",
          "name": "",
          "type": "uint256"
        }
      ],
      "stateMutability": "view",
      "type": "function"
    },
    {
      "inputs": [
        {
          "internalType": "address",
          "name": "user",
          "type": "address"
        }
      ],
      "name": "getDeposits",
      "outputs": [
        {
          "internalType": "uint256",
          "name": "",
          "type": "uint256"
        }
      ],
      "stateMutability": "view",
      "type": "function"
    },
    {
      "inputs": [
        {
          "internalType": "contract IRatesCalculator",
          "name": "_ratesCalculator",
          "type": "address"
        },
        {
          "internalType": "contract IBorrowersRegistry",
          "name": "_borrowersRegistry",
          "type": "address"
        },
        {
          "internalType": "contract CompoundingIndex",
          "name": "_depositIndex",
          "type": "address"
        },
        {
          "internalType": "contract CompoundingIndex",
          "name": "_borrowIndex",
          "type": "address"
        }
      ],
      "name": "initialize",
      "outputs": [],
      "stateMutability": "nonpayable",
      "type": "function"
    },
    {
      "inputs": [],
      "name": "owner",
      "outputs": [
        {
          "internalType": "address",
          "name": "",
          "type": "address"
        }
      ],
      "stateMutability": "view",
      "type": "function"
    },
    {
      "inputs": [],
      "name": "renounceOwnership",
      "outputs": [],
      "stateMutability": "nonpayable",
      "type": "function"
    },
    {
      "inputs": [],
      "name": "repay",
      "outputs": [],
      "stateMutability": "payable",
      "type": "function"
    },
    {
      "inputs": [
        {
          "internalType": "contract IBorrowersRegistry",
          "name": "_borrowersRegistry",
          "type": "address"
        }
      ],
      "name": "setBorrowersRegistry",
      "outputs": [],
      "stateMutability": "nonpayable",
      "type": "function"
    },
    {
      "inputs": [
        {
          "internalType": "contract IRatesCalculator",
          "name": "_ratesCalculator",
          "type": "address"
        }
      ],
      "name": "setRatesCalculator",
      "outputs": [],
      "stateMutability": "nonpayable",
      "type": "function"
    },
    {
      "inputs": [],
      "name": "totalBorrowed",
      "outputs": [
        {
          "internalType": "uint256",
          "name": "",
          "type": "uint256"
        }
      ],
      "stateMutability": "view",
      "type": "function"
    },
    {
      "inputs": [],
      "name": "totalDeposited",
      "outputs": [
        {
          "internalType": "uint256",
          "name": "",
          "type": "uint256"
        }
      ],
      "stateMutability": "view",
      "type": "function"
    },
    {
      "inputs": [
        {
          "internalType": "address",
          "name": "newOwner",
          "type": "address"
        }
      ],
      "name": "transferOwnership",
      "outputs": [],
      "stateMutability": "nonpayable",
      "type": "function"
    },
    {
      "inputs": [
        {
          "internalType": "uint256",
          "name": "_amount",
          "type": "uint256"
        }
      ],
      "name": "withdraw",
      "outputs": [],
      "stateMutability": "nonpayable",
      "type": "function"
    },
    {
      "inputs": [],
      "name": "deposit",
      "outputs": [],
      "stateMutability": "payable",
      "type": "function"
    }
  ],
  "bytecode": "0x60806040523480156200001157600080fd5b5062000032620000266200003860201b60201c565b6200004060201b60201c565b62000104565b600033905090565b60008060009054906101000a900473ffffffffffffffffffffffffffffffffffffffff169050816000806101000a81548173ffffffffffffffffffffffffffffffffffffffff021916908373ffffffffffffffffffffffffffffffffffffffff1602179055508173ffffffffffffffffffffffffffffffffffffffff168173ffffffffffffffffffffffffffffffffffffffff167f8be0079c531659141344cd1fd0a4f28419497f9722a3daafe3b4186f6b6457e060405160405180910390a35050565b61377580620001146000396000f3fe608060405260043610620001225760003560e01c8063b790634e11620000a3578063f36b2425116200006d578063f36b2425146200035f578063f8c8765e146200038f578063fc68f66114620003bd578063fc7e286d14620003eb578063ff50abdc146200042f5762000122565b8063b790634e14620002d5578063c5ebeaec1462000305578063d0e30db01462000325578063f2fde38b14620003315762000122565b80636011163e11620000f15780636011163e14620001d557806370d4cea01462000219578063715018a614620002475780638da5cb5b146200026157806394f649dd14620002915762000122565b80630941cb3d14620001275780632e1a7d4d146200016b578063402d888314620001995780634c19386c14620001a5575b600080fd5b3480156200013457600080fd5b506200015360048036038101906200014d919062001d45565b6200045f565b604051620001629190620021fc565b60405180910390f35b3480156200017857600080fd5b5062000197600480360381019062000191919062001e7f565b62000477565b005b620001a362000654565b005b348015620001b257600080fd5b50620001bd620007b3565b604051620001cc9190620021fc565b60405180910390f35b348015620001e257600080fd5b50620002016004803603810190620001fb919062001d45565b620007b9565b604051620002109190620021fc565b60405180910390f35b3480156200022657600080fd5b506200024560048036038101906200023f919062001ddb565b620008b4565b005b3480156200025457600080fd5b506200025f620009f8565b005b3480156200026e57600080fd5b506200027962000a89565b6040516200028891906200208b565b60405180910390f35b3480156200029e57600080fd5b50620002bd6004803603810190620002b7919062001d45565b62000ab2565b604051620002cc9190620021fc565b60405180910390f35b348015620002e257600080fd5b50620002ed62000bad565b604051620002fc9190620021fc565b60405180910390f35b6200032360048036038101906200031d919062001e7f565b62000c6b565b005b6200032f62000f91565b005b3480156200033e57600080fd5b506200035d600480360381019062000357919062001d45565b620010bc565b005b3480156200036c57600080fd5b5062000377620011c0565b604051620003869190620021fc565b60405180910390f35b3480156200039c57600080fd5b50620003bb6004803603810190620003b5919062001e0d565b6200127e565b005b348015620003ca57600080fd5b50620003e96004803603810190620003e3919062001da9565b62001542565b005b348015620003f857600080fd5b5062000417600480360381019062000411919062001d45565b6200167c565b604051620004269190620021fc565b60405180910390f35b3480156200043c57600080fd5b506200044762001694565b604051620004569190620021fc565b60405180910390f35b60036020528060005260406000206000915090505481565b62000482336200169a565b80600160003373ffffffffffffffffffffffffffffffffffffffff1673ffffffffffffffffffffffffffffffffffffffff16815260200190815260200160002054101562000507576040517f08c379a0000000000000000000000000000000000000000000000000000000008152600401620004fe906200210e565b60405180910390fd5b80600160003373ffffffffffffffffffffffffffffffffffffffff1673ffffffffffffffffffffffffffffffffffffffff1681526020019081526020016000205462000554919062002342565b600160003373ffffffffffffffffffffffffffffffffffffffff1673ffffffffffffffffffffffffffffffffffffffff1681526020019081526020016000208190555080600254620005a7919062002342565b6002819055503373ffffffffffffffffffffffffffffffffffffffff166108fc829081150290604051600060405180830381858888f19350505050158015620005f4573d6000803e3d6000fd5b50620005ff620017ea565b3373ffffffffffffffffffffffffffffffffffffffff167fdf273cb619d95419a9cd0ec88123a0538c85064229baa6363788f743fff90deb82426040516200064992919062002246565b60405180910390a250565b6200065f3362001a7a565b346200066b33620007b9565b1015620006af576040517f08c379a0000000000000000000000000000000000000000000000000000000008152600401620006a69062002196565b60405180910390fd5b34600360003373ffffffffffffffffffffffffffffffffffffffff1673ffffffffffffffffffffffffffffffffffffffff16815260200190815260200160002054620006fc919062002342565b600360003373ffffffffffffffffffffffffffffffffffffffff1673ffffffffffffffffffffffffffffffffffffffff16815260200190815260200160002081905550346004546200074f919062002342565b6004819055506200075f620017ea565b3373ffffffffffffffffffffffffffffffffffffffff167f24fcca58a997b1b2eff6db8107e860458544c09ddd3693b3b779e1df6c0d6c5d3442604051620007a992919062002246565b60405180910390a2565b60045481565b6000600860009054906101000a900473ffffffffffffffffffffffffffffffffffffffff1673ffffffffffffffffffffffffffffffffffffffff1663966da889600360008573ffffffffffffffffffffffffffffffffffffffff1673ffffffffffffffffffffffffffffffffffffffff16815260200190815260200160002054846040518363ffffffff1660e01b81526004016200085992919062002219565b60206040518083038186803b1580156200087257600080fd5b505afa15801562000887573d6000803e3d6000fd5b505050506040513d601f19601f82011682018060405250810190620008ad919062001eb1565b9050919050565b620008be62001bca565b73ffffffffffffffffffffffffffffffffffffffff16620008de62000a89565b73ffffffffffffffffffffffffffffffffffffffff161462000937576040517f08c379a00000000000000000000000000000000000000000000000000000000081526004016200092e9062002174565b60405180910390fd5b600073ffffffffffffffffffffffffffffffffffffffff168173ffffffffffffffffffffffffffffffffffffffff161415620009aa576040517f08c379a0000000000000000000000000000000000000000000000000000000008152600401620009a190620020ca565b60405180910390fd5b80600560006101000a81548173ffffffffffffffffffffffffffffffffffffffff021916908373ffffffffffffffffffffffffffffffffffffffff160217905550620009f5620017ea565b50565b62000a0262001bca565b73ffffffffffffffffffffffffffffffffffffffff1662000a2262000a89565b73ffffffffffffffffffffffffffffffffffffffff161462000a7b576040517f08c379a000000000000000000000000000000000000000000000000000000000815260040162000a729062002174565b60405180910390fd5b62000a87600062001bd2565b565b60008060009054906101000a900473ffffffffffffffffffffffffffffffffffffffff16905090565b6000600760009054906101000a900473ffffffffffffffffffffffffffffffffffffffff1673ffffffffffffffffffffffffffffffffffffffff1663966da889600160008573ffffffffffffffffffffffffffffffffffffffff1673ffffffffffffffffffffffffffffffffffffffff16815260200190815260200160002054846040518363ffffffff1660e01b815260040162000b5292919062002219565b60206040518083038186803b15801562000b6b57600080fd5b505afa15801562000b80573d6000803e3d6000fd5b505050506040513d601f19601f8201168201806040525081019062000ba6919062001eb1565b9050919050565b6000600560009054906101000a900473ffffffffffffffffffffffffffffffffffffffff1673ffffffffffffffffffffffffffffffffffffffff16637cd083316004546002546040518363ffffffff1660e01b815260040162000c1292919062002246565b60206040518083038186803b15801562000c2b57600080fd5b505afa15801562000c40573d6000803e3d6000fd5b505050506040513d601f19601f8201168201806040525081019062000c66919062001eb1565b905090565b600073ffffffffffffffffffffffffffffffffffffffff16600660009054906101000a900473ffffffffffffffffffffffffffffffffffffffff1673ffffffffffffffffffffffffffffffffffffffff16141562000d00576040517f08c379a000000000000000000000000000000000000000000000000000000000815260040162000cf790620021da565b60405180910390fd5b600660009054906101000a900473ffffffffffffffffffffffffffffffffffffffff1673ffffffffffffffffffffffffffffffffffffffff16630e7fc864336040518263ffffffff1660e01b815260040162000d5d91906200208b565b60206040518083038186803b15801562000d7657600080fd5b505afa15801562000d8b573d6000803e3d6000fd5b505050506040513d601f19601f8201168201806040525081019062000db1919062001d77565b62000df3576040517f08c379a000000000000000000000000000000000000000000000000000000000815260040162000dea90620020ec565b60405180910390fd5b8047101562000e39576040517f08c379a000000000000000000000000000000000000000000000000000000000815260040162000e309062002130565b60405180910390fd5b62000e443362001a7a565b80600360003373ffffffffffffffffffffffffffffffffffffffff1673ffffffffffffffffffffffffffffffffffffffff1681526020019081526020016000205462000e91919062002284565b600360003373ffffffffffffffffffffffffffffffffffffffff1673ffffffffffffffffffffffffffffffffffffffff168152602001908152602001600020819055508060045462000ee4919062002284565b6004819055503373ffffffffffffffffffffffffffffffffffffffff166108fc829081150290604051600060405180830381858888f1935050505015801562000f31573d6000803e3d6000fd5b5062000f3c620017ea565b3373ffffffffffffffffffffffffffffffffffffffff167fd6b37be10b58108f696d9ed067fedad0bff7cb417ef4c28d2f8a25d6d83c98d5824260405162000f8692919062002246565b60405180910390a250565b62000f9c336200169a565b34600262000fab9190620022e1565b600160003373ffffffffffffffffffffffffffffffffffffffff1673ffffffffffffffffffffffffffffffffffffffff1681526020019081526020016000205462000ff7919062002284565b600160003373ffffffffffffffffffffffffffffffffffffffff1673ffffffffffffffffffffffffffffffffffffffff16815260200190815260200160002081905550346002620010499190620022e1565b60025462001058919062002284565b60028190555062001068620017ea565b3373ffffffffffffffffffffffffffffffffffffffff167f90890809c654f11d6e72a28fa60149770a0d11ec6c92319d6ceb2bb0a4ea1a153442604051620010b292919062002246565b60405180910390a2565b620010c662001bca565b73ffffffffffffffffffffffffffffffffffffffff16620010e662000a89565b73ffffffffffffffffffffffffffffffffffffffff16146200113f576040517f08c379a0000000000000000000000000000000000000000000000000000000008152600401620011369062002174565b60405180910390fd5b600073ffffffffffffffffffffffffffffffffffffffff168173ffffffffffffffffffffffffffffffffffffffff161415620011b2576040517f08c379a0000000000000000000000000000000000000000000000000000000008152600401620011a990620020a8565b60405180910390fd5b620011bd8162001bd2565b50565b6000600560009054906101000a900473ffffffffffffffffffffffffffffffffffffffff1673ffffffffffffffffffffffffffffffffffffffff1663df841eec6004546002546040518363ffffffff1660e01b81526004016200122592919062002246565b60206040518083038186803b1580156200123e57600080fd5b505afa15801562001253573d6000803e3d6000fd5b505050506040513d601f19601f8201168201806040525081019062001279919062001eb1565b905090565b600060159054906101000a900460ff1680620012a75750600060149054906101000a900460ff16155b620012e9576040517f08c379a0000000000000000000000000000000000000000000000000000000008152600401620012e09062002152565b60405180910390fd5b60008060159054906101000a900460ff1615905080156200133b576001600060156101000a81548160ff0219169083151502179055506001600060146101000a81548160ff0219169083151502179055505b84600560006101000a81548173ffffffffffffffffffffffffffffffffffffffff021916908373ffffffffffffffffffffffffffffffffffffffff16021790555083600660006101000a81548173ffffffffffffffffffffffffffffffffffffffff021916908373ffffffffffffffffffffffffffffffffffffffff160217905550600073ffffffffffffffffffffffffffffffffffffffff168373ffffffffffffffffffffffffffffffffffffffff1614620013f9578262001426565b604051620014079062001c96565b604051809103906000f08015801562001424573d6000803e3d6000fd5b505b600760006101000a81548173ffffffffffffffffffffffffffffffffffffffff021916908373ffffffffffffffffffffffffffffffffffffffff160217905550600073ffffffffffffffffffffffffffffffffffffffff168273ffffffffffffffffffffffffffffffffffffffff1614620014a25781620014cf565b604051620014b09062001c96565b604051809103906000f080158015620014cd573d6000803e3d6000fd5b505b600860006101000a81548173ffffffffffffffffffffffffffffffffffffffff021916908373ffffffffffffffffffffffffffffffffffffffff16021790555062001519620017ea565b80156200153b5760008060156101000a81548160ff0219169083151502179055505b5050505050565b6200154c62001bca565b73ffffffffffffffffffffffffffffffffffffffff166200156c62000a89565b73ffffffffffffffffffffffffffffffffffffffff1614620015c5576040517f08c379a0000000000000000000000000000000000000000000000000000000008152600401620015bc9062002174565b60405180910390fd5b600073ffffffffffffffffffffffffffffffffffffffff168173ffffffffffffffffffffffffffffffffffffffff16141562001638576040517f08c379a00000000000000000000000000000000000000000000000000000000081526004016200162f90620021b8565b60405180910390fd5b80600660006101000a81548173ffffffffffffffffffffffffffffffffffffffff021916908373ffffffffffffffffffffffffffffffffffffffff16021790555050565b60016020528060005260406000206000915090505481565b60025481565b6000620016a78262000ab2565b90506000600160008473ffffffffffffffffffffffffffffffffffffffff1673ffffffffffffffffffffffffffffffffffffffff1681526020019081526020016000205482620016f8919062002342565b905081600160008573ffffffffffffffffffffffffffffffffffffffff1673ffffffffffffffffffffffffffffffffffffffff16815260200190815260200160002081905550806002546200174e919062002284565b600281905550600760009054906101000a900473ffffffffffffffffffffffffffffffffffffffff1673ffffffffffffffffffffffffffffffffffffffff1663ed03b336846040518263ffffffff1660e01b8152600401620017b191906200208b565b600060405180830381600087803b158015620017cc57600080fd5b505af1158015620017e1573d6000803e3d6000fd5b50505050505050565b600760009054906101000a900473ffffffffffffffffffffffffffffffffffffffff1673ffffffffffffffffffffffffffffffffffffffff166334fcf437600560009054906101000a900473ffffffffffffffffffffffffffffffffffffffff1673ffffffffffffffffffffffffffffffffffffffff16637cd083316004546002546040518363ffffffff1660e01b81526004016200188b92919062002246565b60206040518083038186803b158015620018a457600080fd5b505afa158015620018b9573d6000803e3d6000fd5b505050506040513d601f19601f82011682018060405250810190620018df919062001eb1565b6040518263ffffffff1660e01b8152600401620018fd9190620021fc565b600060405180830381600087803b1580156200191857600080fd5b505af11580156200192d573d6000803e3d6000fd5b50505050600860009054906101000a900473ffffffffffffffffffffffffffffffffffffffff1673ffffffffffffffffffffffffffffffffffffffff166334fcf437600560009054906101000a900473ffffffffffffffffffffffffffffffffffffffff1673ffffffffffffffffffffffffffffffffffffffff1663df841eec6004546002546040518363ffffffff1660e01b8152600401620019d292919062002246565b60206040518083038186803b158015620019eb57600080fd5b505afa15801562001a00573d6000803e3d6000fd5b505050506040513d601f19601f8201168201806040525081019062001a26919062001eb1565b6040518263ffffffff1660e01b815260040162001a449190620021fc565b600060405180830381600087803b15801562001a5f57600080fd5b505af115801562001a74573d6000803e3d6000fd5b50505050565b600062001a8782620007b9565b90506000600360008473ffffffffffffffffffffffffffffffffffffffff1673ffffffffffffffffffffffffffffffffffffffff168152602001908152602001600020548262001ad8919062002342565b905081600360008573ffffffffffffffffffffffffffffffffffffffff1673ffffffffffffffffffffffffffffffffffffffff168152602001908152602001600020819055508060045462001b2e919062002284565b600481905550600860009054906101000a900473ffffffffffffffffffffffffffffffffffffffff1673ffffffffffffffffffffffffffffffffffffffff1663ed03b336846040518263ffffffff1660e01b815260040162001b9191906200208b565b600060405180830381600087803b15801562001bac57600080fd5b505af115801562001bc1573d6000803e3d6000fd5b50505050505050565b600033905090565b60008060009054906101000a900473ffffffffffffffffffffffffffffffffffffffff169050816000806101000a81548173ffffffffffffffffffffffffffffffffffffffff021916908373ffffffffffffffffffffffffffffffffffffffff1602179055508173ffffffffffffffffffffffffffffffffffffffff168173ffffffffffffffffffffffffffffffffffffffff167f8be0079c531659141344cd1fd0a4f28419497f9722a3daafe3b4186f6b6457e060405160405180910390a35050565b610f7c80620027c483390190565b60008135905062001cb58162002727565b92915050565b60008151905062001ccc8162002741565b92915050565b60008135905062001ce3816200275b565b92915050565b60008135905062001cfa8162002775565b92915050565b60008135905062001d11816200278f565b92915050565b60008135905062001d2881620027a9565b92915050565b60008151905062001d3f81620027a9565b92915050565b60006020828403121562001d5e5762001d5d62002432565b5b600062001d6e8482850162001ca4565b91505092915050565b60006020828403121562001d905762001d8f62002432565b5b600062001da08482850162001cbb565b91505092915050565b60006020828403121562001dc25762001dc162002432565b5b600062001dd28482850162001ce9565b91505092915050565b60006020828403121562001df45762001df362002432565b5b600062001e048482850162001d00565b91505092915050565b6000806000806080858703121562001e2a5762001e2962002432565b5b600062001e3a8782880162001d00565b945050602062001e4d8782880162001ce9565b935050604062001e608782880162001cd2565b925050606062001e738782880162001cd2565b91505092959194509250565b60006020828403121562001e985762001e9762002432565b5b600062001ea88482850162001d17565b91505092915050565b60006020828403121562001eca5762001ec962002432565b5b600062001eda8482850162001d2e565b91505092915050565b62001eee816200237d565b82525050565b600062001f0360268362002273565b915062001f108262002437565b604082019050919050565b600062001f2a60318362002273565b915062001f378262002486565b604082019050919050565b600062001f51603e8362002273565b915062001f5e82620024d5565b604082019050919050565b600062001f7860338362002273565b915062001f858262002524565b604082019050919050565b600062001f9f60368362002273565b915062001fac8262002573565b604082019050919050565b600062001fc6602e8362002273565b915062001fd382620025c2565b604082019050919050565b600062001fed60208362002273565b915062001ffa8262002611565b602082019050919050565b600062002014602f8362002273565b915062002021826200263a565b604082019050919050565b60006200203b60338362002273565b9150620020488262002689565b604082019050919050565b60006200206260258362002273565b91506200206f82620026d8565b604082019050919050565b6200208581620023f9565b82525050565b6000602082019050620020a2600083018462001ee3565b92915050565b60006020820190508181036000830152620020c38162001ef4565b9050919050565b60006020820190508181036000830152620020e58162001f1b565b9050919050565b60006020820190508181036000830152620021078162001f42565b9050919050565b60006020820190508181036000830152620021298162001f69565b9050919050565b600060208201905081810360008301526200214b8162001f90565b9050919050565b600060208201905081810360008301526200216d8162001fb7565b9050919050565b600060208201905081810360008301526200218f8162001fde565b9050919050565b60006020820190508181036000830152620021b18162002005565b9050919050565b60006020820190508181036000830152620021d3816200202c565b9050919050565b60006020820190508181036000830152620021f58162002053565b9050919050565b60006020820190506200221360008301846200207a565b92915050565b60006040820190506200223060008301856200207a565b6200223f602083018462001ee3565b9392505050565b60006040820190506200225d60008301856200207a565b6200226c60208301846200207a565b9392505050565b600082825260208201905092915050565b60006200229182620023f9565b91506200229e83620023f9565b9250827fffffffffffffffffffffffffffffffffffffffffffffffffffffffffffffffff03821115620022d657620022d562002403565b5b828201905092915050565b6000620022ee82620023f9565b9150620022fb83620023f9565b9250817fffffffffffffffffffffffffffffffffffffffffffffffffffffffffffffffff048311821515161562002337576200233662002403565b5b828202905092915050565b60006200234f82620023f9565b91506200235c83620023f9565b92508282101562002372576200237162002403565b5b828203905092915050565b60006200238a82620023d9565b9050919050565b60008115159050919050565b6000620023aa826200237d565b9050919050565b6000620023be826200237d565b9050919050565b6000620023d2826200237d565b9050919050565b600073ffffffffffffffffffffffffffffffffffffffff82169050919050565b6000819050919050565b7f4e487b7100000000000000000000000000000000000000000000000000000000600052601160045260246000fd5b600080fd5b7f4f776e61626c653a206e6577206f776e657220697320746865207a65726f206160008201527f6464726573730000000000000000000000000000000000000000000000000000602082015250565b7f5468652072617465732063616c63756c61746f722063616e6e6f74207365742060008201527f746f2061206e756c6c2061646472657373000000000000000000000000000000602082015250565b7f4f6e6c7920746865206163636f756e747320617574686f72697365642062792060008201527f626f72726f77657273207265676973747279206d617920626f72726f772e0000602082015250565b7f596f752061726520747279696e6720746f207769746864726177206d6f72652060008201527f7468617420776173206465706f73697465642e00000000000000000000000000602082015250565b7f5468657265206973206e6f20656e6f7567682066756e647320696e207468652060008201527f706f6f6c20746f2066756e6420746865206c6f616e2e00000000000000000000602082015250565b7f496e697469616c697a61626c653a20636f6e747261637420697320616c72656160008201527f647920696e697469616c697a6564000000000000000000000000000000000000602082015250565b7f4f776e61626c653a2063616c6c6572206973206e6f7420746865206f776e6572600082015250565b7f596f752061726520747279696e6720746f207265706179206d6f72652074686160008201527f742077617320626f72726f7765642e0000000000000000000000000000000000602082015250565b7f54686520626f72726f776572732072656769737472792063616e6e6f7420736560008201527f7420746f2061206e756c6c206164647265737300000000000000000000000000602082015250565b7f426f72726f77657273207265676973747279206973206e6f7420636f6e66696760008201527f757265642e000000000000000000000000000000000000000000000000000000602082015250565b62002732816200237d565b81146200273e57600080fd5b50565b6200274c8162002391565b81146200275857600080fd5b50565b62002766816200239d565b81146200277257600080fd5b50565b6200278081620023b1565b81146200278c57600080fd5b50565b6200279a81620023c5565b8114620027a657600080fd5b50565b620027b481620023f9565b8114620027c057600080fd5b5056fe608060405242600155670de0b6b3a764000060025560015460035534801561002657600080fd5b5061004361003861004860201b60201c565b61005060201b60201c565b610114565b600033905090565b60008060009054906101000a900473ffffffffffffffffffffffffffffffffffffffff169050816000806101000a81548173ffffffffffffffffffffffffffffffffffffffff021916908373ffffffffffffffffffffffffffffffffffffffff1602179055508173ffffffffffffffffffffffffffffffffffffffff168173ffffffffffffffffffffffffffffffffffffffff167f8be0079c531659141344cd1fd0a4f28419497f9722a3daafe3b4186f6b6457e060405160405180910390a35050565b610e59806101236000396000f3fe608060405234801561001057600080fd5b50600436106100a95760003560e01c806381045ead1161007157806381045ead1461012e5780638da5cb5b1461014c578063966da8891461016a578063be9a65551461019a578063ed03b336146101b8578063f2fde38b146101d4576100a9565b80632986c0e5146100ae5780632c4e722e146100cc57806334fcf437146100ea578063715018a614610106578063798d1df714610110575b600080fd5b6100b66101f0565b6040516100c39190610b6c565b60405180910390f35b6100d46101f6565b6040516100e19190610b6c565b60405180910390f35b61010460048036038101906100ff9190610a40565b6101fc565b005b61010e6102c3565b005b61011861034b565b6040516101259190610b6c565b60405180910390f35b610136610351565b6040516101439190610b6c565b60405180910390f35b6101546103ac565b6040516101619190610b11565b60405180910390f35b610184600480360381019061017f9190610a6d565b6103d5565b6040516101919190610b6c565b60405180910390f35b6101a26104a1565b6040516101af9190610b6c565b60405180910390f35b6101d260048036038101906101cd9190610a13565b6104a7565b005b6101ee60048036038101906101e99190610a13565b610589565b005b60025481565b60065481565b610204610681565b73ffffffffffffffffffffffffffffffffffffffff166102226103ac565b73ffffffffffffffffffffffffffffffffffffffff1614610278576040517f08c379a000000000000000000000000000000000000000000000000000000000815260040161026f90610b4c565b60405180910390fd5b610280610689565b806006819055507fe65c987b2e4668e09ba867026921588005b2b2063607a1e7e7d91683c8f91b7b6006546040516102b89190610b6c565b60405180910390a150565b6102cb610681565b73ffffffffffffffffffffffffffffffffffffffff166102e96103ac565b73ffffffffffffffffffffffffffffffffffffffff161461033f576040517f08c379a000000000000000000000000000000000000000000000000000000000815260040161033690610b4c565b60405180910390fd5b61034960006106bc565b565b60035481565b600080600354426103629190610c79565b905060008111156103a25761039a61039561037c83610780565b6103876002546107c7565b6107e090919063ffffffff16565b610830565b9150506103a9565b6002549150505b90565b60008060009054906101000a900473ffffffffffffffffffffffffffffffffffffffff16905090565b6000806000600560008573ffffffffffffffffffffffffffffffffffffffff1673ffffffffffffffffffffffffffffffffffffffff1681526020019081526020016000205414610440576004600061042c85610869565b81526020019081526020016000205461044a565b670de0b6b3a76400005b905061049861049361045b836107c7565b61048561046e610469610351565b6107c7565b610477896107c7565b6107e090919063ffffffff16565b61090190919063ffffffff16565b610830565b91505092915050565b60015481565b6104af610681565b73ffffffffffffffffffffffffffffffffffffffff166104cd6103ac565b73ffffffffffffffffffffffffffffffffffffffff1614610523576040517f08c379a000000000000000000000000000000000000000000000000000000000815260040161051a90610b4c565b60405180910390fd5b42600560008373ffffffffffffffffffffffffffffffffffffffff1673ffffffffffffffffffffffffffffffffffffffff1681526020019081526020016000208190555061056f610351565b600460004281526020019081526020016000208190555050565b610591610681565b73ffffffffffffffffffffffffffffffffffffffff166105af6103ac565b73ffffffffffffffffffffffffffffffffffffffff1614610605576040517f08c379a00000000000000000000000000000000000000000000000000000000081526004016105fc90610b4c565b60405180910390fd5b600073ffffffffffffffffffffffffffffffffffffffff168173ffffffffffffffffffffffffffffffffffffffff161415610675576040517f08c379a000000000000000000000000000000000000000000000000000000000815260040161066c90610b2c565b60405180910390fd5b61067e816106bc565b50565b600033905090565b600254600460006003548152602001908152602001600020819055506106ad610351565b60028190555042600381905550565b60008060009054906101000a900473ffffffffffffffffffffffffffffffffffffffff169050816000806101000a81548173ffffffffffffffffffffffffffffffffffffffff021916908373ffffffffffffffffffffffffffffffffffffffff1602179055508173ffffffffffffffffffffffffffffffffffffffff168173ffffffffffffffffffffffffffffffffffffffff167f8be0079c531659141344cd1fd0a4f28419497f9722a3daafe3b4186f6b6457e060405160405180910390a35050565b60006107c08261078e61094a565b6301e1338061079e6006546107c7565b6107a89190610bee565b6107b29190610b98565b61095e90919063ffffffff16565b9050919050565b6000633b9aca00826107d99190610c1f565b9050919050565b60006b033b2e3c9fd0803ce800000082846107fb9190610c1f565b60026b033b2e3c9fd0803ce80000006108149190610bee565b61081e9190610b98565b6108289190610bee565b905092915050565b6000806002633b9aca006108449190610bee565b9050633b9aca0083826108579190610b98565b6108619190610bee565b915050919050565b600080600560008473ffffffffffffffffffffffffffffffffffffffff1673ffffffffffffffffffffffffffffffffffffffff16815260200190815260200160002054146108f657600560008373ffffffffffffffffffffffffffffffffffffffff1673ffffffffffffffffffffffffffffffffffffffff168152602001908152602001600020546108fa565b6001545b9050919050565b6000806002836109119190610bee565b9050826b033b2e3c9fd0803ce80000008561092c9190610c1f565b826109379190610b98565b6109419190610bee565b91505092915050565b60006b033b2e3c9fd0803ce8000000905090565b60008060028361096e9190610ce9565b1415610986576b033b2e3c9fd0803ce8000000610988565b825b90506002826109979190610bee565b91505b600082146109e3576109ac83846107e0565b925060006002836109bd9190610ce9565b146109cf576109cc81846107e0565b90505b6002826109dc9190610bee565b915061099a565b92915050565b6000813590506109f881610df5565b92915050565b600081359050610a0d81610e0c565b92915050565b600060208284031215610a2957610a28610d78565b5b6000610a37848285016109e9565b91505092915050565b600060208284031215610a5657610a55610d78565b5b6000610a64848285016109fe565b91505092915050565b60008060408385031215610a8457610a83610d78565b5b6000610a92858286016109fe565b9250506020610aa3858286016109e9565b9150509250929050565b610ab681610cad565b82525050565b6000610ac9602683610b87565b9150610ad482610d7d565b604082019050919050565b6000610aec602083610b87565b9150610af782610dcc565b602082019050919050565b610b0b81610cdf565b82525050565b6000602082019050610b266000830184610aad565b92915050565b60006020820190508181036000830152610b4581610abc565b9050919050565b60006020820190508181036000830152610b6581610adf565b9050919050565b6000602082019050610b816000830184610b02565b92915050565b600082825260208201905092915050565b6000610ba382610cdf565b9150610bae83610cdf565b9250827fffffffffffffffffffffffffffffffffffffffffffffffffffffffffffffffff03821115610be357610be2610d1a565b5b828201905092915050565b6000610bf982610cdf565b9150610c0483610cdf565b925082610c1457610c13610d49565b5b828204905092915050565b6000610c2a82610cdf565b9150610c3583610cdf565b9250817fffffffffffffffffffffffffffffffffffffffffffffffffffffffffffffffff0483118215151615610c6e57610c6d610d1a565b5b828202905092915050565b6000610c8482610cdf565b9150610c8f83610cdf565b925082821015610ca257610ca1610d1a565b5b828203905092915050565b6000610cb882610cbf565b9050919050565b600073ffffffffffffffffffffffffffffffffffffffff82169050919050565b6000819050919050565b6000610cf482610cdf565b9150610cff83610cdf565b925082610d0f57610d0e610d49565b5b828206905092915050565b7f4e487b7100000000000000000000000000000000000000000000000000000000600052601160045260246000fd5b7f4e487b7100000000000000000000000000000000000000000000000000000000600052601260045260246000fd5b600080fd5b7f4f776e61626c653a206e6577206f776e657220697320746865207a65726f206160008201527f6464726573730000000000000000000000000000000000000000000000000000602082015250565b7f4f776e61626c653a2063616c6c6572206973206e6f7420746865206f776e6572600082015250565b610dfe81610cad565b8114610e0957600080fd5b50565b610e1581610cdf565b8114610e2057600080fd5b5056fea26469706673582212205b1b31ad29fc059b359f66b12e6898a01ebd3e80843392d12a973cff88613fde64736f6c63430008060033a26469706673582212200d61903397e6d235dabe8d12fe2866f40cd67ef091e224129ab03cde00f09c0164736f6c63430008060033",
  "immutableReferences": {},
  "source": "// SPDX-License-Identifier: UNLICENSED\npragma solidity ^0.8.2;\n\nimport \"../Pool.sol\";\nimport \"@openzeppelin/contracts/proxy/transparent/TransparentUpgradeableProxy.sol\";\n\n/**\n * @title MockUpgradedPool\n * @dev A mock implementation of a Pool to check if upgrade mechanism correctly update contrac logic\n */\ncontract MockUpgradedPool is Pool {\n\n    /**\n     * Dummy implementation recording double deposits\n     * used to test upgrade of contract logic\n    **/\n    function deposit() payable override external {\n        accumulateDepositInterests(msg.sender);\n\n        deposits[msg.sender] = deposits[msg.sender] + 2 * msg.value;\n        totalDeposited = totalDeposited + 2 * msg.value;\n\n        updateRates();\n\n        emit Deposit(msg.sender, msg.value, block.timestamp);\n    }  \n\n}\n",
  "sourcePath": "/Users/apple/Redstone/smart-broker/contracts/mock/MockUpgradedPool.sol",
  "compiler": {
    "name": "solc",
    "version": "0.8.6+commit.11564f7e.Emscripten.clang"
  },
  "schemaVersion": "3.4.2",
  "updatedAt": "2021-08-05T13:09:52.974Z",
  "devdoc": {
    "details": "A mock implementation of a Pool to check if upgrade mechanism correctly update contrac logic",
    "kind": "dev",
    "methods": {
      "borrow(uint256)": {
        "details": "_amount the amount to be borrowed*"
      },
      "getBorrowed(address)": {
        "details": "_user the address of queried borrower*"
      },
      "getDeposits(address)": {
        "details": "_user the address of queried depositor*"
      },
      "owner()": {
        "details": "Returns the address of the current owner."
      },
      "renounceOwnership()": {
        "details": "Leaves the contract without owner. It will not be possible to call `onlyOwner` functions anymore. Can only be called by the current owner. NOTE: Renouncing ownership will leave the contract without an owner, thereby removing any functionality that is only available to the owner."
      },
      "setBorrowersRegistry(address)": {
        "details": "_borrowersRegistry the address of borrowers registry*"
      },
      "setRatesCalculator(address)": {
        "details": "_ratesCalculator the address of rates calculator*"
      },
      "transferOwnership(address)": {
        "details": "Transfers ownership of the contract to a new account (`newOwner`). Can only be called by the current owner."
      },
      "withdraw(uint256)": {
        "details": "_amount the amount to be withdrawn*"
      }
    },
    "title": "MockUpgradedPool",
    "version": 1
  },
  "userdoc": {
    "kind": "user",
    "methods": {
      "borrow(uint256)": {
        "notice": "Borrows the specified amount It updates user borrowed balance, total borrowed amount and rates"
      },
      "deposit()": {
        "notice": "Dummy implementation recording double deposits used to test upgrade of contract logic*"
      },
      "getBorrowed(address)": {
        "notice": "Returns the current borrowed amount for the given user The value includes the interest rates owned at the current moment"
      },
      "getBorrowingRate()": {
        "notice": "Returns the current interest rate for borrowings*"
      },
      "getDepositRate()": {
        "notice": "Returns the current interest rate for deposits*"
      },
      "getDeposits(address)": {
        "notice": "Returns the current deposited amount for the given user The value includes the interest rates earned at the current moment"
      },
      "repay()": {
        "notice": "Repays the message value It updates user borrowed balance, total borrowed amount and rates*"
      },
      "setBorrowersRegistry(address)": {
        "notice": "Sets the new borrowers registry contract. The borrowers registry decides if an account can borrow funds. Only the owner of the Contract can execute this function."
      },
      "setRatesCalculator(address)": {
        "notice": "Sets the new rate calculator. The calculator is an external contract that contains the logic for calculating deposit and borrowing rates. Only the owner of the Contract can execute this function."
      },
      "withdraw(uint256)": {
        "notice": "Withdraws selected amount from the user deposits"
      }
    },
    "version": 1
  }
}