{
  "contractName": "OpenBorrowersRegistry",
  "abi": [
    {
      "inputs": [
        {
          "internalType": "address",
          "name": "_account",
          "type": "address"
        }
      ],
      "name": "canBorrow",
      "outputs": [
        {
          "internalType": "bool",
          "name": "",
          "type": "bool"
        }
      ],
      "stateMutability": "pure",
      "type": "function"
    },
    {
      "inputs": [
        {
          "internalType": "address",
          "name": "_user",
          "type": "address"
        }
      ],
      "name": "getAccountForUser",
      "outputs": [
        {
          "internalType": "address",
          "name": "",
          "type": "address"
        }
      ],
      "stateMutability": "pure",
      "type": "function"
    },
    {
      "inputs": [
        {
          "internalType": "address",
          "name": "_loan",
          "type": "address"
        }
      ],
      "name": "getOwnerOfLoan",
      "outputs": [
        {
          "internalType": "address",
          "name": "",
          "type": "address"
        }
      ],
      "stateMutability": "pure",
      "type": "function"
    }
  ],
  "bytecode": "0x608060405234801561001057600080fd5b50610215806100206000396000f3fe608060405234801561001057600080fd5b50600436106100415760003560e01c80630e7fc864146100465780635b01254614610076578063e59ec38d146100a6575b600080fd5b610060600480360381019061005b9190610104565b6100d6565b60405161006d919061016a565b60405180910390f35b610090600480360381019061008b9190610104565b6100e1565b60405161009d919061014f565b60405180910390f35b6100c060048036038101906100bb9190610104565b6100e8565b6040516100cd919061014f565b60405180910390f35b600060019050919050565b6000919050565b6000919050565b6000813590506100fe816101c8565b92915050565b60006020828403121561011a576101196101c3565b5b6000610128848285016100ef565b91505092915050565b61013a81610185565b82525050565b61014981610197565b82525050565b60006020820190506101646000830184610131565b92915050565b600060208201905061017f6000830184610140565b92915050565b6000610190826101a3565b9050919050565b60008115159050919050565b600073ffffffffffffffffffffffffffffffffffffffff82169050919050565b600080fd5b6101d181610185565b81146101dc57600080fd5b5056fea2646970667358221220c3fdec7264ac25caed0c50ba1cd4c122e67887a01133ff32efdffaa98a46c6a064736f6c63430008060033",
  "immutableReferences": {},
  "source": "// SPDX-License-Identifier: UNLICENSED\npragma solidity ^0.8.2;\n\nimport \"./IBorrowersRegistry.sol\";\n\n\n/**\n * @title OpenBorrowersRegistry\n * It the simpled borrowers registry that allows every account\n * Should be used for test purpose only\n */\ncontract OpenBorrowersRegistry is IBorrowersRegistry {\n\n  function canBorrow(address _account) external pure override returns(bool) {\n    return true;\n  }\n\n  function getAccountForUser(address _user) external pure override returns(address) {\n    return address(0);\n  }\n\n  function getOwnerOfLoan(address _loan) external pure override returns(address) {\n    return address(0);\n  }\n\n}\n",
  "sourcePath": "/Users/apple/Redstone/smart-broker/contracts/OpenBorrowersRegistry.sol",
  "compiler": {
    "name": "solc",
    "version": "0.8.6+commit.11564f7e.Emscripten.clang"
  },
  "schemaVersion": "3.4.2",
  "updatedAt": "2021-08-05T13:09:52.914Z",
  "devdoc": {
    "kind": "dev",
    "methods": {},
    "title": "OpenBorrowersRegistry It the simpled borrowers registry that allows every account Should be used for test purpose only",
    "version": 1
  },
  "userdoc": {
    "kind": "user",
    "methods": {},
    "version": 1
  }
}