{
  "contractName": "Pool",
  "abi": [
    {
      "anonymous": false,
      "inputs": [
        {
          "indexed": true,
          "internalType": "address",
          "name": "user",
          "type": "address"
        },
        {
          "indexed": false,
          "internalType": "uint256",
          "name": "value",
          "type": "uint256"
        },
        {
          "indexed": false,
          "internalType": "uint256",
          "name": "timestamp",
          "type": "uint256"
        }
      ],
      "name": "Borrowing",
      "type": "event"
    },
    {
      "anonymous": false,
      "inputs": [
        {
          "indexed": true,
          "internalType": "address",
          "name": "user",
          "type": "address"
        },
        {
          "indexed": false,
          "internalType": "uint256",
          "name": "value",
          "type": "uint256"
        },
        {
          "indexed": false,
          "internalType": "uint256",
          "name": "timestamp",
          "type": "uint256"
        }
      ],
      "name": "Deposit",
      "type": "event"
    },
    {
      "anonymous": false,
      "inputs": [
        {
          "indexed": true,
          "internalType": "address",
          "name": "previousOwner",
          "type": "address"
        },
        {
          "indexed": true,
          "internalType": "address",
          "name": "newOwner",
          "type": "address"
        }
      ],
      "name": "OwnershipTransferred",
      "type": "event"
    },
    {
      "anonymous": false,
      "inputs": [
        {
          "indexed": true,
          "internalType": "address",
          "name": "user",
          "type": "address"
        },
        {
          "indexed": false,
          "internalType": "uint256",
          "name": "value",
          "type": "uint256"
        },
        {
          "indexed": false,
          "internalType": "uint256",
          "name": "timestamp",
          "type": "uint256"
        }
      ],
      "name": "Repayment",
      "type": "event"
    },
    {
      "anonymous": false,
      "inputs": [
        {
          "indexed": true,
          "internalType": "address",
          "name": "user",
          "type": "address"
        },
        {
          "indexed": false,
          "internalType": "uint256",
          "name": "value",
          "type": "uint256"
        },
        {
          "indexed": false,
          "internalType": "uint256",
          "name": "timestamp",
          "type": "uint256"
        }
      ],
      "name": "Withdrawal",
      "type": "event"
    },
    {
      "inputs": [
        {
          "internalType": "address",
          "name": "",
          "type": "address"
        }
      ],
      "name": "borrowed",
      "outputs": [
        {
          "internalType": "uint256",
          "name": "",
          "type": "uint256"
        }
      ],
      "stateMutability": "view",
      "type": "function"
    },
    {
      "inputs": [
        {
          "internalType": "address",
          "name": "",
          "type": "address"
        }
      ],
      "name": "deposits",
      "outputs": [
        {
          "internalType": "uint256",
          "name": "",
          "type": "uint256"
        }
      ],
      "stateMutability": "view",
      "type": "function"
    },
    {
      "inputs": [],
      "name": "owner",
      "outputs": [
        {
          "internalType": "address",
          "name": "",
          "type": "address"
        }
      ],
      "stateMutability": "view",
      "type": "function"
    },
    {
      "inputs": [],
      "name": "renounceOwnership",
      "outputs": [],
      "stateMutability": "nonpayable",
      "type": "function"
    },
    {
      "inputs": [],
      "name": "totalBorrowed",
      "outputs": [
        {
          "internalType": "uint256",
          "name": "",
          "type": "uint256"
        }
      ],
      "stateMutability": "view",
      "type": "function"
    },
    {
      "inputs": [],
      "name": "totalDeposited",
      "outputs": [
        {
          "internalType": "uint256",
          "name": "",
          "type": "uint256"
        }
      ],
      "stateMutability": "view",
      "type": "function"
    },
    {
      "inputs": [
        {
          "internalType": "address",
          "name": "newOwner",
          "type": "address"
        }
      ],
      "name": "transferOwnership",
      "outputs": [],
      "stateMutability": "nonpayable",
      "type": "function"
    },
    {
      "inputs": [
        {
          "internalType": "contract IRatesCalculator",
          "name": "_ratesCalculator",
          "type": "address"
        },
        {
          "internalType": "contract IBorrowersRegistry",
          "name": "_borrowersRegistry",
          "type": "address"
        },
        {
          "internalType": "contract CompoundingIndex",
          "name": "_depositIndex",
          "type": "address"
        },
        {
          "internalType": "contract CompoundingIndex",
          "name": "_borrowIndex",
          "type": "address"
        }
      ],
      "name": "initialize",
      "outputs": [],
      "stateMutability": "nonpayable",
      "type": "function"
    },
    {
      "inputs": [
        {
          "internalType": "contract IRatesCalculator",
          "name": "_ratesCalculator",
          "type": "address"
        }
      ],
      "name": "setRatesCalculator",
      "outputs": [],
      "stateMutability": "nonpayable",
      "type": "function"
    },
    {
      "inputs": [
        {
          "internalType": "contract IBorrowersRegistry",
          "name": "_borrowersRegistry",
          "type": "address"
        }
      ],
      "name": "setBorrowersRegistry",
      "outputs": [],
      "stateMutability": "nonpayable",
      "type": "function"
    },
    {
      "inputs": [],
      "name": "deposit",
      "outputs": [],
      "stateMutability": "payable",
      "type": "function"
    },
    {
      "inputs": [
        {
          "internalType": "uint256",
          "name": "_amount",
          "type": "uint256"
        }
      ],
      "name": "withdraw",
      "outputs": [],
      "stateMutability": "nonpayable",
      "type": "function"
    },
    {
      "inputs": [
        {
          "internalType": "uint256",
          "name": "_amount",
          "type": "uint256"
        }
      ],
      "name": "borrow",
      "outputs": [],
      "stateMutability": "payable",
      "type": "function"
    },
    {
      "inputs": [],
      "name": "repay",
      "outputs": [],
      "stateMutability": "payable",
      "type": "function"
    },
    {
      "inputs": [
        {
          "internalType": "address",
          "name": "_user",
          "type": "address"
        }
      ],
      "name": "getBorrowed",
      "outputs": [
        {
          "internalType": "uint256",
          "name": "",
          "type": "uint256"
        }
      ],
      "stateMutability": "view",
      "type": "function"
    },
    {
      "inputs": [
        {
          "internalType": "address",
          "name": "user",
          "type": "address"
        }
      ],
      "name": "getDeposits",
      "outputs": [
        {
          "internalType": "uint256",
          "name": "",
          "type": "uint256"
        }
      ],
      "stateMutability": "view",
      "type": "function"
    },
    {
      "inputs": [],
      "name": "getDepositRate",
      "outputs": [
        {
          "internalType": "uint256",
          "name": "",
          "type": "uint256"
        }
      ],
      "stateMutability": "view",
      "type": "function"
    },
    {
      "inputs": [],
      "name": "getBorrowingRate",
      "outputs": [
        {
          "internalType": "uint256",
          "name": "",
          "type": "uint256"
        }
      ],
      "stateMutability": "view",
      "type": "function"
    }
  ],
  "bytecode": "0x60806040523480156200001157600080fd5b5062000032620000266200003860201b60201c565b6200004060201b60201c565b62000104565b600033905090565b60008060009054906101000a900473ffffffffffffffffffffffffffffffffffffffff169050816000806101000a81548173ffffffffffffffffffffffffffffffffffffffff021916908373ffffffffffffffffffffffffffffffffffffffff1602179055508173ffffffffffffffffffffffffffffffffffffffff168173ffffffffffffffffffffffffffffffffffffffff167f8be0079c531659141344cd1fd0a4f28419497f9722a3daafe3b4186f6b6457e060405160405180910390a35050565b6136f880620001146000396000f3fe608060405260043610620001225760003560e01c8063b790634e11620000a3578063f36b2425116200006d578063f36b2425146200035f578063f8c8765e146200038f578063fc68f66114620003bd578063fc7e286d14620003eb578063ff50abdc146200042f5762000122565b8063b790634e14620002d5578063c5ebeaec1462000305578063d0e30db01462000325578063f2fde38b14620003315762000122565b80636011163e11620000f15780636011163e14620001d557806370d4cea01462000219578063715018a614620002475780638da5cb5b146200026157806394f649dd14620002915762000122565b80630941cb3d14620001275780632e1a7d4d146200016b578063402d888314620001995780634c19386c14620001a5575b600080fd5b3480156200013457600080fd5b506200015360048036038101906200014d919062001d29565b6200045f565b604051620001629190620021e0565b60405180910390f35b3480156200017857600080fd5b5062000197600480360381019062000191919062001e63565b62000477565b005b620001a362000654565b005b348015620001b257600080fd5b50620001bd620007b3565b604051620001cc9190620021e0565b60405180910390f35b348015620001e257600080fd5b50620002016004803603810190620001fb919062001d29565b620007b9565b604051620002109190620021e0565b60405180910390f35b3480156200022657600080fd5b506200024560048036038101906200023f919062001dbf565b620008b4565b005b3480156200025457600080fd5b506200025f620009f8565b005b3480156200026e57600080fd5b506200027962000a89565b6040516200028891906200206f565b60405180910390f35b3480156200029e57600080fd5b50620002bd6004803603810190620002b7919062001d29565b62000ab2565b604051620002cc9190620021e0565b60405180910390f35b348015620002e257600080fd5b50620002ed62000bad565b604051620002fc9190620021e0565b60405180910390f35b6200032360048036038101906200031d919062001e63565b62000c6b565b005b6200032f62000f91565b005b3480156200033e57600080fd5b506200035d600480360381019062000357919062001d29565b620010a0565b005b3480156200036c57600080fd5b5062000377620011a4565b604051620003869190620021e0565b60405180910390f35b3480156200039c57600080fd5b50620003bb6004803603810190620003b5919062001df1565b62001262565b005b348015620003ca57600080fd5b50620003e96004803603810190620003e3919062001d8d565b62001526565b005b348015620003f857600080fd5b5062000417600480360381019062000411919062001d29565b62001660565b604051620004269190620021e0565b60405180910390f35b3480156200043c57600080fd5b506200044762001678565b604051620004569190620021e0565b60405180910390f35b60036020528060005260406000206000915090505481565b62000482336200167e565b80600160003373ffffffffffffffffffffffffffffffffffffffff1673ffffffffffffffffffffffffffffffffffffffff16815260200190815260200160002054101562000507576040517f08c379a0000000000000000000000000000000000000000000000000000000008152600401620004fe90620020f2565b60405180910390fd5b80600160003373ffffffffffffffffffffffffffffffffffffffff1673ffffffffffffffffffffffffffffffffffffffff16815260200190815260200160002054620005549190620022c5565b600160003373ffffffffffffffffffffffffffffffffffffffff1673ffffffffffffffffffffffffffffffffffffffff1681526020019081526020016000208190555080600254620005a79190620022c5565b6002819055503373ffffffffffffffffffffffffffffffffffffffff166108fc829081150290604051600060405180830381858888f19350505050158015620005f4573d6000803e3d6000fd5b50620005ff620017ce565b3373ffffffffffffffffffffffffffffffffffffffff167fdf273cb619d95419a9cd0ec88123a0538c85064229baa6363788f743fff90deb8242604051620006499291906200222a565b60405180910390a250565b6200065f3362001a5e565b346200066b33620007b9565b1015620006af576040517f08c379a0000000000000000000000000000000000000000000000000000000008152600401620006a6906200217a565b60405180910390fd5b34600360003373ffffffffffffffffffffffffffffffffffffffff1673ffffffffffffffffffffffffffffffffffffffff16815260200190815260200160002054620006fc9190620022c5565b600360003373ffffffffffffffffffffffffffffffffffffffff1673ffffffffffffffffffffffffffffffffffffffff16815260200190815260200160002081905550346004546200074f9190620022c5565b6004819055506200075f620017ce565b3373ffffffffffffffffffffffffffffffffffffffff167f24fcca58a997b1b2eff6db8107e860458544c09ddd3693b3b779e1df6c0d6c5d3442604051620007a99291906200222a565b60405180910390a2565b60045481565b6000600860009054906101000a900473ffffffffffffffffffffffffffffffffffffffff1673ffffffffffffffffffffffffffffffffffffffff1663966da889600360008573ffffffffffffffffffffffffffffffffffffffff1673ffffffffffffffffffffffffffffffffffffffff16815260200190815260200160002054846040518363ffffffff1660e01b815260040162000859929190620021fd565b60206040518083038186803b1580156200087257600080fd5b505afa15801562000887573d6000803e3d6000fd5b505050506040513d601f19601f82011682018060405250810190620008ad919062001e95565b9050919050565b620008be62001bae565b73ffffffffffffffffffffffffffffffffffffffff16620008de62000a89565b73ffffffffffffffffffffffffffffffffffffffff161462000937576040517f08c379a00000000000000000000000000000000000000000000000000000000081526004016200092e9062002158565b60405180910390fd5b600073ffffffffffffffffffffffffffffffffffffffff168173ffffffffffffffffffffffffffffffffffffffff161415620009aa576040517f08c379a0000000000000000000000000000000000000000000000000000000008152600401620009a190620020ae565b60405180910390fd5b80600560006101000a81548173ffffffffffffffffffffffffffffffffffffffff021916908373ffffffffffffffffffffffffffffffffffffffff160217905550620009f5620017ce565b50565b62000a0262001bae565b73ffffffffffffffffffffffffffffffffffffffff1662000a2262000a89565b73ffffffffffffffffffffffffffffffffffffffff161462000a7b576040517f08c379a000000000000000000000000000000000000000000000000000000000815260040162000a729062002158565b60405180910390fd5b62000a87600062001bb6565b565b60008060009054906101000a900473ffffffffffffffffffffffffffffffffffffffff16905090565b6000600760009054906101000a900473ffffffffffffffffffffffffffffffffffffffff1673ffffffffffffffffffffffffffffffffffffffff1663966da889600160008573ffffffffffffffffffffffffffffffffffffffff1673ffffffffffffffffffffffffffffffffffffffff16815260200190815260200160002054846040518363ffffffff1660e01b815260040162000b52929190620021fd565b60206040518083038186803b15801562000b6b57600080fd5b505afa15801562000b80573d6000803e3d6000fd5b505050506040513d601f19601f8201168201806040525081019062000ba6919062001e95565b9050919050565b6000600560009054906101000a900473ffffffffffffffffffffffffffffffffffffffff1673ffffffffffffffffffffffffffffffffffffffff16637cd083316004546002546040518363ffffffff1660e01b815260040162000c129291906200222a565b60206040518083038186803b15801562000c2b57600080fd5b505afa15801562000c40573d6000803e3d6000fd5b505050506040513d601f19601f8201168201806040525081019062000c66919062001e95565b905090565b600073ffffffffffffffffffffffffffffffffffffffff16600660009054906101000a900473ffffffffffffffffffffffffffffffffffffffff1673ffffffffffffffffffffffffffffffffffffffff16141562000d00576040517f08c379a000000000000000000000000000000000000000000000000000000000815260040162000cf790620021be565b60405180910390fd5b600660009054906101000a900473ffffffffffffffffffffffffffffffffffffffff1673ffffffffffffffffffffffffffffffffffffffff16630e7fc864336040518263ffffffff1660e01b815260040162000d5d91906200206f565b60206040518083038186803b15801562000d7657600080fd5b505afa15801562000d8b573d6000803e3d6000fd5b505050506040513d601f19601f8201168201806040525081019062000db1919062001d5b565b62000df3576040517f08c379a000000000000000000000000000000000000000000000000000000000815260040162000dea90620020d0565b60405180910390fd5b8047101562000e39576040517f08c379a000000000000000000000000000000000000000000000000000000000815260040162000e309062002114565b60405180910390fd5b62000e443362001a5e565b80600360003373ffffffffffffffffffffffffffffffffffffffff1673ffffffffffffffffffffffffffffffffffffffff1681526020019081526020016000205462000e91919062002268565b600360003373ffffffffffffffffffffffffffffffffffffffff1673ffffffffffffffffffffffffffffffffffffffff168152602001908152602001600020819055508060045462000ee4919062002268565b6004819055503373ffffffffffffffffffffffffffffffffffffffff166108fc829081150290604051600060405180830381858888f1935050505015801562000f31573d6000803e3d6000fd5b5062000f3c620017ce565b3373ffffffffffffffffffffffffffffffffffffffff167fd6b37be10b58108f696d9ed067fedad0bff7cb417ef4c28d2f8a25d6d83c98d5824260405162000f869291906200222a565b60405180910390a250565b62000f9c336200167e565b34600160003373ffffffffffffffffffffffffffffffffffffffff1673ffffffffffffffffffffffffffffffffffffffff1681526020019081526020016000205462000fe9919062002268565b600160003373ffffffffffffffffffffffffffffffffffffffff1673ffffffffffffffffffffffffffffffffffffffff16815260200190815260200160002081905550346002546200103c919062002268565b6002819055506200104c620017ce565b3373ffffffffffffffffffffffffffffffffffffffff167f90890809c654f11d6e72a28fa60149770a0d11ec6c92319d6ceb2bb0a4ea1a153442604051620010969291906200222a565b60405180910390a2565b620010aa62001bae565b73ffffffffffffffffffffffffffffffffffffffff16620010ca62000a89565b73ffffffffffffffffffffffffffffffffffffffff161462001123576040517f08c379a00000000000000000000000000000000000000000000000000000000081526004016200111a9062002158565b60405180910390fd5b600073ffffffffffffffffffffffffffffffffffffffff168173ffffffffffffffffffffffffffffffffffffffff16141562001196576040517f08c379a00000000000000000000000000000000000000000000000000000000081526004016200118d906200208c565b60405180910390fd5b620011a18162001bb6565b50565b6000600560009054906101000a900473ffffffffffffffffffffffffffffffffffffffff1673ffffffffffffffffffffffffffffffffffffffff1663df841eec6004546002546040518363ffffffff1660e01b8152600401620012099291906200222a565b60206040518083038186803b1580156200122257600080fd5b505afa15801562001237573d6000803e3d6000fd5b505050506040513d601f19601f820116820180604052508101906200125d919062001e95565b905090565b600060159054906101000a900460ff16806200128b5750600060149054906101000a900460ff16155b620012cd576040517f08c379a0000000000000000000000000000000000000000000000000000000008152600401620012c49062002136565b60405180910390fd5b60008060159054906101000a900460ff1615905080156200131f576001600060156101000a81548160ff0219169083151502179055506001600060146101000a81548160ff0219169083151502179055505b84600560006101000a81548173ffffffffffffffffffffffffffffffffffffffff021916908373ffffffffffffffffffffffffffffffffffffffff16021790555083600660006101000a81548173ffffffffffffffffffffffffffffffffffffffff021916908373ffffffffffffffffffffffffffffffffffffffff160217905550600073ffffffffffffffffffffffffffffffffffffffff168373ffffffffffffffffffffffffffffffffffffffff1614620013dd57826200140a565b604051620013eb9062001c7a565b604051809103906000f08015801562001408573d6000803e3d6000fd5b505b600760006101000a81548173ffffffffffffffffffffffffffffffffffffffff021916908373ffffffffffffffffffffffffffffffffffffffff160217905550600073ffffffffffffffffffffffffffffffffffffffff168273ffffffffffffffffffffffffffffffffffffffff1614620014865781620014b3565b604051620014949062001c7a565b604051809103906000f080158015620014b1573d6000803e3d6000fd5b505b600860006101000a81548173ffffffffffffffffffffffffffffffffffffffff021916908373ffffffffffffffffffffffffffffffffffffffff160217905550620014fd620017ce565b80156200151f5760008060156101000a81548160ff0219169083151502179055505b5050505050565b6200153062001bae565b73ffffffffffffffffffffffffffffffffffffffff166200155062000a89565b73ffffffffffffffffffffffffffffffffffffffff1614620015a9576040517f08c379a0000000000000000000000000000000000000000000000000000000008152600401620015a09062002158565b60405180910390fd5b600073ffffffffffffffffffffffffffffffffffffffff168173ffffffffffffffffffffffffffffffffffffffff1614156200161c576040517f08c379a000000000000000000000000000000000000000000000000000000000815260040162001613906200219c565b60405180910390fd5b80600660006101000a81548173ffffffffffffffffffffffffffffffffffffffff021916908373ffffffffffffffffffffffffffffffffffffffff16021790555050565b60016020528060005260406000206000915090505481565b60025481565b60006200168b8262000ab2565b90506000600160008473ffffffffffffffffffffffffffffffffffffffff1673ffffffffffffffffffffffffffffffffffffffff1681526020019081526020016000205482620016dc9190620022c5565b905081600160008573ffffffffffffffffffffffffffffffffffffffff1673ffffffffffffffffffffffffffffffffffffffff168152602001908152602001600020819055508060025462001732919062002268565b600281905550600760009054906101000a900473ffffffffffffffffffffffffffffffffffffffff1673ffffffffffffffffffffffffffffffffffffffff1663ed03b336846040518263ffffffff1660e01b81526004016200179591906200206f565b600060405180830381600087803b158015620017b057600080fd5b505af1158015620017c5573d6000803e3d6000fd5b50505050505050565b600760009054906101000a900473ffffffffffffffffffffffffffffffffffffffff1673ffffffffffffffffffffffffffffffffffffffff166334fcf437600560009054906101000a900473ffffffffffffffffffffffffffffffffffffffff1673ffffffffffffffffffffffffffffffffffffffff16637cd083316004546002546040518363ffffffff1660e01b81526004016200186f9291906200222a565b60206040518083038186803b1580156200188857600080fd5b505afa1580156200189d573d6000803e3d6000fd5b505050506040513d601f19601f82011682018060405250810190620018c3919062001e95565b6040518263ffffffff1660e01b8152600401620018e19190620021e0565b600060405180830381600087803b158015620018fc57600080fd5b505af115801562001911573d6000803e3d6000fd5b50505050600860009054906101000a900473ffffffffffffffffffffffffffffffffffffffff1673ffffffffffffffffffffffffffffffffffffffff166334fcf437600560009054906101000a900473ffffffffffffffffffffffffffffffffffffffff1673ffffffffffffffffffffffffffffffffffffffff1663df841eec6004546002546040518363ffffffff1660e01b8152600401620019b69291906200222a565b60206040518083038186803b158015620019cf57600080fd5b505afa158015620019e4573d6000803e3d6000fd5b505050506040513d601f19601f8201168201806040525081019062001a0a919062001e95565b6040518263ffffffff1660e01b815260040162001a289190620021e0565b600060405180830381600087803b15801562001a4357600080fd5b505af115801562001a58573d6000803e3d6000fd5b50505050565b600062001a6b82620007b9565b90506000600360008473ffffffffffffffffffffffffffffffffffffffff1673ffffffffffffffffffffffffffffffffffffffff168152602001908152602001600020548262001abc9190620022c5565b905081600360008573ffffffffffffffffffffffffffffffffffffffff1673ffffffffffffffffffffffffffffffffffffffff168152602001908152602001600020819055508060045462001b12919062002268565b600481905550600860009054906101000a900473ffffffffffffffffffffffffffffffffffffffff1673ffffffffffffffffffffffffffffffffffffffff1663ed03b336846040518263ffffffff1660e01b815260040162001b7591906200206f565b600060405180830381600087803b15801562001b9057600080fd5b505af115801562001ba5573d6000803e3d6000fd5b50505050505050565b600033905090565b60008060009054906101000a900473ffffffffffffffffffffffffffffffffffffffff169050816000806101000a81548173ffffffffffffffffffffffffffffffffffffffff021916908373ffffffffffffffffffffffffffffffffffffffff1602179055508173ffffffffffffffffffffffffffffffffffffffff168173ffffffffffffffffffffffffffffffffffffffff167f8be0079c531659141344cd1fd0a4f28419497f9722a3daafe3b4186f6b6457e060405160405180910390a35050565b610f7c806200274783390190565b60008135905062001c9981620026aa565b92915050565b60008151905062001cb081620026c4565b92915050565b60008135905062001cc781620026de565b92915050565b60008135905062001cde81620026f8565b92915050565b60008135905062001cf58162002712565b92915050565b60008135905062001d0c816200272c565b92915050565b60008151905062001d23816200272c565b92915050565b60006020828403121562001d425762001d41620023b5565b5b600062001d528482850162001c88565b91505092915050565b60006020828403121562001d745762001d73620023b5565b5b600062001d848482850162001c9f565b91505092915050565b60006020828403121562001da65762001da5620023b5565b5b600062001db68482850162001ccd565b91505092915050565b60006020828403121562001dd85762001dd7620023b5565b5b600062001de88482850162001ce4565b91505092915050565b6000806000806080858703121562001e0e5762001e0d620023b5565b5b600062001e1e8782880162001ce4565b945050602062001e318782880162001ccd565b935050604062001e448782880162001cb6565b925050606062001e578782880162001cb6565b91505092959194509250565b60006020828403121562001e7c5762001e7b620023b5565b5b600062001e8c8482850162001cfb565b91505092915050565b60006020828403121562001eae5762001ead620023b5565b5b600062001ebe8482850162001d12565b91505092915050565b62001ed28162002300565b82525050565b600062001ee760268362002257565b915062001ef482620023ba565b604082019050919050565b600062001f0e60318362002257565b915062001f1b8262002409565b604082019050919050565b600062001f35603e8362002257565b915062001f428262002458565b604082019050919050565b600062001f5c60338362002257565b915062001f6982620024a7565b604082019050919050565b600062001f8360368362002257565b915062001f9082620024f6565b604082019050919050565b600062001faa602e8362002257565b915062001fb78262002545565b604082019050919050565b600062001fd160208362002257565b915062001fde8262002594565b602082019050919050565b600062001ff8602f8362002257565b91506200200582620025bd565b604082019050919050565b60006200201f60338362002257565b91506200202c826200260c565b604082019050919050565b60006200204660258362002257565b915062002053826200265b565b604082019050919050565b62002069816200237c565b82525050565b600060208201905062002086600083018462001ec7565b92915050565b60006020820190508181036000830152620020a78162001ed8565b9050919050565b60006020820190508181036000830152620020c98162001eff565b9050919050565b60006020820190508181036000830152620020eb8162001f26565b9050919050565b600060208201905081810360008301526200210d8162001f4d565b9050919050565b600060208201905081810360008301526200212f8162001f74565b9050919050565b60006020820190508181036000830152620021518162001f9b565b9050919050565b60006020820190508181036000830152620021738162001fc2565b9050919050565b60006020820190508181036000830152620021958162001fe9565b9050919050565b60006020820190508181036000830152620021b78162002010565b9050919050565b60006020820190508181036000830152620021d98162002037565b9050919050565b6000602082019050620021f760008301846200205e565b92915050565b60006040820190506200221460008301856200205e565b62002223602083018462001ec7565b9392505050565b60006040820190506200224160008301856200205e565b6200225060208301846200205e565b9392505050565b600082825260208201905092915050565b600062002275826200237c565b915062002282836200237c565b9250827fffffffffffffffffffffffffffffffffffffffffffffffffffffffffffffffff03821115620022ba57620022b962002386565b5b828201905092915050565b6000620022d2826200237c565b9150620022df836200237c565b925082821015620022f557620022f462002386565b5b828203905092915050565b60006200230d826200235c565b9050919050565b60008115159050919050565b60006200232d8262002300565b9050919050565b6000620023418262002300565b9050919050565b6000620023558262002300565b9050919050565b600073ffffffffffffffffffffffffffffffffffffffff82169050919050565b6000819050919050565b7f4e487b7100000000000000000000000000000000000000000000000000000000600052601160045260246000fd5b600080fd5b7f4f776e61626c653a206e6577206f776e657220697320746865207a65726f206160008201527f6464726573730000000000000000000000000000000000000000000000000000602082015250565b7f5468652072617465732063616c63756c61746f722063616e6e6f74207365742060008201527f746f2061206e756c6c2061646472657373000000000000000000000000000000602082015250565b7f4f6e6c7920746865206163636f756e747320617574686f72697365642062792060008201527f626f72726f77657273207265676973747279206d617920626f72726f772e0000602082015250565b7f596f752061726520747279696e6720746f207769746864726177206d6f72652060008201527f7468617420776173206465706f73697465642e00000000000000000000000000602082015250565b7f5468657265206973206e6f20656e6f7567682066756e647320696e207468652060008201527f706f6f6c20746f2066756e6420746865206c6f616e2e00000000000000000000602082015250565b7f496e697469616c697a61626c653a20636f6e747261637420697320616c72656160008201527f647920696e697469616c697a6564000000000000000000000000000000000000602082015250565b7f4f776e61626c653a2063616c6c6572206973206e6f7420746865206f776e6572600082015250565b7f596f752061726520747279696e6720746f207265706179206d6f72652074686160008201527f742077617320626f72726f7765642e0000000000000000000000000000000000602082015250565b7f54686520626f72726f776572732072656769737472792063616e6e6f7420736560008201527f7420746f2061206e756c6c206164647265737300000000000000000000000000602082015250565b7f426f72726f77657273207265676973747279206973206e6f7420636f6e66696760008201527f757265642e000000000000000000000000000000000000000000000000000000602082015250565b620026b58162002300565b8114620026c157600080fd5b50565b620026cf8162002314565b8114620026db57600080fd5b50565b620026e98162002320565b8114620026f557600080fd5b50565b620027038162002334565b81146200270f57600080fd5b50565b6200271d8162002348565b81146200272957600080fd5b50565b62002737816200237c565b81146200274357600080fd5b5056fe608060405242600155670de0b6b3a764000060025560015460035534801561002657600080fd5b5061004361003861004860201b60201c565b61005060201b60201c565b610114565b600033905090565b60008060009054906101000a900473ffffffffffffffffffffffffffffffffffffffff169050816000806101000a81548173ffffffffffffffffffffffffffffffffffffffff021916908373ffffffffffffffffffffffffffffffffffffffff1602179055508173ffffffffffffffffffffffffffffffffffffffff168173ffffffffffffffffffffffffffffffffffffffff167f8be0079c531659141344cd1fd0a4f28419497f9722a3daafe3b4186f6b6457e060405160405180910390a35050565b610e59806101236000396000f3fe608060405234801561001057600080fd5b50600436106100a95760003560e01c806381045ead1161007157806381045ead1461012e5780638da5cb5b1461014c578063966da8891461016a578063be9a65551461019a578063ed03b336146101b8578063f2fde38b146101d4576100a9565b80632986c0e5146100ae5780632c4e722e146100cc57806334fcf437146100ea578063715018a614610106578063798d1df714610110575b600080fd5b6100b66101f0565b6040516100c39190610b6c565b60405180910390f35b6100d46101f6565b6040516100e19190610b6c565b60405180910390f35b61010460048036038101906100ff9190610a40565b6101fc565b005b61010e6102c3565b005b61011861034b565b6040516101259190610b6c565b60405180910390f35b610136610351565b6040516101439190610b6c565b60405180910390f35b6101546103ac565b6040516101619190610b11565b60405180910390f35b610184600480360381019061017f9190610a6d565b6103d5565b6040516101919190610b6c565b60405180910390f35b6101a26104a1565b6040516101af9190610b6c565b60405180910390f35b6101d260048036038101906101cd9190610a13565b6104a7565b005b6101ee60048036038101906101e99190610a13565b610589565b005b60025481565b60065481565b610204610681565b73ffffffffffffffffffffffffffffffffffffffff166102226103ac565b73ffffffffffffffffffffffffffffffffffffffff1614610278576040517f08c379a000000000000000000000000000000000000000000000000000000000815260040161026f90610b4c565b60405180910390fd5b610280610689565b806006819055507fe65c987b2e4668e09ba867026921588005b2b2063607a1e7e7d91683c8f91b7b6006546040516102b89190610b6c565b60405180910390a150565b6102cb610681565b73ffffffffffffffffffffffffffffffffffffffff166102e96103ac565b73ffffffffffffffffffffffffffffffffffffffff161461033f576040517f08c379a000000000000000000000000000000000000000000000000000000000815260040161033690610b4c565b60405180910390fd5b61034960006106bc565b565b60035481565b600080600354426103629190610c79565b905060008111156103a25761039a61039561037c83610780565b6103876002546107c7565b6107e090919063ffffffff16565b610830565b9150506103a9565b6002549150505b90565b60008060009054906101000a900473ffffffffffffffffffffffffffffffffffffffff16905090565b6000806000600560008573ffffffffffffffffffffffffffffffffffffffff1673ffffffffffffffffffffffffffffffffffffffff1681526020019081526020016000205414610440576004600061042c85610869565b81526020019081526020016000205461044a565b670de0b6b3a76400005b905061049861049361045b836107c7565b61048561046e610469610351565b6107c7565b610477896107c7565b6107e090919063ffffffff16565b61090190919063ffffffff16565b610830565b91505092915050565b60015481565b6104af610681565b73ffffffffffffffffffffffffffffffffffffffff166104cd6103ac565b73ffffffffffffffffffffffffffffffffffffffff1614610523576040517f08c379a000000000000000000000000000000000000000000000000000000000815260040161051a90610b4c565b60405180910390fd5b42600560008373ffffffffffffffffffffffffffffffffffffffff1673ffffffffffffffffffffffffffffffffffffffff1681526020019081526020016000208190555061056f610351565b600460004281526020019081526020016000208190555050565b610591610681565b73ffffffffffffffffffffffffffffffffffffffff166105af6103ac565b73ffffffffffffffffffffffffffffffffffffffff1614610605576040517f08c379a00000000000000000000000000000000000000000000000000000000081526004016105fc90610b4c565b60405180910390fd5b600073ffffffffffffffffffffffffffffffffffffffff168173ffffffffffffffffffffffffffffffffffffffff161415610675576040517f08c379a000000000000000000000000000000000000000000000000000000000815260040161066c90610b2c565b60405180910390fd5b61067e816106bc565b50565b600033905090565b600254600460006003548152602001908152602001600020819055506106ad610351565b60028190555042600381905550565b60008060009054906101000a900473ffffffffffffffffffffffffffffffffffffffff169050816000806101000a81548173ffffffffffffffffffffffffffffffffffffffff021916908373ffffffffffffffffffffffffffffffffffffffff1602179055508173ffffffffffffffffffffffffffffffffffffffff168173ffffffffffffffffffffffffffffffffffffffff167f8be0079c531659141344cd1fd0a4f28419497f9722a3daafe3b4186f6b6457e060405160405180910390a35050565b60006107c08261078e61094a565b6301e1338061079e6006546107c7565b6107a89190610bee565b6107b29190610b98565b61095e90919063ffffffff16565b9050919050565b6000633b9aca00826107d99190610c1f565b9050919050565b60006b033b2e3c9fd0803ce800000082846107fb9190610c1f565b60026b033b2e3c9fd0803ce80000006108149190610bee565b61081e9190610b98565b6108289190610bee565b905092915050565b6000806002633b9aca006108449190610bee565b9050633b9aca0083826108579190610b98565b6108619190610bee565b915050919050565b600080600560008473ffffffffffffffffffffffffffffffffffffffff1673ffffffffffffffffffffffffffffffffffffffff16815260200190815260200160002054146108f657600560008373ffffffffffffffffffffffffffffffffffffffff1673ffffffffffffffffffffffffffffffffffffffff168152602001908152602001600020546108fa565b6001545b9050919050565b6000806002836109119190610bee565b9050826b033b2e3c9fd0803ce80000008561092c9190610c1f565b826109379190610b98565b6109419190610bee565b91505092915050565b60006b033b2e3c9fd0803ce8000000905090565b60008060028361096e9190610ce9565b1415610986576b033b2e3c9fd0803ce8000000610988565b825b90506002826109979190610bee565b91505b600082146109e3576109ac83846107e0565b925060006002836109bd9190610ce9565b146109cf576109cc81846107e0565b90505b6002826109dc9190610bee565b915061099a565b92915050565b6000813590506109f881610df5565b92915050565b600081359050610a0d81610e0c565b92915050565b600060208284031215610a2957610a28610d78565b5b6000610a37848285016109e9565b91505092915050565b600060208284031215610a5657610a55610d78565b5b6000610a64848285016109fe565b91505092915050565b60008060408385031215610a8457610a83610d78565b5b6000610a92858286016109fe565b9250506020610aa3858286016109e9565b9150509250929050565b610ab681610cad565b82525050565b6000610ac9602683610b87565b9150610ad482610d7d565b604082019050919050565b6000610aec602083610b87565b9150610af782610dcc565b602082019050919050565b610b0b81610cdf565b82525050565b6000602082019050610b266000830184610aad565b92915050565b60006020820190508181036000830152610b4581610abc565b9050919050565b60006020820190508181036000830152610b6581610adf565b9050919050565b6000602082019050610b816000830184610b02565b92915050565b600082825260208201905092915050565b6000610ba382610cdf565b9150610bae83610cdf565b9250827fffffffffffffffffffffffffffffffffffffffffffffffffffffffffffffffff03821115610be357610be2610d1a565b5b828201905092915050565b6000610bf982610cdf565b9150610c0483610cdf565b925082610c1457610c13610d49565b5b828204905092915050565b6000610c2a82610cdf565b9150610c3583610cdf565b9250817fffffffffffffffffffffffffffffffffffffffffffffffffffffffffffffffff0483118215151615610c6e57610c6d610d1a565b5b828202905092915050565b6000610c8482610cdf565b9150610c8f83610cdf565b925082821015610ca257610ca1610d1a565b5b828203905092915050565b6000610cb882610cbf565b9050919050565b600073ffffffffffffffffffffffffffffffffffffffff82169050919050565b6000819050919050565b6000610cf482610cdf565b9150610cff83610cdf565b925082610d0f57610d0e610d49565b5b828206905092915050565b7f4e487b7100000000000000000000000000000000000000000000000000000000600052601160045260246000fd5b7f4e487b7100000000000000000000000000000000000000000000000000000000600052601260045260246000fd5b600080fd5b7f4f776e61626c653a206e6577206f776e657220697320746865207a65726f206160008201527f6464726573730000000000000000000000000000000000000000000000000000602082015250565b7f4f776e61626c653a2063616c6c6572206973206e6f7420746865206f776e6572600082015250565b610dfe81610cad565b8114610e0957600080fd5b50565b610e1581610cdf565b8114610e2057600080fd5b5056fea26469706673582212205b1b31ad29fc059b359f66b12e6898a01ebd3e80843392d12a973cff88613fde64736f6c63430008060033a2646970667358221220a5cad0def08daf80b4b9794bc8c6d14cdd65bd3bb1e10f3a051d315dc214b89864736f6c63430008060033",
  "immutableReferences": {},
  "source": "// SPDX-License-Identifier: UNLICENSED\npragma solidity ^0.8.2;\n\nimport \"@openzeppelin/contracts/access/Ownable.sol\";\nimport \"@openzeppelin/contracts/proxy/utils/Initializable.sol\";\nimport \"./CompoundingIndex.sol\";\nimport \"./IRatesCalculator.sol\";\nimport \"./IBorrowersRegistry.sol\";\n\n/**\n * @title Pool\n * @dev Contract allowing user to deposit and borrow funds from a single pot\n * Depositors are rewarded with the interest rates collected from borrowers.\n * Rates are compounded every second and getters always return the current deposit and borrowing balance.\n * The interest rates calculation is delegated to the external calculator contract.\n */\ncontract Pool is Ownable, Initializable {\n\n    mapping(address => uint256) public deposits;\n    uint256 public totalDeposited;\n\n    mapping(address => uint256) public borrowed;\n    uint256 public totalBorrowed;\n\n    IRatesCalculator ratesCalculator;\n    IBorrowersRegistry borrowersRegistry;\n\n    CompoundingIndex depositIndex;\n    CompoundingIndex borrowIndex;\n\n\n    function initialize(\n      IRatesCalculator _ratesCalculator,\n      IBorrowersRegistry _borrowersRegistry,\n      CompoundingIndex _depositIndex,\n      CompoundingIndex _borrowIndex\n    )  initializer public {\n\n      ratesCalculator = _ratesCalculator;\n      borrowersRegistry = _borrowersRegistry;\n\n      depositIndex = address(_depositIndex) == address(0) ? new CompoundingIndex() : _depositIndex;\n      borrowIndex = address(_borrowIndex) == address(0) ? new CompoundingIndex() : _borrowIndex;\n\n      updateRates();\n    }\n\n\n    /* ========== SETTERS ========== */\n\n\n    /**\n     * Sets the new rate calculator.\n     * The calculator is an external contract that contains the logic for calculating deposit and borrowing rates.\n     * Only the owner of the Contract can execute this function.\n     * @dev _ratesCalculator the address of rates calculator\n    **/\n    function setRatesCalculator(IRatesCalculator _ratesCalculator) external onlyOwner {\n        require(address(_ratesCalculator) != address(0), \"The rates calculator cannot set to a null address\");\n\n        ratesCalculator = _ratesCalculator;\n        updateRates();\n    }\n\n\n    /**\n     * Sets the new borrowers registry contract.\n     * The borrowers registry decides if an account can borrow funds.\n     * Only the owner of the Contract can execute this function.\n     * @dev _borrowersRegistry the address of borrowers registry\n    **/\n    function setBorrowersRegistry(IBorrowersRegistry _borrowersRegistry) external onlyOwner {\n      require(address(_borrowersRegistry) != address(0), \"The borrowers registry cannot set to a null address\");\n\n      borrowersRegistry = _borrowersRegistry;\n    }\n\n\n    /* ========== MUTATIVE FUNCTIONS ========== */\n\n\n    /**\n     * Deposits the message value\n     * It updates user deposited balance, total deposited and rates\n    **/\n    function deposit() payable virtual external {\n        accumulateDepositInterests(msg.sender);\n\n        deposits[msg.sender] = deposits[msg.sender] + msg.value;\n        totalDeposited = totalDeposited + msg.value;\n\n        updateRates();\n\n        emit Deposit(msg.sender, msg.value, block.timestamp);\n    }\n\n\n    /**\n     * Withdraws selected amount from the user deposits\n     * @dev _amount the amount to be withdrawn\n    **/\n    function withdraw(uint256 _amount) external {\n        accumulateDepositInterests(msg.sender);\n\n        require(deposits[msg.sender] >= _amount, \"You are trying to withdraw more that was deposited.\");\n\n        deposits[msg.sender] = deposits[msg.sender] - _amount;\n        totalDeposited = totalDeposited - _amount;\n\n        payable(msg.sender).transfer(_amount);\n\n        updateRates();\n\n        emit Withdrawal(msg.sender, _amount, block.timestamp);\n    }\n\n\n    /**\n     * Borrows the specified amount\n     * It updates user borrowed balance, total borrowed amount and rates\n     * @dev _amount the amount to be borrowed\n    **/\n    function borrow(uint256 _amount) payable external canBorrow {\n        require(address(this).balance >= _amount, \"There is no enough funds in the pool to fund the loan.\");\n\n        accumulateBorrowingInterests(msg.sender);\n\n        borrowed[msg.sender] = borrowed[msg.sender] + _amount;\n        totalBorrowed = totalBorrowed + _amount;\n\n        payable(msg.sender).transfer(_amount);\n\n        updateRates();\n\n        emit Borrowing(msg.sender, _amount, block.timestamp);\n    }\n\n    /**\n     * Repays the message value\n     * It updates user borrowed balance, total borrowed amount and rates\n    **/\n    function repay() payable external {\n        accumulateBorrowingInterests(msg.sender);\n\n        require(getBorrowed(msg.sender) >= msg.value, \"You are trying to repay more that was borrowed.\");\n\n        borrowed[msg.sender] = borrowed[msg.sender] - msg.value;\n        totalBorrowed = totalBorrowed - msg.value;\n\n        updateRates();\n\n        emit Repayment(msg.sender, msg.value, block.timestamp);\n    }\n\n\n    /* ========== VIEW FUNCTIONS ========== */\n\n\n    /**\n     * Returns the current borrowed amount for the given user\n     * The value includes the interest rates owned at the current moment\n     * @dev _user the address of queried borrower\n    **/\n    function getBorrowed(address _user) public view returns(uint256) {\n        return borrowIndex.getIndexedValue(borrowed[_user], _user);\n    }\n\n\n    /**\n     * Returns the current deposited amount for the given user\n     * The value includes the interest rates earned at the current moment\n     * @dev _user the address of queried depositor\n    **/\n    function getDeposits(address user) public view returns(uint256) {\n      return depositIndex.getIndexedValue(deposits[user], user);\n    }\n\n\n    /**\n     * Returns the current interest rate for deposits\n    **/\n    function getDepositRate() public view returns(uint256) {\n      return ratesCalculator.calculateDepositRate(totalBorrowed, totalDeposited);\n    }\n\n\n    /**\n     * Returns the current interest rate for borrowings\n    **/\n    function getBorrowingRate() public view returns(uint256) {\n      return ratesCalculator.calculateBorrowingRate(totalBorrowed, totalDeposited);\n    }\n\n\n    /* ========== INTERNAL FUNCTIONS ========== */\n\n\n    function updateRates() internal {\n      depositIndex.setRate(ratesCalculator.calculateDepositRate(totalBorrowed, totalDeposited));\n      borrowIndex.setRate(ratesCalculator.calculateBorrowingRate(totalBorrowed, totalDeposited));\n    }\n\n\n    function accumulateDepositInterests(address user) internal {\n        uint256 depositedWithInterests = getDeposits(user);\n        uint256 interests = depositedWithInterests - deposits[user];\n        deposits[user] = depositedWithInterests;\n        totalDeposited = totalDeposited + interests;\n        depositIndex.updateUser(user);\n    }\n\n\n    function accumulateBorrowingInterests(address user) internal {\n        uint256 borrowedWithInterests = getBorrowed(user);\n        uint256 interests = borrowedWithInterests - borrowed[user];\n        borrowed[user] = borrowedWithInterests;\n        totalBorrowed = totalBorrowed + interests;\n        borrowIndex.updateUser(user);\n    }\n\n\n    /* ========== MODIFIERS ========== */\n\n    modifier canBorrow() {\n      require(address(borrowersRegistry) != address(0), \"Borrowers registry is not configured.\");\n      require(borrowersRegistry.canBorrow(msg.sender), \"Only the accounts authorised by borrowers registry may borrow.\");\n      _;\n    }\n\n\n    /* ========== EVENTS ========== */\n\n\n    /**\n      * @dev emitted after the user deposits funds\n      * @param user the address performing the deposit\n      * @param value the amount deposited\n      * @param timestamp of the deposit\n    **/\n    event Deposit(address indexed user, uint256 value, uint256 timestamp);\n\n    /**\n      * @dev emitted after the user withdraws funds\n      * @param user the address performing the withdrawal\n      * @param value the amount withdrawn\n      * @param timestamp of the withdrawal\n    **/\n    event Withdrawal(address indexed user, uint256 value, uint256 timestamp);\n\n    /**\n      * @dev emitted after the user borrows funds\n      * @param user the address that borrows\n      * @param value the amount borrowed\n      * @param timestamp of the borrowing\n    **/\n    event Borrowing(address indexed user, uint256 value, uint256 timestamp);\n\n    /**\n      * @dev emitted after the user repays debt\n      * @param user the address that repays\n      * @param value the amount repaid\n      * @param timestamp of the repayment\n    **/\n    event Repayment(address indexed user, uint256 value, uint256 timestamp);\n\n}\n",
  "sourcePath": "/Users/apple/Redstone/smart-broker/contracts/Pool.sol",
  "compiler": {
    "name": "solc",
    "version": "0.8.6+commit.11564f7e.Emscripten.clang"
  },
  "schemaVersion": "3.4.2",
  "updatedAt": "2021-08-05T13:09:52.916Z",
  "devdoc": {
    "details": "Contract allowing user to deposit and borrow funds from a single pot Depositors are rewarded with the interest rates collected from borrowers. Rates are compounded every second and getters always return the current deposit and borrowing balance. The interest rates calculation is delegated to the external calculator contract.",
    "events": {
      "Borrowing(address,uint256,uint256)": {
        "details": "emitted after the user borrows funds",
        "params": {
          "timestamp": "of the borrowing*",
          "user": "the address that borrows",
          "value": "the amount borrowed"
        }
      },
      "Deposit(address,uint256,uint256)": {
        "details": "emitted after the user deposits funds",
        "params": {
          "timestamp": "of the deposit*",
          "user": "the address performing the deposit",
          "value": "the amount deposited"
        }
      },
      "Repayment(address,uint256,uint256)": {
        "details": "emitted after the user repays debt",
        "params": {
          "timestamp": "of the repayment*",
          "user": "the address that repays",
          "value": "the amount repaid"
        }
      },
      "Withdrawal(address,uint256,uint256)": {
        "details": "emitted after the user withdraws funds",
        "params": {
          "timestamp": "of the withdrawal*",
          "user": "the address performing the withdrawal",
          "value": "the amount withdrawn"
        }
      }
    },
    "kind": "dev",
    "methods": {
      "borrow(uint256)": {
        "details": "_amount the amount to be borrowed*"
      },
      "getBorrowed(address)": {
        "details": "_user the address of queried borrower*"
      },
      "getDeposits(address)": {
        "details": "_user the address of queried depositor*"
      },
      "owner()": {
        "details": "Returns the address of the current owner."
      },
      "renounceOwnership()": {
        "details": "Leaves the contract without owner. It will not be possible to call `onlyOwner` functions anymore. Can only be called by the current owner. NOTE: Renouncing ownership will leave the contract without an owner, thereby removing any functionality that is only available to the owner."
      },
      "setBorrowersRegistry(address)": {
        "details": "_borrowersRegistry the address of borrowers registry*"
      },
      "setRatesCalculator(address)": {
        "details": "_ratesCalculator the address of rates calculator*"
      },
      "transferOwnership(address)": {
        "details": "Transfers ownership of the contract to a new account (`newOwner`). Can only be called by the current owner."
      },
      "withdraw(uint256)": {
        "details": "_amount the amount to be withdrawn*"
      }
    },
    "title": "Pool",
    "version": 1
  },
  "userdoc": {
    "kind": "user",
    "methods": {
      "borrow(uint256)": {
        "notice": "Borrows the specified amount It updates user borrowed balance, total borrowed amount and rates"
      },
      "deposit()": {
        "notice": "Deposits the message value It updates user deposited balance, total deposited and rates*"
      },
      "getBorrowed(address)": {
        "notice": "Returns the current borrowed amount for the given user The value includes the interest rates owned at the current moment"
      },
      "getBorrowingRate()": {
        "notice": "Returns the current interest rate for borrowings*"
      },
      "getDepositRate()": {
        "notice": "Returns the current interest rate for deposits*"
      },
      "getDeposits(address)": {
        "notice": "Returns the current deposited amount for the given user The value includes the interest rates earned at the current moment"
      },
      "repay()": {
        "notice": "Repays the message value It updates user borrowed balance, total borrowed amount and rates*"
      },
      "setBorrowersRegistry(address)": {
        "notice": "Sets the new borrowers registry contract. The borrowers registry decides if an account can borrow funds. Only the owner of the Contract can execute this function."
      },
      "setRatesCalculator(address)": {
        "notice": "Sets the new rate calculator. The calculator is an external contract that contains the logic for calculating deposit and borrowing rates. Only the owner of the Contract can execute this function."
      },
      "withdraw(uint256)": {
        "notice": "Withdraws selected amount from the user deposits"
      }
    },
    "version": 1
  }
}