{
  "contractName": "SimpleAssetsExchange",
  "abi": [
    {
      "anonymous": false,
      "inputs": [
        {
          "indexed": true,
          "internalType": "address",
          "name": "previousOwner",
          "type": "address"
        },
        {
          "indexed": true,
          "internalType": "address",
          "name": "newOwner",
          "type": "address"
        }
      ],
      "name": "OwnershipTransferred",
      "type": "event"
    },
    {
      "anonymous": false,
      "inputs": [
        {
          "indexed": true,
          "internalType": "address",
          "name": "priceProvider",
          "type": "address"
        }
      ],
      "name": "PriceProviderChanged",
      "type": "event"
    },
    {
      "inputs": [],
      "name": "owner",
      "outputs": [
        {
          "internalType": "address",
          "name": "",
          "type": "address"
        }
      ],
      "stateMutability": "view",
      "type": "function"
    },
    {
      "inputs": [],
      "name": "priceProvider",
      "outputs": [
        {
          "internalType": "contract IPriceProvider",
          "name": "",
          "type": "address"
        }
      ],
      "stateMutability": "view",
      "type": "function"
    },
    {
      "inputs": [],
      "name": "renounceOwnership",
      "outputs": [],
      "stateMutability": "nonpayable",
      "type": "function"
    },
    {
      "inputs": [
        {
          "internalType": "address",
          "name": "newOwner",
          "type": "address"
        }
      ],
      "name": "transferOwnership",
      "outputs": [],
      "stateMutability": "nonpayable",
      "type": "function"
    },
    {
      "inputs": [
        {
          "internalType": "contract IPriceProvider",
          "name": "_priceProvider",
          "type": "address"
        }
      ],
      "name": "setPriceProvider",
      "outputs": [],
      "stateMutability": "nonpayable",
      "type": "function"
    },
    {
      "inputs": [
        {
          "internalType": "bytes32",
          "name": "_asset",
          "type": "bytes32"
        },
        {
          "internalType": "uint256",
          "name": "_amount",
          "type": "uint256"
        }
      ],
      "name": "buyAsset",
      "outputs": [],
      "stateMutability": "payable",
      "type": "function"
    },
    {
      "inputs": [
        {
          "internalType": "bytes32",
          "name": "_asset",
          "type": "bytes32"
        },
        {
          "internalType": "uint256",
          "name": "_amount",
          "type": "uint256"
        }
      ],
      "name": "sellAsset",
      "outputs": [],
      "stateMutability": "payable",
      "type": "function"
    },
    {
      "inputs": [
        {
          "internalType": "address",
          "name": "_user",
          "type": "address"
        },
        {
          "internalType": "bytes32",
          "name": "_asset",
          "type": "bytes32"
        }
      ],
      "name": "getBalance",
      "outputs": [
        {
          "internalType": "uint256",
          "name": "",
          "type": "uint256"
        }
      ],
      "stateMutability": "view",
      "type": "function"
    }
  ],
  "bytecode": "0x608060405234801561001057600080fd5b5061002d61002261003260201b60201c565b61003a60201b60201c565b6100fe565b600033905090565b60008060009054906101000a900473ffffffffffffffffffffffffffffffffffffffff169050816000806101000a81548173ffffffffffffffffffffffffffffffffffffffff021916908373ffffffffffffffffffffffffffffffffffffffff1602179055508173ffffffffffffffffffffffffffffffffffffffff168173ffffffffffffffffffffffffffffffffffffffff167f8be0079c531659141344cd1fd0a4f28419497f9722a3daafe3b4186f6b6457e060405160405180910390a35050565b61132d8061010d6000396000f3fe60806040526004361061007b5760003560e01c80638da5cb5b1161004e5780638da5cb5b146100f8578063b888879e14610123578063c79d5ec51461014e578063f2fde38b1461018b5761007b565b80631b98d07e14610080578063372aa2241461009c5780635d8874e9146100c5578063715018a6146100e1575b600080fd5b61009a60048036038101906100959190610c14565b6101b4565b005b3480156100a857600080fd5b506100c360048036038101906100be9190610c54565b610453565b005b6100df60048036038101906100da9190610c14565b6105e8565b005b3480156100ed57600080fd5b506100f6610848565b005b34801561010457600080fd5b5061010d6108d0565b60405161011a9190610ddf565b60405180910390f35b34801561012f57600080fd5b506101386108f9565b6040516101459190610e15565b60405180910390f35b34801561015a57600080fd5b5061017560048036038101906101709190610bd4565b61091f565b6040516101829190610f10565b60405180910390f35b34801561019757600080fd5b506101b260048036038101906101ad9190610ba7565b61097a565b005b80600160003373ffffffffffffffffffffffffffffffffffffffff1673ffffffffffffffffffffffffffffffffffffffff1681526020019081526020016000206000848152602001908152602001600020541015610247576040517f08c379a000000000000000000000000000000000000000000000000000000000815260040161023e90610ef0565b60405180910390fd5b6000670de0b6b3a7640000600260009054906101000a900473ffffffffffffffffffffffffffffffffffffffff1673ffffffffffffffffffffffffffffffffffffffff166331d98b3f856040518263ffffffff1660e01b81526004016102ad9190610dfa565b60206040518083038186803b1580156102c557600080fd5b505afa1580156102d9573d6000803e3d6000fd5b505050506040513d601f19601f820116820180604052508101906102fd9190610c81565b836103089190610fc3565b6103129190610f92565b905060008111610357576040517f08c379a000000000000000000000000000000000000000000000000000000000815260040161034e90610e30565b60405180910390fd5b81600160003373ffffffffffffffffffffffffffffffffffffffff1673ffffffffffffffffffffffffffffffffffffffff1681526020019081526020016000206000858152602001908152602001600020546103b3919061101d565b600160003373ffffffffffffffffffffffffffffffffffffffff1673ffffffffffffffffffffffffffffffffffffffff1681526020019081526020016000206000858152602001908152602001600020819055503373ffffffffffffffffffffffffffffffffffffffff166108fc829081150290604051600060405180830381858888f1935050505015801561044d573d6000803e3d6000fd5b50505050565b61045b610a72565b73ffffffffffffffffffffffffffffffffffffffff166104796108d0565b73ffffffffffffffffffffffffffffffffffffffff16146104cf576040517f08c379a00000000000000000000000000000000000000000000000000000000081526004016104c690610eb0565b60405180910390fd5b600073ffffffffffffffffffffffffffffffffffffffff168173ffffffffffffffffffffffffffffffffffffffff16141561053f576040517f08c379a000000000000000000000000000000000000000000000000000000000815260040161053690610ed0565b60405180910390fd5b80600260006101000a81548173ffffffffffffffffffffffffffffffffffffffff021916908373ffffffffffffffffffffffffffffffffffffffff160217905550600260009054906101000a900473ffffffffffffffffffffffffffffffffffffffff1673ffffffffffffffffffffffffffffffffffffffff167f870d1be9296809b822d3c5675e39bb3b6a2e0b9f5fc37df12c8b87a04fb89bbb60405160405180910390a250565b6000670de0b6b3a7640000600260009054906101000a900473ffffffffffffffffffffffffffffffffffffffff1673ffffffffffffffffffffffffffffffffffffffff166331d98b3f856040518263ffffffff1660e01b815260040161064e9190610dfa565b60206040518083038186803b15801561066657600080fd5b505afa15801561067a573d6000803e3d6000fd5b505050506040513d601f19601f8201168201806040525081019061069e9190610c81565b836106a99190610fc3565b6106b39190610f92565b9050600081116106f8576040517f08c379a00000000000000000000000000000000000000000000000000000000081526004016106ef90610e90565b60405180910390fd5b8034101561073b576040517f08c379a000000000000000000000000000000000000000000000000000000000815260040161073290610e70565b60405180910390fd5b81600160003373ffffffffffffffffffffffffffffffffffffffff1673ffffffffffffffffffffffffffffffffffffffff1681526020019081526020016000206000858152602001908152602001600020546107979190610f3c565b600160003373ffffffffffffffffffffffffffffffffffffffff1673ffffffffffffffffffffffffffffffffffffffff168152602001908152602001600020600085815260200190815260200160002081905550600081346107f9919061101d565b90503373ffffffffffffffffffffffffffffffffffffffff166108fc829081150290604051600060405180830381858888f19350505050158015610841573d6000803e3d6000fd5b5050505050565b610850610a72565b73ffffffffffffffffffffffffffffffffffffffff1661086e6108d0565b73ffffffffffffffffffffffffffffffffffffffff16146108c4576040517f08c379a00000000000000000000000000000000000000000000000000000000081526004016108bb90610eb0565b60405180910390fd5b6108ce6000610a7a565b565b60008060009054906101000a900473ffffffffffffffffffffffffffffffffffffffff16905090565b600260009054906101000a900473ffffffffffffffffffffffffffffffffffffffff1681565b6000600160008473ffffffffffffffffffffffffffffffffffffffff1673ffffffffffffffffffffffffffffffffffffffff168152602001908152602001600020600083815260200190815260200160002054905092915050565b610982610a72565b73ffffffffffffffffffffffffffffffffffffffff166109a06108d0565b73ffffffffffffffffffffffffffffffffffffffff16146109f6576040517f08c379a00000000000000000000000000000000000000000000000000000000081526004016109ed90610eb0565b60405180910390fd5b600073ffffffffffffffffffffffffffffffffffffffff168173ffffffffffffffffffffffffffffffffffffffff161415610a66576040517f08c379a0000000000000000000000000000000000000000000000000000000008152600401610a5d90610e50565b60405180910390fd5b610a6f81610a7a565b50565b600033905090565b60008060009054906101000a900473ffffffffffffffffffffffffffffffffffffffff169050816000806101000a81548173ffffffffffffffffffffffffffffffffffffffff021916908373ffffffffffffffffffffffffffffffffffffffff1602179055508173ffffffffffffffffffffffffffffffffffffffff168173ffffffffffffffffffffffffffffffffffffffff167f8be0079c531659141344cd1fd0a4f28419497f9722a3daafe3b4186f6b6457e060405160405180910390a35050565b600081359050610b4d8161129b565b92915050565b600081359050610b62816112b2565b92915050565b600081359050610b77816112c9565b92915050565b600081359050610b8c816112e0565b92915050565b600081519050610ba1816112e0565b92915050565b600060208284031215610bbd57610bbc61112b565b5b6000610bcb84828501610b3e565b91505092915050565b60008060408385031215610beb57610bea61112b565b5b6000610bf985828601610b3e565b9250506020610c0a85828601610b53565b9150509250929050565b60008060408385031215610c2b57610c2a61112b565b5b6000610c3985828601610b53565b9250506020610c4a85828601610b7d565b9150509250929050565b600060208284031215610c6a57610c6961112b565b5b6000610c7884828501610b68565b91505092915050565b600060208284031215610c9757610c9661112b565b5b6000610ca584828501610b92565b91505092915050565b610cb781611051565b82525050565b610cc681611063565b82525050565b610cd5816110a9565b82525050565b6000610ce8601783610f2b565b9150610cf382611130565b602082019050919050565b6000610d0b602683610f2b565b9150610d1682611159565b604082019050919050565b6000610d2e601983610f2b565b9150610d39826111a8565b602082019050919050565b6000610d51601683610f2b565b9150610d5c826111d1565b602082019050919050565b6000610d74602083610f2b565b9150610d7f826111fa565b602082019050919050565b6000610d97602f83610f2b565b9150610da282611223565b604082019050919050565b6000610dba601983610f2b565b9150610dc582611272565b602082019050919050565b610dd98161109f565b82525050565b6000602082019050610df46000830184610cae565b92915050565b6000602082019050610e0f6000830184610cbd565b92915050565b6000602082019050610e2a6000830184610ccc565b92915050565b60006020820190508181036000830152610e4981610cdb565b9050919050565b60006020820190508181036000830152610e6981610cfe565b9050919050565b60006020820190508181036000830152610e8981610d21565b9050919050565b60006020820190508181036000830152610ea981610d44565b9050919050565b60006020820190508181036000830152610ec981610d67565b9050919050565b60006020820190508181036000830152610ee981610d8a565b9050919050565b60006020820190508181036000830152610f0981610dad565b9050919050565b6000602082019050610f256000830184610dd0565b92915050565b600082825260208201905092915050565b6000610f478261109f565b9150610f528361109f565b9250827fffffffffffffffffffffffffffffffffffffffffffffffffffffffffffffffff03821115610f8757610f866110cd565b5b828201905092915050565b6000610f9d8261109f565b9150610fa88361109f565b925082610fb857610fb76110fc565b5b828204905092915050565b6000610fce8261109f565b9150610fd98361109f565b9250817fffffffffffffffffffffffffffffffffffffffffffffffffffffffffffffffff0483118215151615611012576110116110cd565b5b828202905092915050565b60006110288261109f565b91506110338361109f565b925082821015611046576110456110cd565b5b828203905092915050565b600061105c8261107f565b9050919050565b6000819050919050565b600061107882611051565b9050919050565b600073ffffffffffffffffffffffffffffffffffffffff82169050919050565b6000819050919050565b60006110b4826110bb565b9050919050565b60006110c68261107f565b9050919050565b7f4e487b7100000000000000000000000000000000000000000000000000000000600052601160045260246000fd5b7f4e487b7100000000000000000000000000000000000000000000000000000000600052601260045260246000fd5b600080fd5b7f496e636f7272656374206f757470757420616d6f756e74000000000000000000600082015250565b7f4f776e61626c653a206e6577206f776e657220697320746865207a65726f206160008201527f6464726573730000000000000000000000000000000000000000000000000000602082015250565b7f4e6f7420656e6f7567682066756e64732070726f766964656400000000000000600082015250565b7f496e636f727265637420696e70757420616d6f756e7400000000000000000000600082015250565b7f4f776e61626c653a2063616c6c6572206973206e6f7420746865206f776e6572600082015250565b7f5468652070726963652070726f76696465722063616e6e6f742073657420746f60008201527f2061206e756c6c20616464726573730000000000000000000000000000000000602082015250565b7f4e6f7420656e6f7567682061737365747320746f2073656c6c00000000000000600082015250565b6112a481611051565b81146112af57600080fd5b50565b6112bb81611063565b81146112c657600080fd5b50565b6112d28161106d565b81146112dd57600080fd5b50565b6112e98161109f565b81146112f457600080fd5b5056fea2646970667358221220c2a2920734168fea7fd8fb682575075a3472b45d0c244837549ecd854742056c64736f6c63430008060033",
  "immutableReferences": {},
  "source": "// SPDX-License-Identifier: UNLICENSED\npragma solidity ^0.8.2;\n\nimport \"@openzeppelin/contracts/access/Ownable.sol\";\nimport \"./IPriceProvider.sol\";\nimport \"./IAssetsExchange.sol\";\n\n/**\n * @title SimpleAssetsExchange\n * @dev Contract allows user to invest into an asset\n * It is a simple implementation that could be replace by a DEX or synthetic asset provider\n */\ncontract SimpleAssetsExchange is Ownable, IAssetsExchange {\n\n  mapping(address => mapping(bytes32 =>uint256)) balance;\n\n  IPriceProvider public priceProvider;\n\n\n  /* ========== SETTERS ========== */\n\n\n  /**\n   * Sets the new oracle\n   * The oracle is an entity authorised to set assets prices\n   * @dev _oracle the address of the new oracle\n  **/\n  function setPriceProvider(IPriceProvider _priceProvider) public onlyOwner {\n    require(address(_priceProvider) != address(0), \"The price provider cannot set to a null address\");\n\n    priceProvider = _priceProvider;\n\n    emit PriceProviderChanged(address(priceProvider));\n  }\n\n\n  /* ========== MUTATIVE FUNCTIONS ========== */\n\n\n  /**\n   * Buys selected asset with AVAX\n   * @dev _asset asset code\n   * @dev _amount amount to be bought\n  **/\n  function buyAsset(bytes32 _asset, uint256 _amount) payable override external {\n    uint256 amountIn = _amount * priceProvider.getPrice(_asset) / 1 ether;\n    require(amountIn > 0, \"Incorrect input amount\");\n    require(msg.value >= amountIn, \"Not enough funds provided\");\n\n    balance[msg.sender][_asset] = balance[msg.sender][_asset] + _amount;\n\n    uint256 remainder = msg.value - amountIn;\n    payable(msg.sender).transfer(remainder);\n  }\n\n\n  /**\n   * Sells selected asset for AVAX\n   * @dev _asset asset code\n   * @dev _amount amount to be bought\n  **/\n  function sellAsset(bytes32 _asset, uint256 _amount) payable override external {\n    require(balance[msg.sender][_asset] >= _amount, \"Not enough assets to sell\");\n\n    uint256 amountOut = _amount * priceProvider.getPrice(_asset) / 1 ether;\n    require(amountOut > 0, \"Incorrect output amount\");\n\n    balance[msg.sender][_asset] = balance[msg.sender][_asset] - _amount;\n\n    payable(msg.sender).transfer(amountOut);\n  }\n\n\n\n  /* ========== VIEW FUNCTIONS ========== */\n\n\n  /**\n   * Returns the current balance of the asset held by given user\n   * @dev _asset the code of an asset\n   * @dev _user the address of queried user\n  **/\n  function getBalance(address _user, bytes32 _asset) external override view returns(uint256) {\n    return balance[_user][_asset];\n  }\n\n\n  /* ========== EVENTS ========== */\n\n\n  /**\n    * @dev emitted after the owner changes the price provider\n    * @param priceProvider the address of a new price provider\n  **/\n  event PriceProviderChanged(address indexed priceProvider);\n\n}\n",
  "sourcePath": "/Users/apple/Redstone/smart-broker/contracts/SimpleAssetsExchange.sol",
  "compiler": {
    "name": "solc",
    "version": "0.8.6+commit.11564f7e.Emscripten.clang"
  },
  "schemaVersion": "3.4.2",
  "updatedAt": "2021-08-05T13:09:52.926Z",
  "devdoc": {
    "details": "Contract allows user to invest into an asset It is a simple implementation that could be replace by a DEX or synthetic asset provider",
    "events": {
      "PriceProviderChanged(address)": {
        "details": "emitted after the owner changes the price provider",
        "params": {
          "priceProvider": "the address of a new price provider*"
        }
      }
    },
    "kind": "dev",
    "methods": {
      "buyAsset(bytes32,uint256)": {
        "details": "_asset asset code_amount amount to be bought*"
      },
      "getBalance(address,bytes32)": {
        "details": "_asset the code of an asset_user the address of queried user*"
      },
      "owner()": {
        "details": "Returns the address of the current owner."
      },
      "renounceOwnership()": {
        "details": "Leaves the contract without owner. It will not be possible to call `onlyOwner` functions anymore. Can only be called by the current owner. NOTE: Renouncing ownership will leave the contract without an owner, thereby removing any functionality that is only available to the owner."
      },
      "sellAsset(bytes32,uint256)": {
        "details": "_asset asset code_amount amount to be bought*"
      },
      "setPriceProvider(address)": {
        "details": "_oracle the address of the new oracle*"
      },
      "transferOwnership(address)": {
        "details": "Transfers ownership of the contract to a new account (`newOwner`). Can only be called by the current owner."
      }
    },
    "title": "SimpleAssetsExchange",
    "version": 1
  },
  "userdoc": {
    "kind": "user",
    "methods": {
      "buyAsset(bytes32,uint256)": {
        "notice": "Buys selected asset with AVAX"
      },
      "getBalance(address,bytes32)": {
        "notice": "Returns the current balance of the asset held by given user"
      },
      "sellAsset(bytes32,uint256)": {
        "notice": "Sells selected asset for AVAX"
      },
      "setPriceProvider(address)": {
        "notice": "Sets the new oracle The oracle is an entity authorised to set assets prices"
      }
    },
    "version": 1
  }
}