{
  "contractName": "SimplePriceProvider",
  "abi": [
    {
      "anonymous": false,
      "inputs": [
        {
          "indexed": true,
          "internalType": "address",
          "name": "oracle",
          "type": "address"
        }
      ],
      "name": "OracleChanged",
      "type": "event"
    },
    {
      "anonymous": false,
      "inputs": [
        {
          "indexed": true,
          "internalType": "address",
          "name": "previousOwner",
          "type": "address"
        },
        {
          "indexed": true,
          "internalType": "address",
          "name": "newOwner",
          "type": "address"
        }
      ],
      "name": "OwnershipTransferred",
      "type": "event"
    },
    {
      "anonymous": false,
      "inputs": [
        {
          "indexed": true,
          "internalType": "bytes32",
          "name": "asset",
          "type": "bytes32"
        },
        {
          "indexed": false,
          "internalType": "uint256",
          "name": "price",
          "type": "uint256"
        }
      ],
      "name": "PriceUpdated",
      "type": "event"
    },
    {
      "inputs": [
        {
          "internalType": "uint256",
          "name": "",
          "type": "uint256"
        }
      ],
      "name": "ASSETS",
      "outputs": [
        {
          "internalType": "bytes32",
          "name": "",
          "type": "bytes32"
        }
      ],
      "stateMutability": "view",
      "type": "function"
    },
    {
      "inputs": [],
      "name": "BTC",
      "outputs": [
        {
          "internalType": "bytes32",
          "name": "",
          "type": "bytes32"
        }
      ],
      "stateMutability": "view",
      "type": "function"
    },
    {
      "inputs": [],
      "name": "ETH",
      "outputs": [
        {
          "internalType": "bytes32",
          "name": "",
          "type": "bytes32"
        }
      ],
      "stateMutability": "view",
      "type": "function"
    },
    {
      "inputs": [],
      "name": "LNK",
      "outputs": [
        {
          "internalType": "bytes32",
          "name": "",
          "type": "bytes32"
        }
      ],
      "stateMutability": "view",
      "type": "function"
    },
    {
      "inputs": [],
      "name": "USD",
      "outputs": [
        {
          "internalType": "bytes32",
          "name": "",
          "type": "bytes32"
        }
      ],
      "stateMutability": "view",
      "type": "function"
    },
    {
      "inputs": [],
      "name": "XRP",
      "outputs": [
        {
          "internalType": "bytes32",
          "name": "",
          "type": "bytes32"
        }
      ],
      "stateMutability": "view",
      "type": "function"
    },
    {
      "inputs": [],
      "name": "oracle",
      "outputs": [
        {
          "internalType": "address",
          "name": "",
          "type": "address"
        }
      ],
      "stateMutability": "view",
      "type": "function"
    },
    {
      "inputs": [],
      "name": "owner",
      "outputs": [
        {
          "internalType": "address",
          "name": "",
          "type": "address"
        }
      ],
      "stateMutability": "view",
      "type": "function"
    },
    {
      "inputs": [],
      "name": "renounceOwnership",
      "outputs": [],
      "stateMutability": "nonpayable",
      "type": "function"
    },
    {
      "inputs": [
        {
          "internalType": "address",
          "name": "newOwner",
          "type": "address"
        }
      ],
      "name": "transferOwnership",
      "outputs": [],
      "stateMutability": "nonpayable",
      "type": "function"
    },
    {
      "inputs": [
        {
          "internalType": "address",
          "name": "_oracle",
          "type": "address"
        }
      ],
      "name": "setOracle",
      "outputs": [],
      "stateMutability": "nonpayable",
      "type": "function"
    },
    {
      "inputs": [
        {
          "internalType": "bytes32",
          "name": "_asset",
          "type": "bytes32"
        },
        {
          "internalType": "uint256",
          "name": "_price",
          "type": "uint256"
        }
      ],
      "name": "setPrice",
      "outputs": [],
      "stateMutability": "nonpayable",
      "type": "function"
    },
    {
      "inputs": [
        {
          "internalType": "bytes32",
          "name": "_asset",
          "type": "bytes32"
        }
      ],
      "name": "getPrice",
      "outputs": [
        {
          "internalType": "uint256",
          "name": "",
          "type": "uint256"
        }
      ],
      "stateMutability": "view",
      "type": "function"
    },
    {
      "inputs": [],
      "name": "getAllAssets",
      "outputs": [
        {
          "internalType": "bytes32[]",
          "name": "result",
          "type": "bytes32[]"
        }
      ],
      "stateMutability": "view",
      "type": "function"
    }
  ],
  "bytecode": "0x60806040527f55534400000000000000000000000000000000000000000000000000000000006002557f42544300000000000000000000000000000000000000000000000000000000006003557f45544800000000000000000000000000000000000000000000000000000000006004557f58525000000000000000000000000000000000000000000000000000000000006005557f4c4e4b00000000000000000000000000000000000000000000000000000000006006556040518060a00160405280600254815260200160035481526020016004548152602001600554815260200160065481525060079060056100f99291906101f4565b5034801561010657600080fd5b5061012361011861012860201b60201c565b61013060201b60201c565b610251565b600033905090565b60008060009054906101000a900473ffffffffffffffffffffffffffffffffffffffff169050816000806101000a81548173ffffffffffffffffffffffffffffffffffffffff021916908373ffffffffffffffffffffffffffffffffffffffff1602179055508173ffffffffffffffffffffffffffffffffffffffff168173ffffffffffffffffffffffffffffffffffffffff167f8be0079c531659141344cd1fd0a4f28419497f9722a3daafe3b4186f6b6457e060405160405180910390a35050565b8260058101928215610223579160200282015b82811115610222578251825591602001919060010190610207565b5b5090506102309190610234565b5090565b5b8082111561024d576000816000905550600101610235565b5090565b610fb580620002616000396000f3fe608060405234801561001057600080fd5b50600436106100ea5760003560e01c8063715018a61161008c578063803ff1c411610066578063803ff1c4146102275780638322fff2146102455780638da5cb5b14610263578063f2fde38b14610281576100ea565b8063715018a6146101e35780637adbf973146101ed5780637dc0d1d014610209576100ea565b80632acada4d116100c85780632acada4d1461014757806331d98b3f146101655780633af2681f1461019557806340fe3e23146101b3576100ea565b806310d8d74d146100ef5780631bf6c21b1461010b5780632792949d14610129575b600080fd5b61010960048036038101906101049190610989565b61029d565b005b6101136103c4565b6040516101209190610b94565b60405180910390f35b6101316103ca565b60405161013e9190610b94565b60405180910390f35b61014f6103d0565b60405161015c9190610b72565b60405180910390f35b61017f600480360381019061017a919061095c565b610476565b60405161018c9190610c4f565b60405180910390f35b61019d610493565b6040516101aa9190610b94565b60405180910390f35b6101cd60048036038101906101c891906109c9565b610499565b6040516101da9190610b94565b60405180910390f35b6101eb6104b4565b005b6102076004803603810190610202919061092f565b61053c565b005b6102116106d1565b60405161021e9190610b57565b60405180910390f35b61022f6106f7565b60405161023c9190610b94565b60405180910390f35b61024d6106fd565b60405161025a9190610b94565b60405180910390f35b61026b610703565b6040516102789190610b57565b60405180910390f35b61029b6004803603810190610296919061092f565b61072c565b005b3373ffffffffffffffffffffffffffffffffffffffff16600c60009054906101000a900473ffffffffffffffffffffffffffffffffffffffff1673ffffffffffffffffffffffffffffffffffffffff161461032d576040517f08c379a000000000000000000000000000000000000000000000000000000000815260040161032490610c0f565b60405180910390fd5b60008111610370576040517f08c379a000000000000000000000000000000000000000000000000000000000815260040161036790610bcf565b60405180910390fd5b806001600084815260200190815260200160002081905550817f46eec4e0eeeef5830de3472bb39db7e52b1c809286dc87c4b85b20e003cc70c3826040516103b89190610c4f565b60405180910390a25050565b60025481565b60035481565b6060600567ffffffffffffffff8111156103ed576103ec610da1565b5b60405190808252806020026020018201604052801561041b5781602001602082028036833780820191505090505b50905060005b6005811015610472576007816005811061043e5761043d610d72565b5b015482828151811061045357610452610d72565b5b602002602001018181525050808061046a90610cfa565b915050610421565b5090565b600060016000838152602001908152602001600020549050919050565b60055481565b600781600581106104a957600080fd5b016000915090505481565b6104bc610824565b73ffffffffffffffffffffffffffffffffffffffff166104da610703565b73ffffffffffffffffffffffffffffffffffffffff1614610530576040517f08c379a000000000000000000000000000000000000000000000000000000000815260040161052790610bef565b60405180910390fd5b61053a600061082c565b565b610544610824565b73ffffffffffffffffffffffffffffffffffffffff16610562610703565b73ffffffffffffffffffffffffffffffffffffffff16146105b8576040517f08c379a00000000000000000000000000000000000000000000000000000000081526004016105af90610bef565b60405180910390fd5b600073ffffffffffffffffffffffffffffffffffffffff168173ffffffffffffffffffffffffffffffffffffffff161415610628576040517f08c379a000000000000000000000000000000000000000000000000000000000815260040161061f90610c2f565b60405180910390fd5b80600c60006101000a81548173ffffffffffffffffffffffffffffffffffffffff021916908373ffffffffffffffffffffffffffffffffffffffff160217905550600c60009054906101000a900473ffffffffffffffffffffffffffffffffffffffff1673ffffffffffffffffffffffffffffffffffffffff167f0e05ae75e8b926552cf6fcd744d19f422561e3ced1e426868730852702dbe41860405160405180910390a250565b600c60009054906101000a900473ffffffffffffffffffffffffffffffffffffffff1681565b60065481565b60045481565b60008060009054906101000a900473ffffffffffffffffffffffffffffffffffffffff16905090565b610734610824565b73ffffffffffffffffffffffffffffffffffffffff16610752610703565b73ffffffffffffffffffffffffffffffffffffffff16146107a8576040517f08c379a000000000000000000000000000000000000000000000000000000000815260040161079f90610bef565b60405180910390fd5b600073ffffffffffffffffffffffffffffffffffffffff168173ffffffffffffffffffffffffffffffffffffffff161415610818576040517f08c379a000000000000000000000000000000000000000000000000000000000815260040161080f90610baf565b60405180910390fd5b6108218161082c565b50565b600033905090565b60008060009054906101000a900473ffffffffffffffffffffffffffffffffffffffff169050816000806101000a81548173ffffffffffffffffffffffffffffffffffffffff021916908373ffffffffffffffffffffffffffffffffffffffff1602179055508173ffffffffffffffffffffffffffffffffffffffff168173ffffffffffffffffffffffffffffffffffffffff167f8be0079c531659141344cd1fd0a4f28419497f9722a3daafe3b4186f6b6457e060405160405180910390a35050565b6000813590506108ff81610f3a565b92915050565b60008135905061091481610f51565b92915050565b60008135905061092981610f68565b92915050565b60006020828403121561094557610944610dd0565b5b6000610953848285016108f0565b91505092915050565b60006020828403121561097257610971610dd0565b5b600061098084828501610905565b91505092915050565b600080604083850312156109a05761099f610dd0565b5b60006109ae85828601610905565b92505060206109bf8582860161091a565b9150509250929050565b6000602082840312156109df576109de610dd0565b5b60006109ed8482850161091a565b91505092915050565b6000610a028383610a7b565b60208301905092915050565b610a1781610cb4565b82525050565b6000610a2882610c7a565b610a328185610c92565b9350610a3d83610c6a565b8060005b83811015610a6e578151610a5588826109f6565b9750610a6083610c85565b925050600181019050610a41565b5085935050505092915050565b610a8481610cc6565b82525050565b610a9381610cc6565b82525050565b6000610aa6602683610ca3565b9150610ab182610dd5565b604082019050919050565b6000610ac9602383610ca3565b9150610ad482610e24565b604082019050919050565b6000610aec602083610ca3565b9150610af782610e73565b602082019050919050565b6000610b0f602d83610ca3565b9150610b1a82610e9c565b604082019050919050565b6000610b32602783610ca3565b9150610b3d82610eeb565b604082019050919050565b610b5181610cf0565b82525050565b6000602082019050610b6c6000830184610a0e565b92915050565b60006020820190508181036000830152610b8c8184610a1d565b905092915050565b6000602082019050610ba96000830184610a8a565b92915050565b60006020820190508181036000830152610bc881610a99565b9050919050565b60006020820190508181036000830152610be881610abc565b9050919050565b60006020820190508181036000830152610c0881610adf565b9050919050565b60006020820190508181036000830152610c2881610b02565b9050919050565b60006020820190508181036000830152610c4881610b25565b9050919050565b6000602082019050610c646000830184610b48565b92915050565b6000819050602082019050919050565b600081519050919050565b6000602082019050919050565b600082825260208201905092915050565b600082825260208201905092915050565b6000610cbf82610cd0565b9050919050565b6000819050919050565b600073ffffffffffffffffffffffffffffffffffffffff82169050919050565b6000819050919050565b6000610d0582610cf0565b91507fffffffffffffffffffffffffffffffffffffffffffffffffffffffffffffffff821415610d3857610d37610d43565b5b600182019050919050565b7f4e487b7100000000000000000000000000000000000000000000000000000000600052601160045260246000fd5b7f4e487b7100000000000000000000000000000000000000000000000000000000600052603260045260246000fd5b7f4e487b7100000000000000000000000000000000000000000000000000000000600052604160045260246000fd5b600080fd5b7f4f776e61626c653a206e6577206f776e657220697320746865207a65726f206160008201527f6464726573730000000000000000000000000000000000000000000000000000602082015250565b7f546865207072696365206d7573742062652067726561746572207468616e207a60008201527f65726f0000000000000000000000000000000000000000000000000000000000602082015250565b7f4f776e61626c653a2063616c6c6572206973206e6f7420746865206f776e6572600082015250565b7f53696d706c65507269636550726f76696465723a2063616c6c6572206973206e60008201527f6f7420746865206f7261636c6500000000000000000000000000000000000000602082015250565b7f546865206f7261636c652063616e6e6f742073657420746f2061206e756c6c2060008201527f6164647265737300000000000000000000000000000000000000000000000000602082015250565b610f4381610cb4565b8114610f4e57600080fd5b50565b610f5a81610cc6565b8114610f6557600080fd5b50565b610f7181610cf0565b8114610f7c57600080fd5b5056fea264697066735822122000b0852b78f2d40ba8e71eccfbc6218957dd2b75b0e1a52280a63737b205e9e864736f6c63430008060033",
  "immutableReferences": {},
  "source": "// SPDX-License-Identifier: UNLICENSED\npragma solidity ^0.8.2;\n\nimport \"@openzeppelin/contracts/access/Ownable.sol\";\nimport \"./IPriceProvider.sol\";\n\n/**\n * @title SimplePriceProvider\n * @dev Contract implementing the on-chain oracle reference price contract\n * It allows an authorised oracle account to set price for an asset\n * The price is later available to query by other contracts\n */\ncontract SimplePriceProvider is Ownable, IPriceProvider {\n\n  mapping(bytes32 => uint256) prices;\n\n  bytes32 public USD = 'USD';\n  bytes32 public BTC = 'BTC';\n  bytes32 public ETH = 'ETH';\n  bytes32 public XRP = 'XRP';\n  bytes32 public LNK = 'LNK';\n\n  bytes32[5] public ASSETS = [USD, BTC, ETH, XRP, LNK];\n\n  address public oracle;\n\n\n  /* ========== SETTERS ========== */\n\n\n  /**\n   * Sets the new oracle\n   * The oracle is an entity authorised to set assets prices\n   * @dev _oracle the address of the new oracle\n  **/\n  function setOracle(address _oracle) public onlyOwner {\n    require(address(_oracle) != address(0), \"The oracle cannot set to a null address\");\n\n    oracle = _oracle;\n\n    emit OracleChanged(oracle);\n  }\n\n\n  /**\n   * Sets the price for an asset\n   * @dev _asset the address of the given asset\n   * @dev _price updated price of the given asset\n  **/\n  function setPrice(bytes32 _asset, uint256 _price) public onlyOracle {\n    require(_price > 0, \"The price must be greater than zero\");\n\n    prices[_asset] = _price;\n\n    emit PriceUpdated(_asset, _price);\n  }\n\n\n\n  /* ========== VIEW FUNCTIONS ========== */\n\n\n  /**\n   * Returns the current price of an asset\n   * @dev _asset the address of the queried asset\n  **/\n  function getPrice(bytes32 _asset) external override view returns(uint256) {\n    return prices[_asset];\n  }\n\n\n  /**\n   * Returns all the supported assets\n  **/\n  function getAllAssets() external view override returns(bytes32[] memory result) {\n    result = new bytes32[] (ASSETS.length);\n    for(uint i = 0; i< ASSETS.length; i++) {\n      result[i] = ASSETS[i];\n    }\n  }\n\n\n  /* ========== MODIFIERS ========== */\n\n\n  /**\n    * @dev Throws if called by any account other than the oracle\n  **/\n  modifier onlyOracle() {\n    require(oracle == msg.sender, \"SimplePriceProvider: caller is not the oracle\");\n    _;\n  }\n\n\n  /* ========== EVENTS ========== */\n\n\n  /**\n    * @dev emitted after the owner changes oracle\n    * @param oracle the address of new oracle which is authorised to provide prices\n  **/\n  event OracleChanged(address indexed oracle);\n\n  /**\n    * @dev emitted after the price of an asset gets updated\n    * @param asset the asset whose price is updated\n    * @param price the new price\n  **/\n  event PriceUpdated(bytes32 indexed asset, uint256 price);\n\n\n}\n",
  "sourcePath": "/Users/apple/Redstone/smart-broker/contracts/SimplePriceProvider.sol",
  "compiler": {
    "name": "solc",
    "version": "0.8.6+commit.11564f7e.Emscripten.clang"
  },
  "schemaVersion": "3.4.2",
  "updatedAt": "2021-08-05T13:09:52.932Z",
  "devdoc": {
    "details": "Contract implementing the on-chain oracle reference price contract It allows an authorised oracle account to set price for an asset The price is later available to query by other contracts",
    "events": {
      "OracleChanged(address)": {
        "details": "emitted after the owner changes oracle",
        "params": {
          "oracle": "the address of new oracle which is authorised to provide prices*"
        }
      },
      "PriceUpdated(bytes32,uint256)": {
        "details": "emitted after the price of an asset gets updated",
        "params": {
          "asset": "the asset whose price is updated",
          "price": "the new price*"
        }
      }
    },
    "kind": "dev",
    "methods": {
      "getPrice(bytes32)": {
        "details": "_asset the address of the queried asset*"
      },
      "owner()": {
        "details": "Returns the address of the current owner."
      },
      "renounceOwnership()": {
        "details": "Leaves the contract without owner. It will not be possible to call `onlyOwner` functions anymore. Can only be called by the current owner. NOTE: Renouncing ownership will leave the contract without an owner, thereby removing any functionality that is only available to the owner."
      },
      "setOracle(address)": {
        "details": "_oracle the address of the new oracle*"
      },
      "setPrice(bytes32,uint256)": {
        "details": "_asset the address of the given asset_price updated price of the given asset*"
      },
      "transferOwnership(address)": {
        "details": "Transfers ownership of the contract to a new account (`newOwner`). Can only be called by the current owner."
      }
    },
    "title": "SimplePriceProvider",
    "version": 1
  },
  "userdoc": {
    "kind": "user",
    "methods": {
      "getAllAssets()": {
        "notice": "Returns all the supported assets*"
      },
      "getPrice(bytes32)": {
        "notice": "Returns the current price of an asset"
      },
      "setOracle(address)": {
        "notice": "Sets the new oracle The oracle is an entity authorised to set assets prices"
      },
      "setPrice(bytes32,uint256)": {
        "notice": "Sets the price for an asset"
      }
    },
    "version": 1
  }
}