{
  "contractName": "SmartLoansFactory",
  "abi": [
    {
      "inputs": [
        {
          "internalType": "contract Pool",
          "name": "_pool",
          "type": "address"
        },
        {
          "internalType": "contract IPriceProvider",
          "name": "_priceProvider",
          "type": "address"
        },
        {
          "internalType": "contract IAssetsExchange",
          "name": "_assetsExchange",
          "type": "address"
        }
      ],
      "stateMutability": "nonpayable",
      "type": "constructor"
    },
    {
      "anonymous": false,
      "inputs": [
        {
          "indexed": true,
          "internalType": "address",
          "name": "accountAddress",
          "type": "address"
        },
        {
          "indexed": true,
          "internalType": "address",
          "name": "creator",
          "type": "address"
        }
      ],
      "name": "SmartLoanCreated",
      "type": "event"
    },
    {
      "inputs": [
        {
          "internalType": "address",
          "name": "",
          "type": "address"
        }
      ],
      "name": "accountsToCreators",
      "outputs": [
        {
          "internalType": "address",
          "name": "",
          "type": "address"
        }
      ],
      "stateMutability": "view",
      "type": "function"
    },
    {
      "inputs": [
        {
          "internalType": "address",
          "name": "",
          "type": "address"
        }
      ],
      "name": "creatorsToAccounts",
      "outputs": [
        {
          "internalType": "contract SmartLoan",
          "name": "",
          "type": "address"
        }
      ],
      "stateMutability": "view",
      "type": "function"
    },
    {
      "inputs": [],
      "name": "createLoan",
      "outputs": [
        {
          "internalType": "contract SmartLoan",
          "name": "",
          "type": "address"
        }
      ],
      "stateMutability": "nonpayable",
      "type": "function"
    },
    {
      "inputs": [
        {
          "internalType": "uint256",
          "name": "_initialDebt",
          "type": "uint256"
        }
      ],
      "name": "createAndFundLoan",
      "outputs": [
        {
          "internalType": "contract SmartLoan",
          "name": "",
          "type": "address"
        }
      ],
      "stateMutability": "payable",
      "type": "function"
    },
    {
      "inputs": [
        {
          "internalType": "address",
          "name": "_account",
          "type": "address"
        }
      ],
      "name": "canBorrow",
      "outputs": [
        {
          "internalType": "bool",
          "name": "",
          "type": "bool"
        }
      ],
      "stateMutability": "view",
      "type": "function"
    },
    {
      "inputs": [
        {
          "internalType": "address",
          "name": "_user",
          "type": "address"
        }
      ],
      "name": "getAccountForUser",
      "outputs": [
        {
          "internalType": "address",
          "name": "",
          "type": "address"
        }
      ],
      "stateMutability": "view",
      "type": "function"
    },
    {
      "inputs": [
        {
          "internalType": "address",
          "name": "_loan",
          "type": "address"
        }
      ],
      "name": "getOwnerOfLoan",
      "outputs": [
        {
          "internalType": "address",
          "name": "",
          "type": "address"
        }
      ],
      "stateMutability": "view",
      "type": "function"
    },
    {
      "inputs": [],
      "name": "getAllLoans",
      "outputs": [
        {
          "internalType": "contract SmartLoan[]",
          "name": "",
          "type": "address[]"
        }
      ],
      "stateMutability": "view",
      "type": "function"
    }
  ],
  "bytecode": "0x60806040523480156200001157600080fd5b506040516200397638038062003976833981810160405281019062000037919062000147565b826000806101000a81548173ffffffffffffffffffffffffffffffffffffffff021916908373ffffffffffffffffffffffffffffffffffffffff16021790555081600160006101000a81548173ffffffffffffffffffffffffffffffffffffffff021916908373ffffffffffffffffffffffffffffffffffffffff16021790555080600260006101000a81548173ffffffffffffffffffffffffffffffffffffffff021916908373ffffffffffffffffffffffffffffffffffffffff16021790555050505062000266565b600081519050620001138162000218565b92915050565b6000815190506200012a8162000232565b92915050565b60008151905062000141816200024c565b92915050565b60008060006060848603121562000163576200016262000213565b5b6000620001738682870162000130565b9350506020620001868682870162000119565b9250506040620001998682870162000102565b9150509250925092565b6000620001b082620001f3565b9050919050565b6000620001c482620001a3565b9050919050565b6000620001d882620001a3565b9050919050565b6000620001ec82620001a3565b9050919050565b600073ffffffffffffffffffffffffffffffffffffffff82169050919050565b600080fd5b6200022381620001b7565b81146200022f57600080fd5b50565b6200023d81620001cb565b81146200024957600080fd5b50565b6200025781620001df565b81146200026357600080fd5b50565b61370080620002766000396000f3fe608060405260043610620000865760003560e01c80637f2e2a7611620000555780637f2e2a761462000187578063a5bfd16a14620001cb578063e59ec38d14620001fb578063e78fd931146200023f5762000086565b80630e7fc864146200008b5780634527bfcb14620000cf5780635b012546146200011357806365ec1a451462000157575b600080fd5b3480156200009857600080fd5b50620000b76004803603810190620000b1919062000a92565b62000275565b604051620000c6919062000c75565b60405180910390f35b348015620000dc57600080fd5b50620000fb6004803603810190620000f5919062000a92565b6200030d565b6040516200010a919062000c34565b60405180910390f35b3480156200012057600080fd5b506200013f600480360381019062000139919062000a92565b62000340565b6040516200014e919062000c34565b60405180910390f35b3480156200016457600080fd5b506200016f620003a9565b6040516200017e919062000ccf565b60405180910390f35b3480156200019457600080fd5b50620001b36004803603810190620001ad919062000a92565b620004d0565b604051620001c2919062000ccf565b60405180910390f35b348015620001d857600080fd5b50620001e362000503565b604051620001f2919062000c51565b60405180910390f35b3480156200020857600080fd5b5062000227600480360381019062000221919062000a92565b62000593565b60405162000236919062000c34565b60405180910390f35b6200025d600480360381019062000257919062000af6565b620005fc565b6040516200026c919062000ccf565b60405180910390f35b60008073ffffffffffffffffffffffffffffffffffffffff16600460008473ffffffffffffffffffffffffffffffffffffffff1673ffffffffffffffffffffffffffffffffffffffff16815260200190815260200160002060009054906101000a900473ffffffffffffffffffffffffffffffffffffffff1673ffffffffffffffffffffffffffffffffffffffff1614159050919050565b60046020528060005260406000206000915054906101000a900473ffffffffffffffffffffffffffffffffffffffff1681565b6000600460008373ffffffffffffffffffffffffffffffffffffffff1673ffffffffffffffffffffffffffffffffffffffff16815260200190815260200160002060009054906101000a900473ffffffffffffffffffffffffffffffffffffffff169050919050565b600080600160009054906101000a900473ffffffffffffffffffffffffffffffffffffffff16600260009054906101000a900473ffffffffffffffffffffffffffffffffffffffff1660008054906101000a900473ffffffffffffffffffffffffffffffffffffffff16604051620004219062000a3f565b6200042f9392919062000c92565b604051809103906000f0801580156200044c573d6000803e3d6000fd5b5090506200045a8162000883565b8073ffffffffffffffffffffffffffffffffffffffff1663f2fde38b336040518263ffffffff1660e01b815260040162000495919062000c34565b600060405180830381600087803b158015620004b057600080fd5b505af1158015620004c5573d6000803e3d6000fd5b505050508091505090565b60036020528060005260406000206000915054906101000a900473ffffffffffffffffffffffffffffffffffffffff1681565b606060058054806020026020016040519081016040528092919081815260200182805480156200058957602002820191906000526020600020905b8160009054906101000a900473ffffffffffffffffffffffffffffffffffffffff1673ffffffffffffffffffffffffffffffffffffffff16815260200190600101908083116200053e575b5050505050905090565b6000600360008373ffffffffffffffffffffffffffffffffffffffff1673ffffffffffffffffffffffffffffffffffffffff16815260200190815260200160002060009054906101000a900473ffffffffffffffffffffffffffffffffffffffff169050919050565b600080600160009054906101000a900473ffffffffffffffffffffffffffffffffffffffff16600260009054906101000a900473ffffffffffffffffffffffffffffffffffffffff1660008054906101000a900473ffffffffffffffffffffffffffffffffffffffff16604051620006749062000a3f565b620006829392919062000c92565b604051809103906000f0801580156200069f573d6000803e3d6000fd5b509050620006ad8162000883565b8073ffffffffffffffffffffffffffffffffffffffff1663b60d4288346040518263ffffffff1660e01b81526004016000604051808303818588803b158015620006f657600080fd5b505af11580156200070b573d6000803e3d6000fd5b50505050508073ffffffffffffffffffffffffffffffffffffffff1663c5ebeaec846040518263ffffffff1660e01b81526004016200074b919062000cec565b600060405180830381600087803b1580156200076657600080fd5b505af11580156200077b573d6000803e3d6000fd5b505050508073ffffffffffffffffffffffffffffffffffffffff16635ce239506040518163ffffffff1660e01b815260040160206040518083038186803b158015620007c657600080fd5b505afa158015620007db573d6000803e3d6000fd5b505050506040513d601f19601f8201168201806040525081019062000801919062000ac4565b6200080b57600080fd5b8073ffffffffffffffffffffffffffffffffffffffff1663f2fde38b336040518263ffffffff1660e01b815260040162000846919062000c34565b600060405180830381600087803b1580156200086157600080fd5b505af115801562000876573d6000803e3d6000fd5b5050505080915050919050565b80600360003373ffffffffffffffffffffffffffffffffffffffff1673ffffffffffffffffffffffffffffffffffffffff16815260200190815260200160002060006101000a81548173ffffffffffffffffffffffffffffffffffffffff021916908373ffffffffffffffffffffffffffffffffffffffff16021790555033600460008373ffffffffffffffffffffffffffffffffffffffff1673ffffffffffffffffffffffffffffffffffffffff16815260200190815260200160002060006101000a81548173ffffffffffffffffffffffffffffffffffffffff021916908373ffffffffffffffffffffffffffffffffffffffff1602179055506005819080600181540180825580915050600190039060005260206000200160009091909190916101000a81548173ffffffffffffffffffffffffffffffffffffffff021916908373ffffffffffffffffffffffffffffffffffffffff1602179055503373ffffffffffffffffffffffffffffffffffffffff168173ffffffffffffffffffffffffffffffffffffffff167f9c6cce50955f67fd8a1b1e340b4816f98d071fb348768d23e2c76f9f3800d76660405160405180910390a350565b61284b8062000e8083390190565b60008135905062000a5e8162000e31565b92915050565b60008151905062000a758162000e4b565b92915050565b60008135905062000a8c8162000e65565b92915050565b60006020828403121562000aab5762000aaa62000e2c565b5b600062000abb8482850162000a4d565b91505092915050565b60006020828403121562000add5762000adc62000e2c565b5b600062000aed8482850162000a64565b91505092915050565b60006020828403121562000b0f5762000b0e62000e2c565b5b600062000b1f8482850162000a7b565b91505092915050565b600062000b36838362000c01565b60208301905092915050565b62000b4d8162000d42565b82525050565b600062000b608262000d19565b62000b6c818562000d31565b935062000b798362000d09565b8060005b8381101562000bb057815162000b94888262000b28565b975062000ba18362000d24565b92505060018101905062000b7d565b5085935050505092915050565b62000bc88162000d56565b82525050565b62000bd98162000d8c565b82525050565b62000bea8162000db4565b82525050565b62000bfb8162000ddc565b82525050565b62000c0c8162000e04565b82525050565b62000c1d8162000e04565b82525050565b62000c2e8162000d82565b82525050565b600060208201905062000c4b600083018462000b42565b92915050565b6000602082019050818103600083015262000c6d818462000b53565b905092915050565b600060208201905062000c8c600083018462000bbd565b92915050565b600060608201905062000ca9600083018662000bdf565b62000cb8602083018562000bce565b62000cc7604083018462000bf0565b949350505050565b600060208201905062000ce6600083018462000c12565b92915050565b600060208201905062000d03600083018462000c23565b92915050565b6000819050602082019050919050565b600081519050919050565b6000602082019050919050565b600082825260208201905092915050565b600062000d4f8262000d62565b9050919050565b60008115159050919050565b600073ffffffffffffffffffffffffffffffffffffffff82169050919050565b6000819050919050565b600062000d998262000da0565b9050919050565b600062000dad8262000d62565b9050919050565b600062000dc18262000dc8565b9050919050565b600062000dd58262000d62565b9050919050565b600062000de98262000df0565b9050919050565b600062000dfd8262000d62565b9050919050565b600062000e118262000e18565b9050919050565b600062000e258262000d62565b9050919050565b600080fd5b62000e3c8162000d42565b811462000e4857600080fd5b50565b62000e568162000d56565b811462000e6257600080fd5b50565b62000e708162000d82565b811462000e7c57600080fd5b5056fe60806040526104b06004553480156200001757600080fd5b506040516200284b3803806200284b83398181016040528101906200003d91906200023a565b6200005d620000516200012960201b60201c565b6200013160201b60201c565b82600160006101000a81548173ffffffffffffffffffffffffffffffffffffffff021916908373ffffffffffffffffffffffffffffffffffffffff16021790555081600260006101000a81548173ffffffffffffffffffffffffffffffffffffffff021916908373ffffffffffffffffffffffffffffffffffffffff16021790555080600360006101000a81548173ffffffffffffffffffffffffffffffffffffffff021916908373ffffffffffffffffffffffffffffffffffffffff16021790555050505062000359565b600033905090565b60008060009054906101000a900473ffffffffffffffffffffffffffffffffffffffff169050816000806101000a81548173ffffffffffffffffffffffffffffffffffffffff021916908373ffffffffffffffffffffffffffffffffffffffff1602179055508173ffffffffffffffffffffffffffffffffffffffff168173ffffffffffffffffffffffffffffffffffffffff167f8be0079c531659141344cd1fd0a4f28419497f9722a3daafe3b4186f6b6457e060405160405180910390a35050565b60008151905062000206816200030b565b92915050565b6000815190506200021d8162000325565b92915050565b60008151905062000234816200033f565b92915050565b60008060006060848603121562000256576200025562000306565b5b600062000266868287016200020c565b93505060206200027986828701620001f5565b92505060406200028c8682870162000223565b9150509250925092565b6000620002a382620002e6565b9050919050565b6000620002b78262000296565b9050919050565b6000620002cb8262000296565b9050919050565b6000620002df8262000296565b9050919050565b600073ffffffffffffffffffffffffffffffffffffffff82169050919050565b600080fd5b6200031681620002aa565b81146200032257600080fd5b50565b6200033081620002be565b81146200033c57600080fd5b50565b6200034a81620002d2565b81146200035657600080fd5b50565b6124e280620003696000396000f3fe6080604052600436106101395760003560e01c8063a935310f116100ab578063c5ebeaec1161006f578063c5ebeaec146103c8578063caa648b4146103f1578063d2f7265a1461041c578063d44e282b14610447578063f2fde38b14610472578063fefa625f1461049b57610140565b8063a935310f14610300578063ac7251e71461032b578063b60d428814610356578063b888879e14610360578063c1878cd41461038b57610140565b8063415f1240116100fd578063415f1240146102165780635ce239501461023f578063673da1541461026a5780636b6c92d914610293578063715018a6146102be5780638da5cb5b146102d557610140565b806314a6bf0f146101455780631f29d285146101705780632e1a7d4d146101995780633574d4c4146101c2578063371fd8e6146101ed57610140565b3661014057005b600080fd5b34801561015157600080fd5b5061015a6104c6565b6040516101679190611ed1565b60405180910390f35b34801561017c57600080fd5b5061019760048036038101906101929190611a59565b610578565b005b3480156101a557600080fd5b506101c060048036038101906101bb9190611a99565b6106d9565b005b3480156101ce57600080fd5b506101d7610879565b6040516101e49190611ed1565b60405180910390f35b3480156101f957600080fd5b50610214600480360381019061020f9190611a99565b61087e565b005b34801561022257600080fd5b5061023d60048036038101906102389190611a99565b6109e4565b005b34801561024b57600080fd5b50610254610ae5565b6040516102619190611d7c565b60405180910390f35b34801561027657600080fd5b50610291600480360381019061028c9190611a59565b610af9565b005b34801561029f57600080fd5b506102a8610ca0565b6040516102b59190611d5a565b60405180910390f35b3480156102ca57600080fd5b506102d3610ea7565b005b3480156102e157600080fd5b506102ea610f2f565b6040516102f79190611cfb565b60405180910390f35b34801561030c57600080fd5b50610315610f58565b6040516103229190611d5a565b60405180910390f35b34801561033757600080fd5b5061034061115d565b60405161034d9190611ed1565b60405180910390f35b61035e611163565b005b34801561036c57600080fd5b506103756111b5565b6040516103829190611df6565b60405180910390f35b34801561039757600080fd5b506103b260048036038101906103ad9190611a2c565b6111db565b6040516103bf9190611ed1565b60405180910390f35b3480156103d457600080fd5b506103ef60048036038101906103ea9190611a99565b611359565b005b3480156103fd57600080fd5b506104066114fc565b6040516104139190611ed1565b60405180910390f35b34801561042857600080fd5b50610431611603565b60405161043e9190611ddb565b60405180910390f35b34801561045357600080fd5b5061045c611629565b6040516104699190611d3f565b60405180910390f35b34801561047e57600080fd5b50610499600480360381019061049491906119b6565b611681565b005b3480156104a757600080fd5b506104b0611779565b6040516104bd9190611ed1565b60405180910390f35b6000600360009054906101000a900473ffffffffffffffffffffffffffffffffffffffff1673ffffffffffffffffffffffffffffffffffffffff16636011163e306040518263ffffffff1660e01b81526004016105239190611cfb565b60206040518083038186803b15801561053b57600080fd5b505afa15801561054f573d6000803e3d6000fd5b505050506040513d601f19601f820116820180604052508101906105739190611ac6565b905090565b6105806117c1565b73ffffffffffffffffffffffffffffffffffffffff1661059e610f2f565b73ffffffffffffffffffffffffffffffffffffffff16146105f4576040517f08c379a00000000000000000000000000000000000000000000000000000000081526004016105eb90611e71565b60405180910390fd5b600260009054906101000a900473ffffffffffffffffffffffffffffffffffffffff1673ffffffffffffffffffffffffffffffffffffffff16635d8874e94784846040518463ffffffff1660e01b8152600401610652929190611db2565b6000604051808303818588803b15801561066b57600080fd5b505af115801561067f573d6000803e3d6000fd5b5050505050813373ffffffffffffffffffffffffffffffffffffffff167f8c4f7b2f9ad7fde21c3ebf69d91938c2731761edd5820e45c17ea61d9c2ab90a83426040516106cd929190611eec565b60405180910390a35050565b6106e16117c1565b73ffffffffffffffffffffffffffffffffffffffff166106ff610f2f565b73ffffffffffffffffffffffffffffffffffffffff1614610755576040517f08c379a000000000000000000000000000000000000000000000000000000000815260040161074c90611e71565b60405180910390fd5b80471015610798576040517f08c379a000000000000000000000000000000000000000000000000000000000815260040161078f90611e51565b60405180910390fd5b3373ffffffffffffffffffffffffffffffffffffffff166108fc829081150290604051600060405180830381858888f193505050501580156107de573d6000803e3d6000fd5b503373ffffffffffffffffffffffffffffffffffffffff167f92ccf450a286a957af52509bc1c9939d1a6a481783e142e41e2499f0bb66ebc68242604051610827929190611eec565b60405180910390a2610837610ae5565b610876576040517f08c379a000000000000000000000000000000000000000000000000000000000815260040161086d90611eb1565b60405180910390fd5b50565b606481565b610886610ae5565b156108cb57610893610f2f565b73ffffffffffffffffffffffffffffffffffffffff163373ffffffffffffffffffffffffffffffffffffffff16146108ca57600080fd5b5b8047101561090e576040517f08c379a000000000000000000000000000000000000000000000000000000000815260040161090590611e11565b60405180910390fd5b600360009054906101000a900473ffffffffffffffffffffffffffffffffffffffff1673ffffffffffffffffffffffffffffffffffffffff1663402d8883826040518263ffffffff1660e01b81526004016000604051808303818588803b15801561097857600080fd5b505af115801561098c573d6000803e3d6000fd5b50505050503373ffffffffffffffffffffffffffffffffffffffff167f1b8cd61ed43bec7c6bdad3a18ffee613f99c853d16c50678d248d879e1b4343882426040516109d9929190611eec565b60405180910390a250565b6109ec610ae5565b15610a2c576040517f08c379a0000000000000000000000000000000000000000000000000000000008152600401610a2390611e91565b60405180910390fd5b610a358161087e565b60006103e8606483610a479190612064565b610a519190612033565b90503373ffffffffffffffffffffffffffffffffffffffff166108fc829081150290604051600060405180830381858888f19350505050158015610a99573d6000803e3d6000fd5b5050610aa3610ae5565b610ae2576040517f08c379a0000000000000000000000000000000000000000000000000000000008152600401610ad990611eb1565b60405180910390fd5b50565b6000600454610af2611779565b1015905090565b610b016117c1565b73ffffffffffffffffffffffffffffffffffffffff16610b1f610f2f565b73ffffffffffffffffffffffffffffffffffffffff1614610b75576040517f08c379a0000000000000000000000000000000000000000000000000000000008152600401610b6c90611e71565b60405180910390fd5b600260009054906101000a900473ffffffffffffffffffffffffffffffffffffffff1673ffffffffffffffffffffffffffffffffffffffff16631b98d07e83836040518363ffffffff1660e01b8152600401610bd2929190611db2565b600060405180830381600087803b158015610bec57600080fd5b505af1158015610c00573d6000803e3d6000fd5b50505050813373ffffffffffffffffffffffffffffffffffffffff167fc95bd7ebbed9b9c3e9477753bcb60d02b328f1e5bce8b1a25986d6c73991c1828342604051610c4d929190611eec565b60405180910390a3610c5d610ae5565b610c9c576040517f08c379a0000000000000000000000000000000000000000000000000000000008152600401610c9390611eb1565b60405180910390fd5b5050565b60606000600160009054906101000a900473ffffffffffffffffffffffffffffffffffffffff1673ffffffffffffffffffffffffffffffffffffffff16632acada4d6040518163ffffffff1660e01b815260040160006040518083038186803b158015610d0c57600080fd5b505afa158015610d20573d6000803e3d6000fd5b505050506040513d6000823e3d601f19601f82011682018060405250810190610d4991906119e3565b90506000815167ffffffffffffffff811115610d6857610d6761225f565b5b604051908082528060200260200182016040528015610d965781602001602082028036833780820191505090505b50905060005b8251811015610e9e57600260009054906101000a900473ffffffffffffffffffffffffffffffffffffffff1673ffffffffffffffffffffffffffffffffffffffff1663c79d5ec530858481518110610df757610df6612230565b5b60200260200101516040518363ffffffff1660e01b8152600401610e1c929190611d16565b60206040518083038186803b158015610e3457600080fd5b505afa158015610e48573d6000803e3d6000fd5b505050506040513d601f19601f82011682018060405250810190610e6c9190611ac6565b828281518110610e7f57610e7e612230565b5b6020026020010181815250508080610e9690612189565b915050610d9c565b50809250505090565b610eaf6117c1565b73ffffffffffffffffffffffffffffffffffffffff16610ecd610f2f565b73ffffffffffffffffffffffffffffffffffffffff1614610f23576040517f08c379a0000000000000000000000000000000000000000000000000000000008152600401610f1a90611e71565b60405180910390fd5b610f2d60006117c9565b565b60008060009054906101000a900473ffffffffffffffffffffffffffffffffffffffff16905090565b60606000600160009054906101000a900473ffffffffffffffffffffffffffffffffffffffff1673ffffffffffffffffffffffffffffffffffffffff16632acada4d6040518163ffffffff1660e01b815260040160006040518083038186803b158015610fc457600080fd5b505afa158015610fd8573d6000803e3d6000fd5b505050506040513d6000823e3d601f19601f8201168201806040525081019061100191906119e3565b90506000815167ffffffffffffffff8111156110205761101f61225f565b5b60405190808252806020026020018201604052801561104e5781602001602082028036833780820191505090505b50905060005b825181101561115457600160009054906101000a900473ffffffffffffffffffffffffffffffffffffffff1673ffffffffffffffffffffffffffffffffffffffff166331d98b3f8483815181106110ae576110ad612230565b5b60200260200101516040518263ffffffff1660e01b81526004016110d29190611d97565b60206040518083038186803b1580156110ea57600080fd5b505afa1580156110fe573d6000803e3d6000fd5b505050506040513d601f19601f820116820180604052508101906111229190611ac6565b82828151811061113557611134612230565b5b602002602001018181525050808061114c90612189565b915050611054565b50809250505090565b60045481565b3373ffffffffffffffffffffffffffffffffffffffff167fcd909ec339185c4598a4096e174308fbdf136d117f230960f873a2f2e81f63af34426040516111ab929190611eec565b60405180910390a2565b600160009054906101000a900473ffffffffffffffffffffffffffffffffffffffff1681565b6000670de0b6b3a7640000600260009054906101000a900473ffffffffffffffffffffffffffffffffffffffff1673ffffffffffffffffffffffffffffffffffffffff1663c79d5ec530856040518363ffffffff1660e01b8152600401611243929190611d16565b60206040518083038186803b15801561125b57600080fd5b505afa15801561126f573d6000803e3d6000fd5b505050506040513d601f19601f820116820180604052508101906112939190611ac6565b600160009054906101000a900473ffffffffffffffffffffffffffffffffffffffff1673ffffffffffffffffffffffffffffffffffffffff166331d98b3f856040518263ffffffff1660e01b81526004016112ee9190611d97565b60206040518083038186803b15801561130657600080fd5b505afa15801561131a573d6000803e3d6000fd5b505050506040513d601f19601f8201168201806040525081019061133e9190611ac6565b6113489190612064565b6113529190612033565b9050919050565b6113616117c1565b73ffffffffffffffffffffffffffffffffffffffff1661137f610f2f565b73ffffffffffffffffffffffffffffffffffffffff16146113d5576040517f08c379a00000000000000000000000000000000000000000000000000000000081526004016113cc90611e71565b60405180910390fd5b600360009054906101000a900473ffffffffffffffffffffffffffffffffffffffff1673ffffffffffffffffffffffffffffffffffffffff1663c5ebeaec826040518263ffffffff1660e01b81526004016114309190611ed1565b600060405180830381600087803b15801561144a57600080fd5b505af115801561145e573d6000803e3d6000fd5b505050503373ffffffffffffffffffffffffffffffffffffffff167feae9cfbc77fdd40ca899f36b608256063b2bc9d8178b0220f7ad513e178d673082426040516114aa929190611eec565b60405180910390a26114ba610ae5565b6114f9576040517f08c379a00000000000000000000000000000000000000000000000000000000081526004016114f090611eb1565b60405180910390fd5b50565b6000804790506000600160009054906101000a900473ffffffffffffffffffffffffffffffffffffffff1673ffffffffffffffffffffffffffffffffffffffff16632acada4d6040518163ffffffff1660e01b815260040160006040518083038186803b15801561156c57600080fd5b505afa158015611580573d6000803e3d6000fd5b505050506040513d6000823e3d601f19601f820116820180604052508101906115a991906119e3565b905060005b81518110156115fa576115da8282815181106115cd576115cc612230565b5b60200260200101516111db565b836115e59190611fdd565b925080806115f290612189565b9150506115ae565b50819250505090565b600260009054906101000a900473ffffffffffffffffffffffffffffffffffffffff1681565b61163161188d565b60405180608001604052806116446114fc565b81526020016116516104c6565b815260200161165e611779565b815260200161166b610ae5565b611676576000611679565b60015b815250905090565b6116896117c1565b73ffffffffffffffffffffffffffffffffffffffff166116a7610f2f565b73ffffffffffffffffffffffffffffffffffffffff16146116fd576040517f08c379a00000000000000000000000000000000000000000000000000000000081526004016116f490611e71565b60405180910390fd5b600073ffffffffffffffffffffffffffffffffffffffff168173ffffffffffffffffffffffffffffffffffffffff16141561176d576040517f08c379a000000000000000000000000000000000000000000000000000000000815260040161176490611e31565b60405180910390fd5b611776816117c9565b50565b6000806117846104c6565b9050600081141561179a576127109150506117be565b806103e86117a66114fc565b6117b09190612064565b6117ba9190612033565b9150505b90565b600033905090565b60008060009054906101000a900473ffffffffffffffffffffffffffffffffffffffff169050816000806101000a81548173ffffffffffffffffffffffffffffffffffffffff021916908373ffffffffffffffffffffffffffffffffffffffff1602179055508173ffffffffffffffffffffffffffffffffffffffff168173ffffffffffffffffffffffffffffffffffffffff167f8be0079c531659141344cd1fd0a4f28419497f9722a3daafe3b4186f6b6457e060405160405180910390a35050565b6040518060800160405280600490602082028036833780820191505090505090565b60006118c26118bd84611f3a565b611f15565b905080838252602082019050828560208602820111156118e5576118e4612293565b5b60005b8581101561191557816118fb8882611977565b8452602084019350602083019250506001810190506118e8565b5050509392505050565b60008135905061192e81612467565b92915050565b600082601f8301126119495761194861228e565b5b81516119598482602086016118af565b91505092915050565b6000813590506119718161247e565b92915050565b6000815190506119868161247e565b92915050565b60008135905061199b81612495565b92915050565b6000815190506119b081612495565b92915050565b6000602082840312156119cc576119cb61229d565b5b60006119da8482850161191f565b91505092915050565b6000602082840312156119f9576119f861229d565b5b600082015167ffffffffffffffff811115611a1757611a16612298565b5b611a2384828501611934565b91505092915050565b600060208284031215611a4257611a4161229d565b5b6000611a5084828501611962565b91505092915050565b60008060408385031215611a7057611a6f61229d565b5b6000611a7e85828601611962565b9250506020611a8f8582860161198c565b9150509250929050565b600060208284031215611aaf57611aae61229d565b5b6000611abd8482850161198c565b91505092915050565b600060208284031215611adc57611adb61229d565b5b6000611aea848285016119a1565b91505092915050565b6000611aff8383611cdd565b60208301905092915050565b611b14816120be565b82525050565b611b2381611f80565b611b2d8184611fb0565b9250611b3882611f66565b8060005b83811015611b69578151611b508782611af3565b9650611b5b83611f96565b925050600181019050611b3c565b505050505050565b6000611b7c82611f8b565b611b868185611fbb565b9350611b9183611f70565b8060005b83811015611bc2578151611ba98882611af3565b9750611bb483611fa3565b925050600181019050611b95565b5085935050505092915050565b611bd8816120d0565b82525050565b611be7816120dc565b82525050565b611bf681612110565b82525050565b611c0581612134565b82525050565b6000611c18602b83611fcc565b9150611c23826122b3565b604082019050919050565b6000611c3b602683611fcc565b9150611c4682612302565b604082019050919050565b6000611c5e602583611fcc565b9150611c6982612351565b604082019050919050565b6000611c81602083611fcc565b9150611c8c826123a0565b602082019050919050565b6000611ca4602283611fcc565b9150611caf826123c9565b604082019050919050565b6000611cc7603483611fcc565b9150611cd282612418565b604082019050919050565b611ce681612106565b82525050565b611cf581612106565b82525050565b6000602082019050611d106000830184611b0b565b92915050565b6000604082019050611d2b6000830185611b0b565b611d386020830184611bde565b9392505050565b6000608082019050611d546000830184611b1a565b92915050565b60006020820190508181036000830152611d748184611b71565b905092915050565b6000602082019050611d916000830184611bcf565b92915050565b6000602082019050611dac6000830184611bde565b92915050565b6000604082019050611dc76000830185611bde565b611dd46020830184611cec565b9392505050565b6000602082019050611df06000830184611bed565b92915050565b6000602082019050611e0b6000830184611bfc565b92915050565b60006020820190508181036000830152611e2a81611c0b565b9050919050565b60006020820190508181036000830152611e4a81611c2e565b9050919050565b60006020820190508181036000830152611e6a81611c51565b9050919050565b60006020820190508181036000830152611e8a81611c74565b9050919050565b60006020820190508181036000830152611eaa81611c97565b9050919050565b60006020820190508181036000830152611eca81611cba565b9050919050565b6000602082019050611ee66000830184611cec565b92915050565b6000604082019050611f016000830185611cec565b611f0e6020830184611cec565b9392505050565b6000611f1f611f30565b9050611f2b8282612158565b919050565b6000604051905090565b600067ffffffffffffffff821115611f5557611f5461225f565b5b602082029050602081019050919050565b6000819050919050565b6000819050602082019050919050565b600060049050919050565b600081519050919050565b6000602082019050919050565b6000602082019050919050565b600081905092915050565b600082825260208201905092915050565b600082825260208201905092915050565b6000611fe882612106565b9150611ff383612106565b9250827fffffffffffffffffffffffffffffffffffffffffffffffffffffffffffffffff03821115612028576120276121d2565b5b828201905092915050565b600061203e82612106565b915061204983612106565b92508261205957612058612201565b5b828204905092915050565b600061206f82612106565b915061207a83612106565b9250817fffffffffffffffffffffffffffffffffffffffffffffffffffffffffffffffff04831182151516156120b3576120b26121d2565b5b828202905092915050565b60006120c9826120e6565b9050919050565b60008115159050919050565b6000819050919050565b600073ffffffffffffffffffffffffffffffffffffffff82169050919050565b6000819050919050565b600061211b82612122565b9050919050565b600061212d826120e6565b9050919050565b600061213f82612146565b9050919050565b6000612151826120e6565b9050919050565b612161826122a2565b810181811067ffffffffffffffff821117156121805761217f61225f565b5b80604052505050565b600061219482612106565b91507fffffffffffffffffffffffffffffffffffffffffffffffffffffffffffffffff8214156121c7576121c66121d2565b5b600182019050919050565b7f4e487b7100000000000000000000000000000000000000000000000000000000600052601160045260246000fd5b7f4e487b7100000000000000000000000000000000000000000000000000000000600052601260045260246000fd5b7f4e487b7100000000000000000000000000000000000000000000000000000000600052603260045260246000fd5b7f4e487b7100000000000000000000000000000000000000000000000000000000600052604160045260246000fd5b600080fd5b600080fd5b600080fd5b600080fd5b6000601f19601f8301169050919050565b7f5468657265206973206e6f7420656e6f7567682066756e647320746f2072657060008201527f617920746865206c6f616e000000000000000000000000000000000000000000602082015250565b7f4f776e61626c653a206e6577206f776e657220697320746865207a65726f206160008201527f6464726573730000000000000000000000000000000000000000000000000000602082015250565b7f5468657265206973206e6f7420656e6f7567682066756e647320746f2077697460008201527f6864726177000000000000000000000000000000000000000000000000000000602082015250565b7f4f776e61626c653a2063616c6c6572206973206e6f7420746865206f776e6572600082015250565b7f43616e6e6f74206c6971756964617465206120736f6c76656e74206163636f7560008201527f6e74000000000000000000000000000000000000000000000000000000000000602082015250565b7f54686520616374696f6e206d617920636175736520616e206163636f756e742060008201527f746f206265636f6d6520696e736f6c76656e742e000000000000000000000000602082015250565b612470816120be565b811461247b57600080fd5b50565b612487816120dc565b811461249257600080fd5b50565b61249e81612106565b81146124a957600080fd5b5056fea264697066735822122000738533301ca8c9debfbf6b0c7677ee2a6967770c9e548a6b3c61c582708e4e64736f6c63430008060033a26469706673582212202ea20b17adcb0d80dc9aff50bbe2aa6ed648c77457a2d509981c8deda016cda964736f6c63430008060033",
  "immutableReferences": {},
  "source": "// SPDX-License-Identifier: UNLICENSED\npragma solidity ^0.8.2;\n\nimport \"./SmartLoan.sol\";\nimport \"./Pool.sol\";\nimport \"./IPriceProvider.sol\";\nimport \"./IAssetsExchange.sol\";\n\n/**\n * @title SmartLoansFactory\n * It creates and fund the Smart Loan.\n * It's also responsible for keeping track of the loans and ensuring they follow the solvency protection rules\n * and could be authorised to access the lending pool.\n *\n */\ncontract SmartLoansFactory is IBorrowersRegistry {\n\n  event SmartLoanCreated(address indexed accountAddress, address indexed creator);\n\n  Pool private pool;\n  IPriceProvider private priceProvider;\n  IAssetsExchange assetsExchange;\n\n  uint256 private constant MAX_VAL = 2**256-1 ether;\n\n  mapping(address => SmartLoan) public creatorsToAccounts;\n  mapping(address => address) public accountsToCreators;\n\n  SmartLoan[] loans;\n\n  constructor(\n    Pool _pool,\n    IPriceProvider _priceProvider,\n    IAssetsExchange _assetsExchange\n  ) {\n    pool = _pool;\n    priceProvider = _priceProvider;\n    assetsExchange = _assetsExchange;\n  }\n\n  function createLoan() public returns(SmartLoan) {\n    SmartLoan newAccount = new SmartLoan(priceProvider, assetsExchange, pool);\n\n    //Update registry and emit event\n    updateRegistry(newAccount);\n    newAccount.transferOwnership(msg.sender);\n\n    return newAccount;\n  }\n\n  function createAndFundLoan(uint256 _initialDebt) external payable returns(SmartLoan) {\n    SmartLoan newAccount = new SmartLoan(priceProvider, assetsExchange, pool);\n\n    //Update registry and emit event\n    updateRegistry(newAccount);\n\n    //Fund account with own funds and credit\n    newAccount.fund{value:msg.value}();\n    newAccount.borrow(_initialDebt);\n    require(newAccount.isSolvent());\n\n    newAccount.transferOwnership(msg.sender);\n\n    return newAccount;\n  }\n\n  function updateRegistry(SmartLoan _newAccount) internal {\n    creatorsToAccounts[msg.sender] = _newAccount;\n    accountsToCreators[address(_newAccount)] = msg.sender;\n    loans.push(_newAccount);\n\n    emit SmartLoanCreated(address(_newAccount), msg.sender);\n  }\n\n  function canBorrow(address _account) external view override returns(bool) {\n    return accountsToCreators[_account] != address(0);\n  }\n\n  function getAccountForUser(address _user) external view override returns(address) {\n    return address(creatorsToAccounts[_user]);\n  }\n\n  function getOwnerOfLoan(address _loan) external view override returns(address) {\n    return accountsToCreators[_loan];\n  }\n\n  function getAllLoans() public view returns(SmartLoan[] memory) {\n    return loans;\n  }\n\n}\n",
  "sourcePath": "/Users/apple/Redstone/smart-broker/contracts/SmartLoansFactory.sol",
  "compiler": {
    "name": "solc",
    "version": "0.8.6+commit.11564f7e.Emscripten.clang"
  },
  "schemaVersion": "3.4.2",
  "updatedAt": "2021-08-05T13:09:52.949Z",
  "devdoc": {
    "kind": "dev",
    "methods": {},
    "title": "SmartLoansFactory It creates and fund the Smart Loan. It's also responsible for keeping track of the loans and ensuring they follow the solvency protection rules and could be authorised to access the lending pool.",
    "version": 1
  },
  "userdoc": {
    "kind": "user",
    "methods": {},
    "version": 1
  }
}