{
  "contractName": "UtilisationRatesCalculator",
  "abi": [
    {
      "inputs": [
        {
          "internalType": "uint256",
          "name": "_utilisationFactor",
          "type": "uint256"
        },
        {
          "internalType": "uint256",
          "name": "_offset",
          "type": "uint256"
        }
      ],
      "stateMutability": "nonpayable",
      "type": "constructor"
    },
    {
      "anonymous": false,
      "inputs": [
        {
          "indexed": true,
          "internalType": "address",
          "name": "previousOwner",
          "type": "address"
        },
        {
          "indexed": true,
          "internalType": "address",
          "name": "newOwner",
          "type": "address"
        }
      ],
      "name": "OwnershipTransferred",
      "type": "event"
    },
    {
      "anonymous": false,
      "inputs": [
        {
          "indexed": false,
          "internalType": "uint256",
          "name": "utilisationFactor",
          "type": "uint256"
        },
        {
          "indexed": false,
          "internalType": "uint256",
          "name": "offset",
          "type": "uint256"
        }
      ],
      "name": "ParametersUpdated",
      "type": "event"
    },
    {
      "inputs": [],
      "name": "owner",
      "outputs": [
        {
          "internalType": "address",
          "name": "",
          "type": "address"
        }
      ],
      "stateMutability": "view",
      "type": "function"
    },
    {
      "inputs": [],
      "name": "renounceOwnership",
      "outputs": [],
      "stateMutability": "nonpayable",
      "type": "function"
    },
    {
      "inputs": [
        {
          "internalType": "address",
          "name": "newOwner",
          "type": "address"
        }
      ],
      "name": "transferOwnership",
      "outputs": [],
      "stateMutability": "nonpayable",
      "type": "function"
    },
    {
      "inputs": [
        {
          "internalType": "uint256",
          "name": "_utilisationFactor",
          "type": "uint256"
        },
        {
          "internalType": "uint256",
          "name": "_offset",
          "type": "uint256"
        }
      ],
      "name": "setParameters",
      "outputs": [],
      "stateMutability": "nonpayable",
      "type": "function"
    },
    {
      "inputs": [
        {
          "internalType": "uint256",
          "name": "_totalLoans",
          "type": "uint256"
        },
        {
          "internalType": "uint256",
          "name": "_totalDeposits",
          "type": "uint256"
        }
      ],
      "name": "getPoolUtilisation",
      "outputs": [
        {
          "internalType": "uint256",
          "name": "",
          "type": "uint256"
        }
      ],
      "stateMutability": "pure",
      "type": "function"
    },
    {
      "inputs": [
        {
          "internalType": "uint256",
          "name": "_totalLoans",
          "type": "uint256"
        },
        {
          "internalType": "uint256",
          "name": "_totalDeposits",
          "type": "uint256"
        }
      ],
      "name": "calculateDepositRate",
      "outputs": [
        {
          "internalType": "uint256",
          "name": "",
          "type": "uint256"
        }
      ],
      "stateMutability": "view",
      "type": "function"
    },
    {
      "inputs": [
        {
          "internalType": "uint256",
          "name": "totalLoans",
          "type": "uint256"
        },
        {
          "internalType": "uint256",
          "name": "totalDeposits",
          "type": "uint256"
        }
      ],
      "name": "calculateBorrowingRate",
      "outputs": [
        {
          "internalType": "uint256",
          "name": "",
          "type": "uint256"
        }
      ],
      "stateMutability": "view",
      "type": "function"
    }
  ],
  "bytecode": "0x60806040523480156200001157600080fd5b5060405162001281380380620012818339818101604052810190620000379190620002f5565b620000576200004b6200007160201b60201c565b6200007960201b60201c565b6200006982826200013d60201b60201c565b505062000556565b600033905090565b60008060009054906101000a900473ffffffffffffffffffffffffffffffffffffffff169050816000806101000a81548173ffffffffffffffffffffffffffffffffffffffff021916908373ffffffffffffffffffffffffffffffffffffffff1602179055508173ffffffffffffffffffffffffffffffffffffffff168173ffffffffffffffffffffffffffffffffffffffff167f8be0079c531659141344cd1fd0a4f28419497f9722a3daafe3b4186f6b6457e060405160405180910390a35050565b6200014d6200007160201b60201c565b73ffffffffffffffffffffffffffffffffffffffff1662000173620002b560201b60201c565b73ffffffffffffffffffffffffffffffffffffffff1614620001cc576040517f08c379a0000000000000000000000000000000000000000000000000000000008152600401620001c39062000406565b60405180910390fd5b670de0b6b3a76400008211156200021a576040517f08c379a00000000000000000000000000000000000000000000000000000000081526004016200021190620003c2565b60405180910390fd5b670de0b6b3a764000081111562000268576040517f08c379a00000000000000000000000000000000000000000000000000000000081526004016200025f90620003e4565b60405180910390fd5b81600181905550806002819055507ffaccb0639ff7851e0e24f3b2d9ab03cd62ffb63f5b4d90aaeff85bb078c1fa488282604051620002a992919062000428565b60405180910390a15050565b60008060009054906101000a900473ffffffffffffffffffffffffffffffffffffffff16905090565b600081519050620002ef816200053c565b92915050565b600080604083850312156200030f576200030e62000470565b5b60006200031f85828601620002de565b92505060206200033285828601620002de565b9150509250929050565b60006200034b602c8362000455565b9150620003588262000475565b604082019050919050565b600062000372602c8362000455565b91506200037f82620004c4565b604082019050919050565b60006200039960208362000455565b9150620003a68262000513565b602082019050919050565b620003bc8162000466565b82525050565b60006020820190508181036000830152620003dd816200033c565b9050919050565b60006020820190508181036000830152620003ff8162000363565b9050919050565b6000602082019050818103600083015262000421816200038a565b9050919050565b60006040820190506200043f6000830185620003b1565b6200044e6020830184620003b1565b9392505050565b600082825260208201905092915050565b6000819050919050565b600080fd5b7f43616c63756c61746f7220666163746f72206d757374206e6f7420626520686960008201527f67686572207468616e20312e0000000000000000000000000000000000000000602082015250565b7f43616c63756c61746f72206f6666736574206d757374206e6f7420626520686960008201527f67686572207468616e20312e0000000000000000000000000000000000000000602082015250565b7f4f776e61626c653a2063616c6c6572206973206e6f7420746865206f776e6572600082015250565b620005478162000466565b81146200055357600080fd5b50565b610d1b80620005666000396000f3fe608060405234801561001057600080fd5b506004361061007d5760003560e01c80638da5cb5b1161005b5780638da5cb5b146100d85780639ceca965146100f6578063df841eec14610126578063f2fde38b146101565761007d565b8063715018a6146100825780637cd083311461008c578063884870c7146100bc575b600080fd5b61008a610172565b005b6100a660048036038101906100a19190610847565b6101fa565b6040516100b391906109cc565b60405180910390f35b6100d660048036038101906100d19190610847565b6102e5565b005b6100e0610442565b6040516100ed9190610931565b60405180910390f35b610110600480360381019061010b9190610847565b61046b565b60405161011d91906109cc565b60405180910390f35b610140600480360381019061013b9190610847565b6104b2565b60405161014d91906109cc565b60405180910390f35b610170600480360381019061016b91906107ed565b6104ff565b005b61017a6105f7565b73ffffffffffffffffffffffffffffffffffffffff16610198610442565b73ffffffffffffffffffffffffffffffffffffffff16146101ee576040517f08c379a00000000000000000000000000000000000000000000000000000000081526004016101e5906109ac565b60405180910390fd5b6101f860006105ff565b565b60008082141561020d57600090506102df565b6102dc6102d761021c846106c3565b6102c9610228876106c3565b6102bb3073ffffffffffffffffffffffffffffffffffffffff1663df841eec8a8a6040518363ffffffff1660e01b81526004016102669291906109e7565b60206040518083038186803b15801561027e57600080fd5b505afa158015610292573d6000803e3d6000fd5b505050506040513d601f19601f820116820180604052508101906102b6919061081a565b6106c3565b6106dc90919063ffffffff16565b61072c90919063ffffffff16565b610775565b90505b92915050565b6102ed6105f7565b73ffffffffffffffffffffffffffffffffffffffff1661030b610442565b73ffffffffffffffffffffffffffffffffffffffff1614610361576040517f08c379a0000000000000000000000000000000000000000000000000000000008152600401610358906109ac565b60405180910390fd5b670de0b6b3a76400008211156103ac576040517f08c379a00000000000000000000000000000000000000000000000000000000081526004016103a39061096c565b60405180910390fd5b670de0b6b3a76400008111156103f7576040517f08c379a00000000000000000000000000000000000000000000000000000000081526004016103ee9061098c565b60405180910390fd5b81600181905550806002819055507ffaccb0639ff7851e0e24f3b2d9ab03cd62ffb63f5b4d90aaeff85bb078c1fa4882826040516104369291906109e7565b60405180910390a15050565b60008060009054906101000a900473ffffffffffffffffffffffffffffffffffffffff16905090565b60008082141561047e57600090506104ac565b6104a96104a461048d846106c3565b610496866106c3565b61072c90919063ffffffff16565b610775565b90505b92915050565b60006002546104ed6104e86104c86001546106c3565b6104da6104d5888861046b565b6106c3565b6106dc90919063ffffffff16565b610775565b6104f79190610a21565b905092915050565b6105076105f7565b73ffffffffffffffffffffffffffffffffffffffff16610525610442565b73ffffffffffffffffffffffffffffffffffffffff161461057b576040517f08c379a0000000000000000000000000000000000000000000000000000000008152600401610572906109ac565b60405180910390fd5b600073ffffffffffffffffffffffffffffffffffffffff168173ffffffffffffffffffffffffffffffffffffffff1614156105eb576040517f08c379a00000000000000000000000000000000000000000000000000000000081526004016105e29061094c565b60405180910390fd5b6105f4816105ff565b50565b600033905090565b60008060009054906101000a900473ffffffffffffffffffffffffffffffffffffffff169050816000806101000a81548173ffffffffffffffffffffffffffffffffffffffff021916908373ffffffffffffffffffffffffffffffffffffffff1602179055508173ffffffffffffffffffffffffffffffffffffffff168173ffffffffffffffffffffffffffffffffffffffff167f8be0079c531659141344cd1fd0a4f28419497f9722a3daafe3b4186f6b6457e060405160405180910390a35050565b6000633b9aca00826106d59190610aa8565b9050919050565b60006b033b2e3c9fd0803ce800000082846106f79190610aa8565b60026b033b2e3c9fd0803ce80000006107109190610a77565b61071a9190610a21565b6107249190610a77565b905092915050565b60008060028361073c9190610a77565b9050826b033b2e3c9fd0803ce8000000856107579190610aa8565b826107629190610a21565b61076c9190610a77565b91505092915050565b6000806002633b9aca006107899190610a77565b9050633b9aca00838261079c9190610a21565b6107a69190610a77565b915050919050565b6000813590506107bd81610cb7565b92915050565b6000813590506107d281610cce565b92915050565b6000815190506107e781610cce565b92915050565b60006020828403121561080357610802610b9c565b5b6000610811848285016107ae565b91505092915050565b6000602082840312156108305761082f610b9c565b5b600061083e848285016107d8565b91505092915050565b6000806040838503121561085e5761085d610b9c565b5b600061086c858286016107c3565b925050602061087d858286016107c3565b9150509250929050565b61089081610b02565b82525050565b60006108a3602683610a10565b91506108ae82610ba1565b604082019050919050565b60006108c6602c83610a10565b91506108d182610bf0565b604082019050919050565b60006108e9602c83610a10565b91506108f482610c3f565b604082019050919050565b600061090c602083610a10565b915061091782610c8e565b602082019050919050565b61092b81610b34565b82525050565b60006020820190506109466000830184610887565b92915050565b6000602082019050818103600083015261096581610896565b9050919050565b60006020820190508181036000830152610985816108b9565b9050919050565b600060208201905081810360008301526109a5816108dc565b9050919050565b600060208201905081810360008301526109c5816108ff565b9050919050565b60006020820190506109e16000830184610922565b92915050565b60006040820190506109fc6000830185610922565b610a096020830184610922565b9392505050565b600082825260208201905092915050565b6000610a2c82610b34565b9150610a3783610b34565b9250827fffffffffffffffffffffffffffffffffffffffffffffffffffffffffffffffff03821115610a6c57610a6b610b3e565b5b828201905092915050565b6000610a8282610b34565b9150610a8d83610b34565b925082610a9d57610a9c610b6d565b5b828204905092915050565b6000610ab382610b34565b9150610abe83610b34565b9250817fffffffffffffffffffffffffffffffffffffffffffffffffffffffffffffffff0483118215151615610af757610af6610b3e565b5b828202905092915050565b6000610b0d82610b14565b9050919050565b600073ffffffffffffffffffffffffffffffffffffffff82169050919050565b6000819050919050565b7f4e487b7100000000000000000000000000000000000000000000000000000000600052601160045260246000fd5b7f4e487b7100000000000000000000000000000000000000000000000000000000600052601260045260246000fd5b600080fd5b7f4f776e61626c653a206e6577206f776e657220697320746865207a65726f206160008201527f6464726573730000000000000000000000000000000000000000000000000000602082015250565b7f43616c63756c61746f7220666163746f72206d757374206e6f7420626520686960008201527f67686572207468616e20312e0000000000000000000000000000000000000000602082015250565b7f43616c63756c61746f72206f6666736574206d757374206e6f7420626520686960008201527f67686572207468616e20312e0000000000000000000000000000000000000000602082015250565b7f4f776e61626c653a2063616c6c6572206973206e6f7420746865206f776e6572600082015250565b610cc081610b02565b8114610ccb57600080fd5b50565b610cd781610b34565b8114610ce257600080fd5b5056fea2646970667358221220ef6547387fc58a41ccc4f6b4775b48c32ed62995ee2a94058ad838f7bf36bada64736f6c63430008060033",
  "immutableReferences": {},
  "source": "// SPDX-License-Identifier: UNLICENSED\npragma solidity ^0.8.2;\n\nimport \"@openzeppelin/contracts/access/Ownable.sol\";\nimport \"./IRatesCalculator.sol\";\nimport \"./WadRayMath.sol\";\n\n\n/**\n * @title UtilisationRatesCalculator\n * @dev Contract which calculates the interest rates based on pool utilisation.\n * Utilisation is computed as the ratio between funds borrowed and funds deposited to the pool.\n * Rates are calculated using a linear function with slope defined by _utilisation factor and\n * shifted by an offset parameter.\n */\ncontract UtilisationRatesCalculator is IRatesCalculator, Ownable {\n    using WadRayMath for uint256;\n\n    uint256 utilisationFactor;\n    uint256 offset;\n\n    constructor(uint256 _utilisationFactor, uint256 _offset) {\n        setParameters(_utilisationFactor, _offset);\n    }\n\n\n    /* ========== SETTERS ========== */\n\n\n    /**\n     * Sets the utilisation parameters that control rates calculation according to the linear formula:\n     * Rate = utilisation * utilisationFactor + offset\n     * @dev _utilisationFactor the slope of the rate formula\n     * @dev _offset the offset of the rate formula\n    **/\n    function setParameters(uint256 _utilisationFactor, uint256 _offset) public onlyOwner {\n        require(_utilisationFactor <= 1 ether, \"Calculator factor must not be higher than 1.\");\n        require(_offset <= 1 ether, \"Calculator offset must not be higher than 1.\");\n\n        utilisationFactor = _utilisationFactor;\n        offset = _offset;\n\n        emit ParametersUpdated(_utilisationFactor, _offset);\n    }\n\n\n    /* ========== VIEW FUNCTIONS ========== */\n\n\n    /**\n      * Returns the pool utilisation, which is a ratio between loans and deposits\n      * utilisation = value_of_loans / value_of_deposits\n      * @dev _totalLoans total value of loans\n      * @dev _totalDeposits total value of deposits\n    **/\n    function getPoolUtilisation(uint256 _totalLoans, uint256 _totalDeposits) public pure returns(uint256) {\n        if (_totalDeposits == 0) return 0;\n\n        return _totalLoans.wadToRay()\n               .rayDiv(_totalDeposits.wadToRay())\n               .rayToWad();\n    }\n\n\n    /**\n      * Returns the current deposit rate\n      * The value is based on the current borrowing rate and satisfies the invariant:\n      * value_of_loans * borrowing_rate = value_of_deposits * deposit_rate\n      * @dev _totalLoans total value of loans\n      * @dev _totalDeposits total value of deposits\n    **/\n    function calculateDepositRate(uint256 _totalLoans, uint256 _totalDeposits) external view override returns(uint256) {\n        if (_totalDeposits == 0) return 0;\n\n        return this.calculateBorrowingRate(_totalLoans, _totalDeposits).wadToRay()\n            .rayMul(_totalLoans.wadToRay())\n            .rayDiv(_totalDeposits.wadToRay())\n            .rayToWad();\n    }\n\n      /**\n      * Returns the current borrowing rate\n      * The value is based on the pool utilisation according to the linear formula:\n      * borrowing_ate = utilisation * utilisationFactor + offset\n      * @dev _totalLoans total value of loans\n      * @dev _totalDeposits total value of deposits\n    **/\n    function calculateBorrowingRate(uint256 totalLoans, uint256 totalDeposits) external view override returns(uint256) {\n        return getPoolUtilisation(totalLoans, totalDeposits).wadToRay()\n                .rayMul(utilisationFactor.wadToRay()).rayToWad()\n                + offset;\n    }\n\n\n    /* ========== EVENTS ========== */\n\n\n    /**\n      * An event notifying about the parameters update.\n      * @dev utilisationFactor the value of updated rate\n      * @dev offset the value of updated rate\n    **/\n    event ParametersUpdated(uint256 utilisationFactor, uint256 offset);\n\n}\n",
  "sourcePath": "/Users/apple/Redstone/smart-broker/contracts/UtilisationRatesCalculator.sol",
  "compiler": {
    "name": "solc",
    "version": "0.8.6+commit.11564f7e.Emscripten.clang"
  },
  "schemaVersion": "3.4.2",
  "updatedAt": "2021-08-05T13:09:52.957Z",
  "devdoc": {
    "details": "Contract which calculates the interest rates based on pool utilisation. Utilisation is computed as the ratio between funds borrowed and funds deposited to the pool. Rates are calculated using a linear function with slope defined by _utilisation factor and shifted by an offset parameter.",
    "events": {
      "ParametersUpdated(uint256,uint256)": {
        "details": "utilisationFactor the value of updated rateoffset the value of updated rate*"
      }
    },
    "kind": "dev",
    "methods": {
      "calculateBorrowingRate(uint256,uint256)": {
        "details": "_totalLoans total value of loans_totalDeposits total value of deposits*"
      },
      "calculateDepositRate(uint256,uint256)": {
        "details": "_totalLoans total value of loans_totalDeposits total value of deposits*"
      },
      "getPoolUtilisation(uint256,uint256)": {
        "details": "_totalLoans total value of loans_totalDeposits total value of deposits*"
      },
      "owner()": {
        "details": "Returns the address of the current owner."
      },
      "renounceOwnership()": {
        "details": "Leaves the contract without owner. It will not be possible to call `onlyOwner` functions anymore. Can only be called by the current owner. NOTE: Renouncing ownership will leave the contract without an owner, thereby removing any functionality that is only available to the owner."
      },
      "setParameters(uint256,uint256)": {
        "details": "_utilisationFactor the slope of the rate formula_offset the offset of the rate formula*"
      },
      "transferOwnership(address)": {
        "details": "Transfers ownership of the contract to a new account (`newOwner`). Can only be called by the current owner."
      }
    },
    "title": "UtilisationRatesCalculator",
    "version": 1
  },
  "userdoc": {
    "events": {
      "ParametersUpdated(uint256,uint256)": {
        "notice": "An event notifying about the parameters update."
      }
    },
    "kind": "user",
    "methods": {
      "calculateBorrowingRate(uint256,uint256)": {
        "notice": "Returns the current borrowing rate The value is based on the pool utilisation according to the linear formula: borrowing_ate = utilisation * utilisationFactor + offset"
      },
      "calculateDepositRate(uint256,uint256)": {
        "notice": "Returns the current deposit rate The value is based on the current borrowing rate and satisfies the invariant: value_of_loans * borrowing_rate = value_of_deposits * deposit_rate"
      },
      "getPoolUtilisation(uint256,uint256)": {
        "notice": "Returns the pool utilisation, which is a ratio between loans and deposits utilisation = value_of_loans / value_of_deposits"
      },
      "setParameters(uint256,uint256)": {
        "notice": "Sets the utilisation parameters that control rates calculation according to the linear formula: Rate = utilisation * utilisationFactor + offset"
      }
    },
    "version": 1
  }
}